{
  "_format": "hh3-artifact-1",
  "contractName": "BloxlandSubnameRegistrar",
  "sourceName": "contracts/BloxlandENS.sol",
  "abi": [
    {
      "inputs": [
        {
          "internalType": "address",
          "name": "_nameWrapper",
          "type": "address"
        },
        {
          "internalType": "address",
          "name": "_resolver",
          "type": "address"
        },
        {
          "internalType": "bytes32",
          "name": "_parentNode",
          "type": "bytes32"
        },
        {
          "internalType": "uint32",
          "name": "_defaultFuses",
          "type": "uint32"
        },
        {
          "internalType": "uint64",
          "name": "_defaultExpiry",
          "type": "uint64"
        }
      ],
      "stateMutability": "nonpayable",
      "type": "constructor"
    },
    {
      "anonymous": false,
      "inputs": [
        {
          "indexed": true,
          "internalType": "address",
          "name": "subdomainOwner",
          "type": "address"
        },
        {
          "indexed": false,
          "internalType": "string",
          "name": "label",
          "type": "string"
        },
        {
          "indexed": true,
          "internalType": "bytes32",
          "name": "node",
          "type": "bytes32"
        },
        {
          "indexed": false,
          "internalType": "uint64",
          "name": "expiry",
          "type": "uint64"
        }
      ],
      "name": "SubnameRegistered",
      "type": "event"
    },
    {
      "inputs": [],
      "name": "defaultExpiry",
      "outputs": [
        {
          "internalType": "uint64",
          "name": "",
          "type": "uint64"
        }
      ],
      "stateMutability": "view",
      "type": "function"
    },
    {
      "inputs": [],
      "name": "defaultFuses",
      "outputs": [
        {
          "internalType": "uint32",
          "name": "",
          "type": "uint32"
        }
      ],
      "stateMutability": "view",
      "type": "function"
    },
    {
      "inputs": [
        {
          "internalType": "string",
          "name": "label",
          "type": "string"
        }
      ],
      "name": "getNodeHash",
      "outputs": [
        {
          "internalType": "bytes32",
          "name": "",
          "type": "bytes32"
        }
      ],
      "stateMutability": "pure",
      "type": "function"
    },
    {
      "inputs": [
        {
          "internalType": "string",
          "name": "label",
          "type": "string"
        }
      ],
      "name": "isValidLabel",
      "outputs": [
        {
          "internalType": "bool",
          "name": "",
          "type": "bool"
        }
      ],
      "stateMutability": "pure",
      "type": "function"
    },
    {
      "inputs": [],
      "name": "nameWrapper",
      "outputs": [
        {
          "internalType": "contract INameWrapper",
          "name": "",
          "type": "address"
        }
      ],
      "stateMutability": "view",
      "type": "function"
    },
    {
      "inputs": [
        {
          "internalType": "string",
          "name": "_name",
          "type": "string"
        }
      ],
      "name": "namehash",
      "outputs": [
        {
          "internalType": "bytes32",
          "name": "node",
          "type": "bytes32"
        }
      ],
      "stateMutability": "pure",
      "type": "function"
    },
    {
      "inputs": [
        {
          "internalType": "address",
          "name": "",
          "type": "address"
        },
        {
          "internalType": "address",
          "name": "",
          "type": "address"
        },
        {
          "internalType": "uint256[]",
          "name": "",
          "type": "uint256[]"
        },
        {
          "internalType": "uint256[]",
          "name": "",
          "type": "uint256[]"
        },
        {
          "internalType": "bytes",
          "name": "",
          "type": "bytes"
        }
      ],
      "name": "onERC1155BatchReceived",
      "outputs": [
        {
          "internalType": "bytes4",
          "name": "",
          "type": "bytes4"
        }
      ],
      "stateMutability": "nonpayable",
      "type": "function"
    },
    {
      "inputs": [
        {
          "internalType": "address",
          "name": "",
          "type": "address"
        },
        {
          "internalType": "address",
          "name": "",
          "type": "address"
        },
        {
          "internalType": "uint256",
          "name": "",
          "type": "uint256"
        },
        {
          "internalType": "uint256",
          "name": "",
          "type": "uint256"
        },
        {
          "internalType": "bytes",
          "name": "",
          "type": "bytes"
        }
      ],
      "name": "onERC1155Received",
      "outputs": [
        {
          "internalType": "bytes4",
          "name": "",
          "type": "bytes4"
        }
      ],
      "stateMutability": "nonpayable",
      "type": "function"
    },
    {
      "inputs": [],
      "name": "owner",
      "outputs": [
        {
          "internalType": "address",
          "name": "",
          "type": "address"
        }
      ],
      "stateMutability": "view",
      "type": "function"
    },
    {
      "inputs": [],
      "name": "parentNode",
      "outputs": [
        {
          "internalType": "bytes32",
          "name": "",
          "type": "bytes32"
        }
      ],
      "stateMutability": "view",
      "type": "function"
    },
    {
      "inputs": [
        {
          "internalType": "string",
          "name": "label",
          "type": "string"
        }
      ],
      "name": "recoverSubname",
      "outputs": [],
      "stateMutability": "nonpayable",
      "type": "function"
    },
    {
      "inputs": [
        {
          "internalType": "string",
          "name": "label",
          "type": "string"
        },
        {
          "internalType": "address",
          "name": "userAddress",
          "type": "address"
        }
      ],
      "name": "registerSubname",
      "outputs": [],
      "stateMutability": "nonpayable",
      "type": "function"
    },
    {
      "inputs": [],
      "name": "resolver",
      "outputs": [
        {
          "internalType": "address",
          "name": "",
          "type": "address"
        }
      ],
      "stateMutability": "view",
      "type": "function"
    },
    {
      "inputs": [
        {
          "internalType": "bytes4",
          "name": "interfaceId",
          "type": "bytes4"
        }
      ],
      "name": "supportsInterface",
      "outputs": [
        {
          "internalType": "bool",
          "name": "",
          "type": "bool"
        }
      ],
      "stateMutability": "view",
      "type": "function"
    },
    {
      "inputs": [
        {
          "internalType": "address",
          "name": "newOwner",
          "type": "address"
        }
      ],
      "name": "transferOwnership",
      "outputs": [],
      "stateMutability": "nonpayable",
      "type": "function"
    },
    {
      "inputs": [
        {
          "internalType": "uint32",
          "name": "_fuses",
          "type": "uint32"
        },
        {
          "internalType": "uint64",
          "name": "_expiry",
          "type": "uint64"
        }
      ],
      "name": "updateDefaults",
      "outputs": [],
      "stateMutability": "nonpayable",
      "type": "function"
    }
  ],
  "bytecode": "0x608060405234801561000f575f5ffd5b506040516112b73803806112b783398101604081905261002e916100c1565b5f80546001600160a01b039687166001600160a01b031991821617909155600180549590961694811694909417909455600280549093163317909255600355600480546001600160401b03909316640100000000026001600160601b031990931663ffffffff90921691909117919091179055610135565b80516001600160a01b03811681146100bc575f5ffd5b919050565b5f5f5f5f5f60a086880312156100d5575f5ffd5b6100de866100a6565b94506100ec602087016100a6565b935060408601519250606086015163ffffffff8116811461010b575f5ffd5b60808701519092506001600160401b0381168114610127575f5ffd5b809150509295509295909350565b611175806101425f395ff3fe608060405234801561000f575f5ffd5b50600436106100fb575f3560e01c8063a8e5fbc011610093578063f221fedc11610063578063f221fedc14610264578063f23a6e6114610289578063f2fde38b146102a8578063f3068a00146102bb575f5ffd5b8063a8e5fbc0146101f4578063bb90d18614610206578063bc197c8114610219578063ddb3a9ba14610251575f5ffd5b806325719540116100ce5780632571954014610188578063656bb5361461019b5780638cfb3088146101ae5780638da5cb5b146101e1575f5ffd5b806301ffc9a7146100ff57806304f3bcec1461012757806309879962146101525780631b41e19e14610173575b5f5ffd5b61011261010d366004610b61565b6102c4565b60405190151581526020015b60405180910390f35b60015461013a906001600160a01b031681565b6040516001600160a01b03909116815260200161011e565b610165610160366004610c24565b6102fa565b60405190815260200161011e565b610186610181366004610cb4565b6103a5565b005b610112610196366004610cb4565b610463565b6101866101a9366004610d0d565b6104a9565b6004546101c99064010000000090046001600160401b031681565b6040516001600160401b03909116815260200161011e565b60025461013a906001600160a01b031681565b5f5461013a906001600160a01b031681565b610165610214366004610cb4565b610582565b610238610227366004610df9565b63bc197c8160e01b95945050505050565b6040516001600160e01b0319909116815260200161011e565b61018661025f366004610ea5565b6105ad565b6004546102749063ffffffff1681565b60405163ffffffff909116815260200161011e565b610238610297366004610eef565b63f23a6e6160e01b95945050505050565b6101866102b6366004610f42565b61060f565b61016560035481565b5f6001600160e01b03198216630271189760e51b14806102f457506301ffc9a760e01b6001600160e01b03198316145b92915050565b6040805180820190915260018152601760f91b60208201525f9081906103219084906106a1565b80519091505b801561039e57828261033a600184610f6f565b8151811061034a5761034a610f82565b602002602001015180519060200120604051602001610373929190918252602082015260400190565b604051602081830303815290604052805190602001209250808061039690610f96565b915050610327565b5050919050565b6002546001600160a01b031633146103d85760405162461bcd60e51b81526004016103cf90610fab565b60405180910390fd5b5f546003546002546004805460405163632c704360e11b81526001600160a01b039586169563c658e086956104329590948a948a94939092169263ffffffff83169264010000000090046001600160401b03169101611000565b5f604051808303815f87803b158015610449575f5ffd5b505af115801561045b573d5f5f3e3d5ffd5b505050505050565b5f6104a283838080601f0160208091040260200160405190810160405280939291908181526020018383808284375f9201919091525061085f92505050565b9392505050565b6001600160a01b0381166104f15760405162461bcd60e51b815260206004820152600f60248201526e496e76616c6964206164647265737360881b60448201526064016103cf565b61052f83838080601f0160208091040260200160405190810160405280939291908181526020018383808284375f9201919091525061085f92505050565b6105725760405162461bcd60e51b8152602060048201526014602482015273125b9d985b1a59081b1858995b08199bdc9b585d60621b60448201526064016103cf565b61057d8383836109de565b505050565b5f6104a2838360405160200161059992919061104f565b6040516020818303038152906040526102fa565b6002546001600160a01b031633146105d75760405162461bcd60e51b81526004016103cf90610fab565b600480546001600160401b03909216640100000000026bffffffffffffffffffffffff1990921663ffffffff90931692909217179055565b6002546001600160a01b031633146106395760405162461bcd60e51b81526004016103cf90610fab565b6001600160a01b03811661067f5760405162461bcd60e51b815260206004820152600d60248201526c24b73b30b634b21037bbb732b960991b60448201526064016103cf565b600280546001600160a01b0319166001600160a01b0392909216919091179055565b60605f8390505f835f815181106106ba576106ba610f82565b01602001516001600160f81b031916905060015f5b835181101561071f57826001600160f81b0319168482815181106106f5576106f5610f82565b01602001516001600160f81b03191603610717578161071381611073565b9250505b6001016106cf565b50806001600160401b0381111561073857610738610b88565b60405190808252806020026020018201604052801561076b57816020015b60608152602001906001900390816107565790505b5093505f6060815b855181101561083557846001600160f81b03191686828151811061079957610799610f82565b01602001516001600160f81b031916146107f257818682815181106107c0576107c0610f82565b602001015160f81c60f81b6040516020016107dc92919061108b565b604051602081830303815290604052915061082d565b8187846107fe81611073565b95508151811061081057610810610f82565b602002602001018190525060405180602001604052805f81525091505b600101610773565b508086838151811061084957610849610f82565b6020026020010181905250505050505092915050565b80515f90829015806108725750603f8151115b1561087f57505f92915050565b805f8151811061089157610891610f82565b6020910101516001600160f81b031916602d60f81b14806108e3575080600182516108bc9190610f6f565b815181106108cc576108cc610f82565b6020910101516001600160f81b031916602d60f81b145b156108f057505f92915050565b5f5b81518110156109d4575f82828151811061090e5761090e610f82565b01602001516001600160f81b0319169050606160f81b81108015906109415750603d60f91b6001600160f81b0319821611155b806109735750604160f81b6001600160f81b03198216108015906109735750602d60f91b6001600160f81b0319821611155b806109a55750600360fc1b6001600160f81b03198216108015906109a55750603960f81b6001600160f81b0319821611155b806109bd5750602d60f81b6001600160f81b03198216145b6109cb57505f949350505050565b506001016108f2565b5060019392505050565b5f546003546004805460405163632c704360e11b81526001600160a01b039094169363c658e08693610a3393909289928992309263ffffffff8116926401000000009091046001600160401b03169101611000565b5f604051808303815f87803b158015610a4a575f5ffd5b505af1158015610a5c573d5f5f3e3d5ffd5b505050505f610a77848460405160200161059992919061104f565b5f8054600354600154600480546040516309306bd160e21b81529697506001600160a01b03948516966324c1af4496610ad5968d958d958d95929091169363ffffffff83169264010000000090046001600160401b031691016110b2565b5f604051808303815f87803b158015610aec575f5ffd5b505af1158015610afe573d5f5f3e3d5ffd5b5050505080826001600160a01b03167f5c185a4a3b145a92f222754399c2c8c19a636daaaaa388ccaa8c9f2912703ba6868660048054906101000a90046001600160401b0316604051610b5393929190611113565b60405180910390a350505050565b5f60208284031215610b71575f5ffd5b81356001600160e01b0319811681146104a2575f5ffd5b634e487b7160e01b5f52604160045260245ffd5b604051601f8201601f191681016001600160401b0381118282101715610bc457610bc4610b88565b604052919050565b5f5f6001600160401b03841115610be557610be5610b88565b50601f8301601f1916602001610bfa81610b9c565b915050828152838383011115610c0e575f5ffd5b828260208301375f602084830101529392505050565b5f60208284031215610c34575f5ffd5b81356001600160401b03811115610c49575f5ffd5b8201601f81018413610c59575f5ffd5b610c6884823560208401610bcc565b949350505050565b5f5f83601f840112610c80575f5ffd5b5081356001600160401b03811115610c96575f5ffd5b602083019150836020828501011115610cad575f5ffd5b9250929050565b5f5f60208385031215610cc5575f5ffd5b82356001600160401b03811115610cda575f5ffd5b610ce685828601610c70565b90969095509350505050565b80356001600160a01b0381168114610d08575f5ffd5b919050565b5f5f5f60408486031215610d1f575f5ffd5b83356001600160401b03811115610d34575f5ffd5b610d4086828701610c70565b9094509250610d53905060208501610cf2565b90509250925092565b5f82601f830112610d6b575f5ffd5b81356001600160401b03811115610d8457610d84610b88565b8060051b610d9460208201610b9c565b91825260208185018101929081019086841115610daf575f5ffd5b6020860192505b83831015610dd1578235825260209283019290910190610db6565b9695505050505050565b5f82601f830112610dea575f5ffd5b6104a283833560208501610bcc565b5f5f5f5f5f60a08688031215610e0d575f5ffd5b610e1686610cf2565b9450610e2460208701610cf2565b935060408601356001600160401b03811115610e3e575f5ffd5b610e4a88828901610d5c565b93505060608601356001600160401b03811115610e65575f5ffd5b610e7188828901610d5c565b92505060808601356001600160401b03811115610e8c575f5ffd5b610e9888828901610ddb565b9150509295509295909350565b5f5f60408385031215610eb6575f5ffd5b823563ffffffff81168114610ec9575f5ffd5b915060208301356001600160401b0381168114610ee4575f5ffd5b809150509250929050565b5f5f5f5f5f60a08688031215610f03575f5ffd5b610f0c86610cf2565b9450610f1a60208701610cf2565b9350604086013592506060860135915060808601356001600160401b03811115610e8c575f5ffd5b5f60208284031215610f52575f5ffd5b6104a282610cf2565b634e487b7160e01b5f52601160045260245ffd5b818103818111156102f4576102f4610f5b565b634e487b7160e01b5f52603260045260245ffd5b5f81610fa457610fa4610f5b565b505f190190565b60208082526013908201527213db9b1e481bdddb995c8818d85b8818d85b1b606a1b604082015260600190565b81835281816020850137505f828201602090810191909152601f909101601f19169091010190565b86815260a060208201525f61101960a083018789610fd8565b6001600160a01b039590951660408301525063ffffffff9290921660608301526001600160401b03166080909101529392505050565b818382376e05cc4d8dec6d6f0d8c2dcc85ccae8d608b1b9101908152600f01919050565b5f6001820161108457611084610f5b565b5060010190565b5f83518060208601845e6001600160f81b0319939093169190920190815260010192915050565b88815260e060208201525f6110cb60e08301898b610fd8565b6001600160a01b0397881660408401529590961660608201526001600160401b03938416608082015263ffffffff9290921660a083015290911660c090910152949350505050565b604081525f611126604083018587610fd8565b90506001600160401b038316602083015294935050505056fea2646970667358221220b060549be4e58496daba9efa547dd65109bb0a4f038e573a165e39f58d92367664736f6c634300081c0033",
  "linkReferences": {},
  "deployedLinkReferences": {},
  "immutableReferences": {},
  "inputSourceName": "project/contracts/BloxlandENS.sol",
  "buildInfoId": "solc-0_8_28-225194e0892443818cfc26b17a76a999a5e70850"
}