{
    "contractName": "Bloxland",
    "abi": [
        {
            "inputs": [
                {
                    "internalType": "address",
                    "name": "_oracle",
                    "type": "address"
                },
                {
                    "internalType": "address",
                    "name": "_entropy",
                    "type": "address"
                },
                {
                    "internalType": "address",
                    "name": "_signer",
                    "type": "address"
                },
                {
                    "internalType": "address",
                    "name": "_energy",
                    "type": "address"
                }
            ],
            "stateMutability": "nonpayable",
            "type": "constructor"
        },
        {
            "inputs": [],
            "name": "InvalidShortString",
            "type": "error"
        },
        {
            "inputs": [
                {
                    "internalType": "string",
                    "name": "str",
                    "type": "string"
                }
            ],
            "name": "StringTooLong",
            "type": "error"
        },
        {
            "anonymous": false,
            "inputs": [],
            "name": "EIP712DomainChanged",
            "type": "event"
        },
        {
            "anonymous": false,
            "inputs": [
                {
                    "indexed": false,
                    "internalType": "uint256",
                    "name": "playId",
                    "type": "uint256"
                },
                {
                    "indexed": false,
                    "internalType": "int8",
                    "name": "result",
                    "type": "int8"
                }
            ],
            "name": "PlayEnded",
            "type": "event"
        },
        {
            "anonymous": false,
            "inputs": [
                {
                    "indexed": false,
                    "internalType": "uint256",
                    "name": "playId",
                    "type": "uint256"
                }
            ],
            "name": "PlayStarted",
            "type": "event"
        },
        {
            "inputs": [],
            "name": "GAME_BTC_GT",
            "outputs": [
                {
                    "internalType": "uint256",
                    "name": "",
                    "type": "uint256"
                }
            ],
            "stateMutability": "view",
            "type": "function"
        },
        {
            "inputs": [],
            "name": "GAME_RANDOM_DICE",
            "outputs": [
                {
                    "internalType": "uint256",
                    "name": "",
                    "type": "uint256"
                }
            ],
            "stateMutability": "view",
            "type": "function"
        },
        {
            "inputs": [],
            "name": "GAME_RANDOM_EVEN",
            "outputs": [
                {
                    "internalType": "uint256",
                    "name": "",
                    "type": "uint256"
                }
            ],
            "stateMutability": "view",
            "type": "function"
        },
        {
            "inputs": [],
            "name": "GAME_RANDOM_OVER",
            "outputs": [
                {
                    "internalType": "uint256",
                    "name": "",
                    "type": "uint256"
                }
            ],
            "stateMutability": "view",
            "type": "function"
        },
        {
            "inputs": [
                {
                    "internalType": "uint256",
                    "name": "_playId",
                    "type": "uint256"
                },
                {
                    "internalType": "int64",
                    "name": "_answer",
                    "type": "int64"
                }
            ],
            "name": "answer",
            "outputs": [],
            "stateMutability": "nonpayable",
            "type": "function"
        },
        {
            "inputs": [
                {
                    "internalType": "uint256",
                    "name": "_playId",
                    "type": "uint256"
                },
                {
                    "internalType": "int64",
                    "name": "_answer",
                    "type": "int64"
                },
                {
                    "internalType": "int8",
                    "name": "_result",
                    "type": "int8"
                },
                {
                    "internalType": "bytes",
                    "name": "_signature",
                    "type": "bytes"
                }
            ],
            "name": "answerWithSignature",
            "outputs": [],
            "stateMutability": "nonpayable",
            "type": "function"
        },
        {
            "inputs": [],
            "name": "eip712Domain",
            "outputs": [
                {
                    "internalType": "bytes1",
                    "name": "fields",
                    "type": "bytes1"
                },
                {
                    "internalType": "string",
                    "name": "name",
                    "type": "string"
                },
                {
                    "internalType": "string",
                    "name": "version",
                    "type": "string"
                },
                {
                    "internalType": "uint256",
                    "name": "chainId",
                    "type": "uint256"
                },
                {
                    "internalType": "address",
                    "name": "verifyingContract",
                    "type": "address"
                },
                {
                    "internalType": "bytes32",
                    "name": "salt",
                    "type": "bytes32"
                },
                {
                    "internalType": "uint256[]",
                    "name": "extensions",
                    "type": "uint256[]"
                }
            ],
            "stateMutability": "view",
            "type": "function"
        },
        {
            "inputs": [],
            "name": "energyToken",
            "outputs": [
                {
                    "internalType": "contract EnergyToken",
                    "name": "",
                    "type": "address"
                }
            ],
            "stateMutability": "view",
            "type": "function"
        },
        {
            "inputs": [
                {
                    "internalType": "uint256",
                    "name": "",
                    "type": "uint256"
                }
            ],
            "name": "games",
            "outputs": [
                {
                    "internalType": "string",
                    "name": "name",
                    "type": "string"
                },
                {
                    "internalType": "bool",
                    "name": "random",
                    "type": "bool"
                }
            ],
            "stateMutability": "view",
            "type": "function"
        },
        {
            "inputs": [
                {
                    "internalType": "uint256",
                    "name": "_gameId",
                    "type": "uint256"
                },
                {
                    "internalType": "uint256",
                    "name": "_energyAmount",
                    "type": "uint256"
                }
            ],
            "name": "play",
            "outputs": [
                {
                    "internalType": "uint256",
                    "name": "",
                    "type": "uint256"
                }
            ],
            "stateMutability": "nonpayable",
            "type": "function"
        },
        {
            "inputs": [
                {
                    "internalType": "uint256",
                    "name": "",
                    "type": "uint256"
                }
            ],
            "name": "plays",
            "outputs": [
                {
                    "internalType": "uint256",
                    "name": "gameId",
                    "type": "uint256"
                },
                {
                    "internalType": "address",
                    "name": "player",
                    "type": "address"
                },
                {
                    "internalType": "uint256",
                    "name": "energyAmount",
                    "type": "uint256"
                },
                {
                    "internalType": "int64",
                    "name": "answer",
                    "type": "int64"
                },
                {
                    "internalType": "int8",
                    "name": "result",
                    "type": "int8"
                }
            ],
            "stateMutability": "view",
            "type": "function"
        },
        {
            "stateMutability": "payable",
            "type": "receive"
        }
    ],
    "bytecode": "61016080604052346107fb57608081611d588038038091610020828561081a565b8339810103126107fb576100338161083d565b906100406020820161083d565b61005860606100516040850161083d565b930161083d565b9260405161006760408261081a565b600c815260208101906b426c6f786c616e64506c617960a01b82526040519161009160408461081a565b600183526020830191603160f81b83526100aa81610851565b610120526100b7846109d3565b61014052519020918260e05251902080610100524660a0526040519060208201927f8b73c3c69bb8fe3d512ecc4cf759cc79239f7b179b0ffacaa9a75d522b39400f8452604083015260608201524660808201523060a082015260a0815261012060c08261081a565b5190206080523060c0526001600855600280546001600160a01b03199081166001600160a01b03938416179091556003805482169383169390931790925560048054831693821693909317909255600580549091169290911691909117905560405161018b816107ff565b60405161019960408261081a565b600a8152694469636520477565737360b01b602082015281526020810190600182526040516101c7816107ff565b6040516101d560408261081a565b60118152704576656e204e756d62657220477565737360781b6020820152815260208101600181526040519061020a826107ff565b60405161021860408261081a565b601081526f55707065722048616c6620477565737360801b602082015282526020820192600184526040519561024d876107ff565b60405161025b60408261081a565b600f81526e42544320507269636520477565737360881b6020820152875260208701955f875260015f52600660205260405f20905180519060018060401b0382116105a7578254600181811c911680156107f1575b602082101461058957601f81116107ac575b50602090601f83116001146107465760019392915f918361073b575b50505f19600383901b1c191690831b1781555b019051151560ff8019835416911617905560025f52600660205260405f20905180519060018060401b0382116105a7578254600181811c91168015610731575b602082101461058957601f81116106ec575b50602090601f83116001146106865760019392915f918361067b575b50505f19600383901b1c191690831b1781555b019051151560ff8019835416911617905560035f52600660205260405f20905180519060018060401b0382116105a7578254600181811c91168015610671575b602082101461058957601f811161062c575b50602090601f83116001146105c65760019392915f91836105bb575b50505f19600383901b1c191690831b1781555b019051151560ff8019835416911617905560055f52600660205260405f20915191825160018060401b0381116105a7578154600181811c9116801561059d575b602082101461058957601f8111610544575b506020601f82116001146104e0578190600194955f926104d5575b50505f19600383901b1c191690831b1781555b019051151560ff8019835416911617905560405161124c9081610b0c8239608051816110b1015260a0518161116e015260c0518161107b015260e05181611100015261010051816111260152610120518161011f015261014051816101480152f35b015190505f80610460565b601f19821694835f52815f20955f5b81811061052c57509160019596918487959410610514575b505050811b018155610473565b01515f1960f88460031b161c191690555f8080610507565b838301518855600190970196602093840193016104ef565b825f5260205f20601f830160051c8101916020841061057f575b601f0160051c01905b8181106105745750610445565b5f8155600101610567565b909150819061055e565b634e487b7160e01b5f52602260045260245ffd5b90607f1690610433565b634e487b7160e01b5f52604160045260245ffd5b015190505f806103e0565b90601f19831691845f52815f20925f5b81811061061457509160019594929183879593106105fc575b505050811b0181556103f3565b01515f1960f88460031b161c191690555f80806105ef565b929360206001819287860151815501950193016105d6565b835f5260205f20601f840160051c81019160208510610667575b601f0160051c01905b81811061065c57506103c4565b5f815560010161064f565b9091508190610646565b90607f16906103b2565b015190505f8061035f565b90601f19831691845f52815f20925f5b8181106106d457509160019594929183879593106106bc575b505050811b018155610372565b01515f1960f88460031b161c191690555f80806106af565b92936020600181928786015181550195019301610696565b835f5260205f20601f840160051c81019160208510610727575b601f0160051c01905b81811061071c5750610343565b5f815560010161070f565b9091508190610706565b90607f1690610331565b015190505f806102de565b90601f19831691845f52815f20925f5b818110610794575091600195949291838795931061077c575b505050811b0181556102f1565b01515f1960f88460031b161c191690555f808061076f565b92936020600181928786015181550195019301610756565b835f5260205f20601f840160051c810191602085106107e7575b601f0160051c01905b8181106107dc57506102c2565b5f81556001016107cf565b90915081906107c6565b90607f16906102b0565b5f80fd5b604081019081106001600160401b038211176105a757604052565b601f909101601f19168101906001600160401b038211908210176105a757604052565b51906001600160a01b03821682036107fb57565b908151602081105f146108cb575090601f81511161088b57602081519101516020821061087c571790565b5f198260200360031b1b161790565b604460209160405192839163305a27a960e01b83528160048401528051918291826024860152018484015e5f828201840152601f01601f19168101030190fd5b6001600160401b0381116105a7575f54600181811c911680156109c9575b602082101461058957601f8111610997575b50602092601f821160011461093857928192935f9261092d575b50508160011b915f199060031b1c1916175f5560ff90565b015190505f80610915565b601f198216935f8052805f20915f5b86811061097f5750836001959610610967575b505050811b015f5560ff90565b01515f1960f88460031b161c191690555f808061095a565b91926020600181928685015181550194019201610947565b5f8052601f60205f20910160051c810190601f830160051c015b8181106109be57506108fb565b5f81556001016109b1565b90607f16906108e9565b908151602081105f146109fe575090601f81511161088b57602081519101516020821061087c571790565b6001600160401b0381116105a757600154600181811c91168015610b01575b602082101461058957601f8111610ace575b50602092601f8211600114610a6d57928192935f92610a62575b50508160011b915f199060031b1c19161760015560ff90565b015190505f80610a49565b601f1982169360015f52805f20915f5b868110610ab65750836001959610610a9e575b505050811b0160015560ff90565b01515f1960f88460031b161c191690555f8080610a90565b91926020600181928685015181550194019201610a7d565b60015f52601f60205f20910160051c810190601f830160051c015b818110610af65750610a2f565b5f8155600101610ae9565b90607f1690610a1d56fe6080604052600436101561001a575b3615610018575f80fd5b005b5f3560e01c8063117a5b901461079d57806345d4682a1461073c5780634ec7fb81146107145780634fc2cbdb1461051a57806370836772146102285780637bc49a95146101ff57806384b0196e14610107578063ad3c14e3146100ec578063d3814f09146100d1578063d46556d8146100b65763f93c4b1a0361000e57346100b2575f3660031901126100b257602060405160058152f35b5f80fd5b346100b2575f3660031901126100b257602060405160028152f35b346100b2575f3660031901126100b257602060405160018152f35b346100b2575f3660031901126100b257602060405160038152f35b346100b2575f3660031901126100b2576101a36101437f0000000000000000000000000000000000000000000000000000000000000000610ec5565b61016c7f0000000000000000000000000000000000000000000000000000000000000000610fc0565b60206101b16040519261017f838561085e565b5f84525f368137604051958695600f60f81b875260e08588015260e087019061091f565b90858203604087015261091f565b4660608501523060808501525f60a085015283810360c08501528180845192838152019301915f5b8281106101e857505050500390f35b8351855286955093810193928101926001016101d9565b346100b25760403660031901126100b2576020610220602435600435610982565b604051908152f35b346100b25760403660031901126100b257600435610244610943565b90805f52600760205260405f206040519061025e82610828565b80548252600360018060a01b03600183015416918260208501526002810154604085015201548060070b606084015260401c5f0b6080830152156104e45780515f52600660205260405f20604051906102b682610843565b602060ff60016102c58461087f565b9384865201541692019115158252511561040057511561030a57505f526007602052600360405f2001906001600160401b0319825416906001600160401b0316179055005b6002546040516396834ad360e01b81527fe62df6c8b4a85fe1a67db44dc12de5db330f7ac66b72dc658afedf0f4a415b436004820152929190608090849060249082906001600160a01b03165afa9283156104d9575f93610436575b5051600503610400577ff8c8964548eadb43e47c38099a7eef03cc4b3c188b3ac01b0b7a9c6f20283d3e926040925160070b9060070b125f146103d657805f5260076020526003825f20016801000000000000000060ff60401b19825416179055815190815260016020820152a1005b805f5260076020526003825f200160ff60401b801982541617905581519081525f196020820152a1005b60405162461bcd60e51b815260206004820152600e60248201526d11d85b59481b9bdd08199bdd5b9960921b6044820152606490fd5b9092506080813d6080116104d1575b816104526080938361085e565b810103126100b257604051608081018181106001600160401b038211176104bd5760405281518060070b81036100b25781526104906020830161096e565b602082015260408201518060030b81036100b2576005926060916040840152015160608201529290610366565b634e487b7160e01b5f52604160045260245ffd5b3d9150610445565b6040513d5f823e3d90fd5b60405162461bcd60e51b815260206004820152600e60248201526d141b185e481b9bdd08199bdd5b9960921b6044820152606490fd5b346100b25760803660031901126100b257600435610536610943565b9060443590815f0b928383036100b257606435906001600160401b0382116100b257366023830112156100b25781600401359061057282610953565b91610580604051938461085e565b80835236602482860101116100b2576020815f92602461062897018387013784010152604260018060a01b03600454169160405160208101917fff541fcd5c1ada8f8c1a05936cbdb0cf8d6081b06dd4e005833e2c3ad5b14b59835287604083015233606083015260070b6080820152608081526105ff60a08261085e565b51902061060a611078565b906040519161190160f01b8352600283015260228201522090610d89565b156106db575f1983148015906106d0575b61069a577ff8c8964548eadb43e47c38099a7eef03cc4b3c188b3ac01b0b7a9c6f20283d3e9261068d604093835f5260076020526003855f20019081549060401b60ff60401b169060ff60401b1916179055565b82519182526020820152a1005b60405162461bcd60e51b815260206004820152600e60248201526d125b9d985b1a59081c995cdd5b1d60921b6044820152606490fd5b506001831415610639565b60405162461bcd60e51b8152602060048201526011602482015270496e76616c6964207369676e617475726560781b6044820152606490fd5b346100b2575f3660031901126100b2576005546040516001600160a01b039091168152602090f35b346100b25760203660031901126100b2576004355f52600760205260a060405f20805490600180841b03600182015416906003600282015491015491604051938452602084015260408301528060070b606083015260401c5f0b6080820152f35b346100b25760203660031901126100b2576004355f5260066020526107e460405f2060ff60016107cc8361087f565b9201541660405192839260408452604084019061091f565b90151560208301520390f35b90600182811c9216801561081e575b602083101461080a57565b634e487b7160e01b5f52602260045260245ffd5b91607f16916107ff565b60a081019081106001600160401b038211176104bd57604052565b604081019081106001600160401b038211176104bd57604052565b90601f801991011681019081106001600160401b038211176104bd57604052565b9060405191825f825492610892846107f0565b80845293600181169081156108fd57506001146108b9575b506108b79250038361085e565b565b90505f9291925260205f20905f915b8183106108e15750509060206108b7928201015f6108aa565b60209193508060019154838589010152019101909184926108c8565b9050602092506108b794915060ff191682840152151560051b8201015f6108aa565b805180835260209291819084018484015e5f828201840152601f01601f1916010190565b602435908160070b82036100b257565b6001600160401b0381116104bd57601f01601f191660200190565b51906001600160401b03821682036100b257565b6005546040516370a0823160e01b81523360048201525f9493916001600160a01b031690602081602481855afa80156104d95783915f91610d54575b5010610d1b57803b156100b2575f8091604460405180948193631125ae3960e11b83523360048401528760248401525af180156104d957610d06575b5060405193610a0885610828565b8285526020850192338452604086019283526060860192828452608087019183835233156104e457835260066020526040832060405190610a4882610843565b602060ff6001610a578461087f565b93848652015416920191151582525115610400575115610c46576003546040516341025b3d60e11b81526001600160a01b0390911690602081600481855afa908115610c3b578591610bee575b506001600160801b0360046020926040519485938492637b43155d60e01b845216905af1908115610be3578491610b8e575b50966003916001600160401b03610b61979899169788865260076020526040862092518355600183019060018060a01b039051166bffffffffffffffffffffffff60a01b82541617905551600282015501925160070b6001600160401b0319845416906001600160401b031617835551900b81549060401b60ff60401b169060ff60401b1916179055565b7f75ecbbcf5acf9fc04b7b54b9c241f8bb19d1fdd64aba93c967ea036bcf2d13946020604051838152a190565b90506020813d602011610bdb575b81610ba96020938361085e565b81010312610bd757966003916001600160401b03610bcb610b6198999a61096e565b92999897505091610ad6565b8380fd5b3d9150610b9c565b6040513d86823e3d90fd5b90506020813d602011610c33575b81610c096020938361085e565b81010312610c2f57516001600160801b0381168103610c2f576001600160801b03610aa4565b8480fd5b3d9150610bfc565b6040513d87823e3d90fd5b60085494856001600160401b030195866001600160401b0311610cf2575f198114610cf25791610b619697989160016003940160085588865260076020526040862092518355600183019060018060a01b039051166bffffffffffffffffffffffff60a01b82541617905551600282015501925160070b6001600160401b0319845416906001600160401b031617835551900b81549060401b60ff60401b169060ff60401b1916179055565b634e487b7160e01b85526011600452602485fd5b610d139194505f9061085e565b5f925f6109fa565b60405162461bcd60e51b81526020600482015260116024820152704e6f7420656e6f75676820656e6572677960781b6044820152606490fd5b9150506020813d602011610d81575b81610d706020938361085e565b810103126100b2578290515f6109be565b3d9150610d63565b9190823b610dd85790610d9b91610e8b565b506004811015610dc457159182610db157505090565b6001600160a01b03918216911614919050565b634e487b7160e01b5f52602160045260245ffd5b915f92610e0e610e1c85946040519283916020830195630b135d3f60e11b8752602484015260406044840152606483019061091f565b03601f19810183528261085e565b51915afa3d15610e84573d610e3081610953565b90610e3e604051928361085e565b81523d5f602083013e5b81610e76575b81610e57575090565b90506020818051810103126100b25760200151630b135d3f60e11b1490565b905060208151101590610e4e565b6060610e48565b8151919060418303610ebb57610eb49250602082015190606060408401519301515f1a90611194565b9192909190565b50505f9160029190565b60ff8114610f0b5760ff811690601f8211610efc5760405191610ee960408461085e565b6020808452838101919036833783525290565b632cd44ac360e21b5f5260045ffd5b506040515f815f5491610f1d836107f0565b8083529260018116908115610fa15750600114610f44575b610f419250038261085e565b90565b505f80805290917f290decd9548b62a8d60345a988386fc84ba6bc95484008f6362f93160ef3e5635b818310610f85575050906020610f4192820101610f35565b6020919350806001915483858801015201910190918392610f6d565b60209250610f4194915060ff191682840152151560051b820101610f35565b60ff8114610fe45760ff811690601f8211610efc5760405191610ee960408461085e565b50604051600154815f610ff6836107f0565b8083529260018116908115610fa1575060011461101957610f419250038261085e565b5060015f90815290917fb10e2d527612073b26eecdfd717e6a320cf44b4afac2b0732d9fcbe2b7fa0cf65b81831061105c575050906020610f4192820101610f35565b6020919350806001915483858801015201910190918392611044565b307f00000000000000000000000000000000000000000000000000000000000000006001600160a01b0316148061116b575b156110d3577f000000000000000000000000000000000000000000000000000000000000000090565b60405160208101907f8b73c3c69bb8fe3d512ecc4cf759cc79239f7b179b0ffacaa9a75d522b39400f82527f000000000000000000000000000000000000000000000000000000000000000060408201527f000000000000000000000000000000000000000000000000000000000000000060608201524660808201523060a082015260a0815261116560c08261085e565b51902090565b507f000000000000000000000000000000000000000000000000000000000000000046146110aa565b91907f7fffffffffffffffffffffffffffffff5d576e7357a4501ddfe92f46681b20a0841161120b579160209360809260ff5f9560405194855216868401526040830152606082015282805260015afa156104d9575f516001600160a01b0381161561120157905f905f90565b505f906001905f90565b5050505f916003919056fea26469706673582212201395ac94d9fd9f0343b2f16dc0497b4ed4ac8d2237c95fc01cc7df558221faa164736f6c634300081d0033",
    "sourcePath": "/home/jm/Projects/bloxland/blockchain/contracts/Bloxland.sol",
    "compiler": {
        "name": "solc",
        "version": "0.8.29+commit.ab55807c"
    },
    "functionHashes": {
        "GAME_BTC_GT()": "f93c4b1a",
        "GAME_RANDOM_DICE()": "d3814f09",
        "GAME_RANDOM_EVEN()": "d46556d8",
        "GAME_RANDOM_OVER()": "ad3c14e3",
        "answer(uint256,int64)": "70836772",
        "answerWithSignature(uint256,int64,int8,bytes)": "4fc2cbdb",
        "eip712Domain()": "84b0196e",
        "energyToken()": "4ec7fb81",
        "games(uint256)": "117a5b90",
        "play(uint256,uint256)": "7bc49a95",
        "plays(uint256)": "45d4682a"
    },
    "gasEstimates": {
        "creation": {
            "codeDepositCost": "936800",
            "executionCost": "infinite",
            "totalCost": "infinite"
        },
        "external": {
            "GAME_BTC_GT()": "361",
            "GAME_RANDOM_DICE()": "321",
            "GAME_RANDOM_EVEN()": "343",
            "GAME_RANDOM_OVER()": "299",
            "answer(uint256,int64)": "infinite",
            "answerWithSignature(uint256,int64,int8,bytes)": "infinite",
            "eip712Domain()": "infinite",
            "energyToken()": "2316",
            "games(uint256)": "infinite",
            "play(uint256,uint256)": "infinite",
            "plays(uint256)": "8776"
        },
        "internal": {
            "_hash(uint256,address,int64)": "infinite",
            "_mapRandomNumber(bytes32,int256,int256)": "infinite",
            "entropyCallback(uint64,address,bytes32)": "infinite"
        }
    }
}