{
    "contractName": "EnergyToken",
    "abi": [
        {
            "inputs": [
                {
                    "internalType": "address",
                    "name": "_signer",
                    "type": "address"
                }
            ],
            "stateMutability": "nonpayable",
            "type": "constructor"
        },
        {
            "inputs": [],
            "name": "AccessControlBadConfirmation",
            "type": "error"
        },
        {
            "inputs": [
                {
                    "internalType": "address",
                    "name": "account",
                    "type": "address"
                },
                {
                    "internalType": "bytes32",
                    "name": "neededRole",
                    "type": "bytes32"
                }
            ],
            "name": "AccessControlUnauthorizedAccount",
            "type": "error"
        },
        {
            "inputs": [
                {
                    "internalType": "address",
                    "name": "spender",
                    "type": "address"
                },
                {
                    "internalType": "uint256",
                    "name": "allowance",
                    "type": "uint256"
                },
                {
                    "internalType": "uint256",
                    "name": "needed",
                    "type": "uint256"
                }
            ],
            "name": "ERC20InsufficientAllowance",
            "type": "error"
        },
        {
            "inputs": [
                {
                    "internalType": "address",
                    "name": "sender",
                    "type": "address"
                },
                {
                    "internalType": "uint256",
                    "name": "balance",
                    "type": "uint256"
                },
                {
                    "internalType": "uint256",
                    "name": "needed",
                    "type": "uint256"
                }
            ],
            "name": "ERC20InsufficientBalance",
            "type": "error"
        },
        {
            "inputs": [
                {
                    "internalType": "address",
                    "name": "approver",
                    "type": "address"
                }
            ],
            "name": "ERC20InvalidApprover",
            "type": "error"
        },
        {
            "inputs": [
                {
                    "internalType": "address",
                    "name": "receiver",
                    "type": "address"
                }
            ],
            "name": "ERC20InvalidReceiver",
            "type": "error"
        },
        {
            "inputs": [
                {
                    "internalType": "address",
                    "name": "sender",
                    "type": "address"
                }
            ],
            "name": "ERC20InvalidSender",
            "type": "error"
        },
        {
            "inputs": [
                {
                    "internalType": "address",
                    "name": "spender",
                    "type": "address"
                }
            ],
            "name": "ERC20InvalidSpender",
            "type": "error"
        },
        {
            "inputs": [],
            "name": "InvalidShortString",
            "type": "error"
        },
        {
            "inputs": [
                {
                    "internalType": "string",
                    "name": "str",
                    "type": "string"
                }
            ],
            "name": "StringTooLong",
            "type": "error"
        },
        {
            "anonymous": false,
            "inputs": [
                {
                    "indexed": true,
                    "internalType": "address",
                    "name": "owner",
                    "type": "address"
                },
                {
                    "indexed": true,
                    "internalType": "address",
                    "name": "spender",
                    "type": "address"
                },
                {
                    "indexed": false,
                    "internalType": "uint256",
                    "name": "value",
                    "type": "uint256"
                }
            ],
            "name": "Approval",
            "type": "event"
        },
        {
            "anonymous": false,
            "inputs": [],
            "name": "EIP712DomainChanged",
            "type": "event"
        },
        {
            "anonymous": false,
            "inputs": [
                {
                    "indexed": true,
                    "internalType": "bytes32",
                    "name": "role",
                    "type": "bytes32"
                },
                {
                    "indexed": true,
                    "internalType": "bytes32",
                    "name": "previousAdminRole",
                    "type": "bytes32"
                },
                {
                    "indexed": true,
                    "internalType": "bytes32",
                    "name": "newAdminRole",
                    "type": "bytes32"
                }
            ],
            "name": "RoleAdminChanged",
            "type": "event"
        },
        {
            "anonymous": false,
            "inputs": [
                {
                    "indexed": true,
                    "internalType": "bytes32",
                    "name": "role",
                    "type": "bytes32"
                },
                {
                    "indexed": true,
                    "internalType": "address",
                    "name": "account",
                    "type": "address"
                },
                {
                    "indexed": true,
                    "internalType": "address",
                    "name": "sender",
                    "type": "address"
                }
            ],
            "name": "RoleGranted",
            "type": "event"
        },
        {
            "anonymous": false,
            "inputs": [
                {
                    "indexed": true,
                    "internalType": "bytes32",
                    "name": "role",
                    "type": "bytes32"
                },
                {
                    "indexed": true,
                    "internalType": "address",
                    "name": "account",
                    "type": "address"
                },
                {
                    "indexed": true,
                    "internalType": "address",
                    "name": "sender",
                    "type": "address"
                }
            ],
            "name": "RoleRevoked",
            "type": "event"
        },
        {
            "anonymous": false,
            "inputs": [
                {
                    "indexed": true,
                    "internalType": "address",
                    "name": "from",
                    "type": "address"
                },
                {
                    "indexed": true,
                    "internalType": "address",
                    "name": "to",
                    "type": "address"
                },
                {
                    "indexed": false,
                    "internalType": "uint256",
                    "name": "value",
                    "type": "uint256"
                }
            ],
            "name": "Transfer",
            "type": "event"
        },
        {
            "inputs": [],
            "name": "BLOXLAND_ROLE",
            "outputs": [
                {
                    "internalType": "bytes32",
                    "name": "",
                    "type": "bytes32"
                }
            ],
            "stateMutability": "view",
            "type": "function"
        },
        {
            "inputs": [],
            "name": "DEFAULT_ADMIN_ROLE",
            "outputs": [
                {
                    "internalType": "bytes32",
                    "name": "",
                    "type": "bytes32"
                }
            ],
            "stateMutability": "view",
            "type": "function"
        },
        {
            "inputs": [
                {
                    "internalType": "address",
                    "name": "owner",
                    "type": "address"
                },
                {
                    "internalType": "address",
                    "name": "spender",
                    "type": "address"
                }
            ],
            "name": "allowance",
            "outputs": [
                {
                    "internalType": "uint256",
                    "name": "",
                    "type": "uint256"
                }
            ],
            "stateMutability": "view",
            "type": "function"
        },
        {
            "inputs": [
                {
                    "internalType": "address",
                    "name": "spender",
                    "type": "address"
                },
                {
                    "internalType": "uint256",
                    "name": "value",
                    "type": "uint256"
                }
            ],
            "name": "approve",
            "outputs": [
                {
                    "internalType": "bool",
                    "name": "",
                    "type": "bool"
                }
            ],
            "stateMutability": "nonpayable",
            "type": "function"
        },
        {
            "inputs": [
                {
                    "internalType": "address",
                    "name": "account",
                    "type": "address"
                }
            ],
            "name": "balanceOf",
            "outputs": [
                {
                    "internalType": "uint256",
                    "name": "",
                    "type": "uint256"
                }
            ],
            "stateMutability": "view",
            "type": "function"
        },
        {
            "inputs": [
                {
                    "internalType": "address",
                    "name": "player",
                    "type": "address"
                },
                {
                    "internalType": "uint256",
                    "name": "amount",
                    "type": "uint256"
                }
            ],
            "name": "consume",
            "outputs": [],
            "stateMutability": "nonpayable",
            "type": "function"
        },
        {
            "inputs": [],
            "name": "decimals",
            "outputs": [
                {
                    "internalType": "uint8",
                    "name": "",
                    "type": "uint8"
                }
            ],
            "stateMutability": "view",
            "type": "function"
        },
        {
            "inputs": [],
            "name": "eip712Domain",
            "outputs": [
                {
                    "internalType": "bytes1",
                    "name": "fields",
                    "type": "bytes1"
                },
                {
                    "internalType": "string",
                    "name": "name",
                    "type": "string"
                },
                {
                    "internalType": "string",
                    "name": "version",
                    "type": "string"
                },
                {
                    "internalType": "uint256",
                    "name": "chainId",
                    "type": "uint256"
                },
                {
                    "internalType": "address",
                    "name": "verifyingContract",
                    "type": "address"
                },
                {
                    "internalType": "bytes32",
                    "name": "salt",
                    "type": "bytes32"
                },
                {
                    "internalType": "uint256[]",
                    "name": "extensions",
                    "type": "uint256[]"
                }
            ],
            "stateMutability": "view",
            "type": "function"
        },
        {
            "inputs": [
                {
                    "internalType": "uint256",
                    "name": "_amount",
                    "type": "uint256"
                },
                {
                    "internalType": "bytes",
                    "name": "_signature",
                    "type": "bytes"
                }
            ],
            "name": "energizeWithSignature",
            "outputs": [],
            "stateMutability": "nonpayable",
            "type": "function"
        },
        {
            "inputs": [
                {
                    "internalType": "bytes32",
                    "name": "role",
                    "type": "bytes32"
                }
            ],
            "name": "getRoleAdmin",
            "outputs": [
                {
                    "internalType": "bytes32",
                    "name": "",
                    "type": "bytes32"
                }
            ],
            "stateMutability": "view",
            "type": "function"
        },
        {
            "inputs": [
                {
                    "internalType": "bytes32",
                    "name": "role",
                    "type": "bytes32"
                },
                {
                    "internalType": "address",
                    "name": "account",
                    "type": "address"
                }
            ],
            "name": "grantRole",
            "outputs": [],
            "stateMutability": "nonpayable",
            "type": "function"
        },
        {
            "inputs": [
                {
                    "internalType": "bytes32",
                    "name": "role",
                    "type": "bytes32"
                },
                {
                    "internalType": "address",
                    "name": "account",
                    "type": "address"
                }
            ],
            "name": "hasRole",
            "outputs": [
                {
                    "internalType": "bool",
                    "name": "",
                    "type": "bool"
                }
            ],
            "stateMutability": "view",
            "type": "function"
        },
        {
            "inputs": [],
            "name": "name",
            "outputs": [
                {
                    "internalType": "string",
                    "name": "",
                    "type": "string"
                }
            ],
            "stateMutability": "view",
            "type": "function"
        },
        {
            "inputs": [
                {
                    "internalType": "bytes32",
                    "name": "role",
                    "type": "bytes32"
                },
                {
                    "internalType": "address",
                    "name": "callerConfirmation",
                    "type": "address"
                }
            ],
            "name": "renounceRole",
            "outputs": [],
            "stateMutability": "nonpayable",
            "type": "function"
        },
        {
            "inputs": [
                {
                    "internalType": "bytes32",
                    "name": "role",
                    "type": "bytes32"
                },
                {
                    "internalType": "address",
                    "name": "account",
                    "type": "address"
                }
            ],
            "name": "revokeRole",
            "outputs": [],
            "stateMutability": "nonpayable",
            "type": "function"
        },
        {
            "inputs": [
                {
                    "internalType": "bytes4",
                    "name": "interfaceId",
                    "type": "bytes4"
                }
            ],
            "name": "supportsInterface",
            "outputs": [
                {
                    "internalType": "bool",
                    "name": "",
                    "type": "bool"
                }
            ],
            "stateMutability": "view",
            "type": "function"
        },
        {
            "inputs": [],
            "name": "symbol",
            "outputs": [
                {
                    "internalType": "string",
                    "name": "",
                    "type": "string"
                }
            ],
            "stateMutability": "view",
            "type": "function"
        },
        {
            "inputs": [],
            "name": "totalSupply",
            "outputs": [
                {
                    "internalType": "uint256",
                    "name": "",
                    "type": "uint256"
                }
            ],
            "stateMutability": "view",
            "type": "function"
        },
        {
            "inputs": [
                {
                    "internalType": "address",
                    "name": "to",
                    "type": "address"
                },
                {
                    "internalType": "uint256",
                    "name": "value",
                    "type": "uint256"
                }
            ],
            "name": "transfer",
            "outputs": [
                {
                    "internalType": "bool",
                    "name": "",
                    "type": "bool"
                }
            ],
            "stateMutability": "nonpayable",
            "type": "function"
        },
        {
            "inputs": [
                {
                    "internalType": "address",
                    "name": "from",
                    "type": "address"
                },
                {
                    "internalType": "address",
                    "name": "to",
                    "type": "address"
                },
                {
                    "internalType": "uint256",
                    "name": "value",
                    "type": "uint256"
                }
            ],
            "name": "transferFrom",
            "outputs": [
                {
                    "internalType": "bool",
                    "name": "",
                    "type": "bool"
                }
            ],
            "stateMutability": "nonpayable",
            "type": "function"
        }
    ],
    "bytecode": "610160806040523461048b576020816119868038038091610020828561048f565b83398101031261048b57516001600160a01b0381169081900361048b5760405161004b60408261048f565b6010815260208101906f426c6f786c616e64456e657267697a6560801b82526040519161007960408461048f565b600183526020830191603160f81b835260405161009760408261048f565b600f81526e426c6f786c616e6420456e6572677960881b6020820152604051906100c260408361048f565b6006825265454e4552475960d01b60208301528051906001600160401b03821161038e5760035490600182811c92168015610481575b60208310146103705781601f849311610413575b50602090601f83116001146103ad575f926103a2575b50508160011b915f199060031b1c1916176003555b8051906001600160401b03821161038e5760045490600182811c92168015610384575b60208310146103705781601f849311610302575b50602090601f831160011461029c575f92610291575b50508160011b915f199060031b1c1916176004555b6101a28161053b565b610120526101af846106c2565b61014052519020918260e05251902080610100524660a0526040519060208201927f8b73c3c69bb8fe3d512ecc4cf759cc79239f7b179b0ffacaa9a75d522b39400f8452604083015260608201524660808201523060a082015260a0815261021860c08261048f565b5190206080523060c05261022b336104b2565b50600880546001600160a01b03191691909117905560405161116b90816107fb823960805181610fc5015260a05181611082015260c05181610f8f015260e051816110140152610100518161103a01526101205181610359015261014051816103820152f35b015190505f80610184565b60045f9081528281209350601f198516905b8181106102ea57509084600195949392106102d2575b505050811b01600455610199565b01515f1960f88460031b161c191690555f80806102c4565b929360206001819287860151815501950193016102ae565b60045f529091507f8a35acfbc15ff81a39ae7d344fd709f28e8600b4aa8c65c6b64bfe7fe36bd19b601f840160051c81019160208510610366575b90601f859493920160051c01905b818110610358575061016e565b5f815584935060010161034b565b909150819061033d565b634e487b7160e01b5f52602260045260245ffd5b91607f169161015a565b634e487b7160e01b5f52604160045260245ffd5b015190505f80610122565b60035f9081528281209350601f198516905b8181106103fb57509084600195949392106103e3575b505050811b01600355610137565b01515f1960f88460031b161c191690555f80806103d5565b929360206001819287860151815501950193016103bf565b60035f529091507fc2575a0e9e593c00f959f8c92f12db2869c3395a3b0502d05e2516446f71f85b601f840160051c81019160208510610477575b90601f859493920160051c01905b818110610469575061010c565b5f815584935060010161045c565b909150819061044e565b91607f16916100f8565b5f80fd5b601f909101601f19168101906001600160401b0382119082101761038e57604052565b6001600160a01b0381165f9081525f5160206119665f395f51905f52602052604090205460ff16610536576001600160a01b03165f8181525f5160206119665f395f51905f5260205260408120805460ff191660011790553391907f2f8788117e7eff1d82e926ec794901d17c78024a50270940304540a733656f0d8180a4600190565b505f90565b908151602081105f146105b5575090601f815111610575576020815191015160208210610566571790565b5f198260200360031b1b161790565b604460209160405192839163305a27a960e01b83528160048401528051918291826024860152018484015e5f828201840152601f01601f19168101030190fd5b6001600160401b03811161038e57600554600181811c911680156106b8575b602082101461037057601f8111610685575b50602092601f821160011461062457928192935f92610619575b50508160011b915f199060031b1c19161760055560ff90565b015190505f80610600565b601f1982169360055f52805f20915f5b86811061066d5750836001959610610655575b505050811b0160055560ff90565b01515f1960f88460031b161c191690555f8080610647565b91926020600181928685015181550194019201610634565b60055f52601f60205f20910160051c810190601f830160051c015b8181106106ad57506105e6565b5f81556001016106a0565b90607f16906105d4565b908151602081105f146106ed575090601f815111610575576020815191015160208210610566571790565b6001600160401b03811161038e57600654600181811c911680156107f0575b602082101461037057601f81116107bd575b50602092601f821160011461075c57928192935f92610751575b50508160011b915f199060031b1c19161760065560ff90565b015190505f80610738565b601f1982169360065f52805f20915f5b8681106107a5575083600195961061078d575b505050811b0160065560ff90565b01515f1960f88460031b161c191690555f808061077f565b9192602060018192868501518155019401920161076c565b60065f52601f60205f20910160051c810190601f830160051c015b8181106107e5575061071e565b5f81556001016107d8565b90607f169061070c56fe6080806040526004361015610012575f80fd5b5f3560e01c90816301ffc9a714610a275750806306fdde0314610982578063095ea7b31461090057806318160ddd146108e3578063224b5c72146107c657806323b872dd146106e7578063248a9ca3146106b45780632f2ff15d14610676578063313ce5671461065b57806336568abe14610617578063516a42ad1461047057806370a082311461043957806384b0196e1461034157806391d14854146102f857806395d89b41146102165780639b40297c146101dc578063a217fddf146101c2578063a9059cbb14610191578063d547741f1461014c5763dd62ed3e146100f8575f80fd5b3461014857604036600319011261014857610111610a9e565b610119610ab4565b6001600160a01b039182165f908152600160209081526040808320949093168252928352819020549051908152f35b5f80fd5b346101485760403660031901126101485761018f60043561016b610ab4565b9061018a610185825f526007602052600160405f20015490565b610bd5565b610d32565b005b34610148576040366003190112610148576101b76101ad610a9e565b6024359033610c0f565b602060405160018152f35b34610148575f3660031901126101485760206040515f8152f35b34610148575f3660031901126101485760206040517facb12baecb532036b62c8ab65beb6bf1e4d792ee2ab892daf549a2fc03eea2a58152f35b34610148575f366003190112610148576040515f60045461023681610b1c565b80845290600181169081156102d45750600114610276575b6102728361025e81850382610aca565b604051918291602083526020830190610a7a565b0390f35b60045f9081527f8a35acfbc15ff81a39ae7d344fd709f28e8600b4aa8c65c6b64bfe7fe36bd19b939250905b8082106102ba5750909150810160200161025e61024e565b9192600181602092548385880101520191019092916102a2565b60ff191660208086019190915291151560051b8401909101915061025e905061024e565b3461014857604036600319011261014857610311610ab4565b6004355f52600760205260405f209060018060a01b03165f52602052602060ff60405f2054166040519015158152f35b34610148575f366003190112610148576103dd61037d7f0000000000000000000000000000000000000000000000000000000000000000610ef2565b6103a67f0000000000000000000000000000000000000000000000000000000000000000610f55565b60206103eb604051926103b98385610aca565b5f84525f368137604051958695600f60f81b875260e08588015260e0870190610a7a565b908582036040870152610a7a565b4660608501523060808501525f60a085015283810360c08501528180845192838152019301915f5b82811061042257505050500390f35b835185528695509381019392810192600101610413565b34610148576020366003190112610148576001600160a01b0361045a610a9e565b165f525f602052602060405f2054604051908152f35b346101485760403660031901126101485760043560243567ffffffffffffffff811161014857366023820112156101485780600401356104af81610b00565b906104bd6040519283610aca565b8082523660248285010111610148576020815f92602461055c9601838601378301015260018060a01b0360085416604260405160208101907f3c6757d2312c23114c4b2b3e3a2887056c5f41ce4d7a3f2be816a73297fa9efd825233604082015286606082015260608152610533608082610aca565b51902061053e610f8c565b906040519161190160f01b8352600283015260228201522090610db6565b156105de5733156105cb576002548181018091116105b757600255335f525f60205260405f208181540190556040519081525f7fddf252ad1be2c89b69c2b068fc378daa952ba7f163c4a11628f55a4df523b3ef60203393a3005b634e487b7160e01b5f52601160045260245ffd5b63ec442f0560e01b5f525f60045260245ffd5b60405162461bcd60e51b8152602060048201526011602482015270496e76616c6964207369676e617475726560781b6044820152606490fd5b3461014857604036600319011261014857610630610ab4565b336001600160a01b0382160361064c5761018f90600435610d32565b63334bd91960e11b5f5260045ffd5b34610148575f36600319011261014857602060405160128152f35b346101485760403660031901126101485761018f600435610695610ab4565b906106af610185825f526007602052600160405f20015490565b610ca6565b346101485760203660031901126101485760206106df6004355f526007602052600160405f20015490565b604051908152f35b3461014857606036600319011261014857610700610a9e565b610708610ab4565b6001600160a01b0382165f818152600160209081526040808320338452909152902054909260443592915f198110610746575b506101b79350610c0f565b8381106107ab578415610798573315610785576101b7945f52600160205260405f2060018060a01b0333165f526020528360405f20910390558461073b565b634a1406b160e11b5f525f60045260245ffd5b63e602df0560e01b5f525f60045260245ffd5b8390637dc7a0d960e11b5f523360045260245260445260645ffd5b34610148576040366003190112610148576107df610a9e565b335f9081527f4b172216da26a39704cb84e8b3a658d7316a6f1a8ac3cca3a7ef157284f0a0686020526040902054602435919060ff16156108ac576001600160a01b0316801561089957805f525f60205260405f2054828110610880576020835f947fddf252ad1be2c89b69c2b068fc378daa952ba7f163c4a11628f55a4df523b3ef938587528684520360408620558060025403600255604051908152a3005b9063391434e360e21b5f5260045260245260445260645ffd5b634b637e8f60e11b5f525f60045260245ffd5b63e2517d3f60e01b5f52336004527facb12baecb532036b62c8ab65beb6bf1e4d792ee2ab892daf549a2fc03eea2a560245260445ffd5b34610148575f366003190112610148576020600254604051908152f35b3461014857604036600319011261014857610919610a9e565b602435903315610798576001600160a01b031690811561078557335f52600160205260405f20825f526020528060405f20556040519081527f8c5be1e5ebec7d5bd14f71427d1e84f3dd0314c0f7b2291e5b200ac8c7c3b92560203392a3602060405160018152f35b34610148575f366003190112610148576040515f6003546109a281610b1c565b80845290600181169081156102d457506001146109c9576102728361025e81850382610aca565b60035f9081527fc2575a0e9e593c00f959f8c92f12db2869c3395a3b0502d05e2516446f71f85b939250905b808210610a0d5750909150810160200161025e61024e565b9192600181602092548385880101520191019092916109f5565b34610148576020366003190112610148576004359063ffffffff60e01b821680920361014857602091637965db0b60e01b8114908115610a69575b5015158152f35b6301ffc9a760e01b14905083610a62565b805180835260209291819084018484015e5f828201840152601f01601f1916010190565b600435906001600160a01b038216820361014857565b602435906001600160a01b038216820361014857565b90601f8019910116810190811067ffffffffffffffff821117610aec57604052565b634e487b7160e01b5f52604160045260245ffd5b67ffffffffffffffff8111610aec57601f01601f191660200190565b90600182811c92168015610b4a575b6020831014610b3657565b634e487b7160e01b5f52602260045260245ffd5b91607f1691610b2b565b5f9291815491610b6383610b1c565b8083529260018116908115610bb85750600114610b7f57505050565b5f9081526020812093945091925b838310610b9e575060209250010190565b600181602092949394548385870101520191019190610b8d565b915050602093945060ff929192191683830152151560051b010190565b5f81815260076020908152604080832033845290915290205460ff1615610bf95750565b63e2517d3f60e01b5f523360045260245260445ffd5b6001600160a01b0316908115610899576001600160a01b03169182156105cb57815f525f60205260405f2054818110610c8d57817fddf252ad1be2c89b69c2b068fc378daa952ba7f163c4a11628f55a4df523b3ef92602092855f525f84520360405f2055845f525f825260405f20818154019055604051908152a3565b8263391434e360e21b5f5260045260245260445260645ffd5b5f8181526007602090815260408083206001600160a01b038616845290915290205460ff16610d2c575f8181526007602090815260408083206001600160a01b0395909516808452949091528120805460ff19166001179055339291907f2f8788117e7eff1d82e926ec794901d17c78024a50270940304540a733656f0d9080a4600190565b50505f90565b5f8181526007602090815260408083206001600160a01b038616845290915290205460ff1615610d2c575f8181526007602090815260408083206001600160a01b0395909516808452949091528120805460ff19169055339291907ff6391f5c32d9c69d2a47ea670b442974b53935d1edc7fd64eb21e047a839171b9080a4600190565b9190823b610e055790610dc891610eb8565b506004811015610df157159182610dde57505090565b6001600160a01b03918216911614919050565b634e487b7160e01b5f52602160045260245ffd5b915f92610e3b610e4985946040519283916020830195630b135d3f60e11b87526024840152604060448401526064830190610a7a565b03601f198101835282610aca565b51915afa3d15610eb1573d610e5d81610b00565b90610e6b6040519283610aca565b81523d5f602083013e5b81610ea3575b81610e84575090565b90506020818051810103126101485760200151630b135d3f60e11b1490565b905060208151101590610e7b565b6060610e75565b8151919060418303610ee857610ee19250602082015190606060408401519301515f1a906110a8565b9192909190565b50505f9160029190565b60ff8114610f385760ff811690601f8211610f295760405191610f16604084610aca565b6020808452838101919036833783525290565b632cd44ac360e21b5f5260045ffd5b50604051610f5281610f4b816005610b54565b0382610aca565b90565b60ff8114610f795760ff811690601f8211610f295760405191610f16604084610aca565b50604051610f5281610f4b816006610b54565b307f00000000000000000000000000000000000000000000000000000000000000006001600160a01b0316148061107f575b15610fe7577f000000000000000000000000000000000000000000000000000000000000000090565b60405160208101907f8b73c3c69bb8fe3d512ecc4cf759cc79239f7b179b0ffacaa9a75d522b39400f82527f000000000000000000000000000000000000000000000000000000000000000060408201527f000000000000000000000000000000000000000000000000000000000000000060608201524660808201523060a082015260a0815261107960c082610aca565b51902090565b507f00000000000000000000000000000000000000000000000000000000000000004614610fbe565b91907f7fffffffffffffffffffffffffffffff5d576e7357a4501ddfe92f46681b20a0841161112a579160209360809260ff5f9560405194855216868401526040830152606082015282805260015afa1561111f575f516001600160a01b0381161561111557905f905f90565b505f906001905f90565b6040513d5f823e3d90fd5b5050505f916003919056fea2646970667358221220beaf6010fe2713cc2a05c8196348ed142b2f6fa23c4d697ae3544bb8ec593e2864736f6c634300081d00336d5257204ebe7d88fd91ae87941cb2dd9d8062b64ae5a2bd2d28ec40b9fbf6df",
    "sourcePath": "/home/jm/Projects/bloxland/blockchain/contracts/EnergyToken.sol",
    "compiler": {
        "name": "solc",
        "version": "0.8.29+commit.ab55807c"
    },
    "functionHashes": {
        "BLOXLAND_ROLE()": "9b40297c",
        "DEFAULT_ADMIN_ROLE()": "a217fddf",
        "allowance(address,address)": "dd62ed3e",
        "approve(address,uint256)": "095ea7b3",
        "balanceOf(address)": "70a08231",
        "consume(address,uint256)": "224b5c72",
        "decimals()": "313ce567",
        "eip712Domain()": "84b0196e",
        "energizeWithSignature(uint256,bytes)": "516a42ad",
        "getRoleAdmin(bytes32)": "248a9ca3",
        "grantRole(bytes32,address)": "2f2ff15d",
        "hasRole(bytes32,address)": "91d14854",
        "name()": "06fdde03",
        "renounceRole(bytes32,address)": "36568abe",
        "revokeRole(bytes32,address)": "d547741f",
        "supportsInterface(bytes4)": "01ffc9a7",
        "symbol()": "95d89b41",
        "totalSupply()": "18160ddd",
        "transfer(address,uint256)": "a9059cbb",
        "transferFrom(address,address,uint256)": "23b872dd"
    },
    "gasEstimates": {
        "creation": {
            "codeDepositCost": "891800",
            "executionCost": "infinite",
            "totalCost": "infinite"
        },
        "external": {
            "BLOXLAND_ROLE()": "483",
            "DEFAULT_ADMIN_ROLE()": "504",
            "allowance(address,address)": "2988",
            "approve(address,uint256)": "24347",
            "balanceOf(address)": "2647",
            "consume(address,uint256)": "52892",
            "decimals()": "329",
            "eip712Domain()": "infinite",
            "energizeWithSignature(uint256,bytes)": "infinite",
            "getRoleAdmin(bytes32)": "2474",
            "grantRole(bytes32,address)": "33431",
            "hasRole(bytes32,address)": "2771",
            "name()": "infinite",
            "renounceRole(bytes32,address)": "29039",
            "revokeRole(bytes32,address)": "33670",
            "supportsInterface(bytes4)": "270",
            "symbol()": "infinite",
            "totalSupply()": "2322",
            "transfer(address,uint256)": "51128",
            "transferFrom(address,address,uint256)": "75567"
        },
        "internal": {
            "_hash(address,uint256)": "infinite"
        }
    }
}