{"project/contracts/BloxlandENS.sol":{"BloxlandSubnameRegistrar":{"abi":[{"inputs":[{"internalType":"address","name":"_nameWrapper","type":"address"},{"internalType":"address","name":"_resolver","type":"address"},{"internalType":"bytes32","name":"_parentNode","type":"bytes32"},{"internalType":"uint32","name":"_defaultFuses","type":"uint32"},{"internalType":"uint64","name":"_defaultExpiry","type":"uint64"}],"stateMutability":"nonpayable","type":"constructor"},{"anonymous":false,"inputs":[{"indexed":true,"internalType":"address","name":"user","type":"address"},{"indexed":false,"internalType":"string","name":"label","type":"string"},{"indexed":true,"internalType":"bytes32","name":"node","type":"bytes32"},{"indexed":false,"internalType":"uint64","name":"expiry","type":"uint64"}],"name":"SubnameRegistered","type":"event"},{"inputs":[],"name":"defaultExpiry","outputs":[{"internalType":"uint64","name":"","type":"uint64"}],"stateMutability":"view","type":"function"},{"inputs":[],"name":"defaultFuses","outputs":[{"internalType":"uint32","name":"","type":"uint32"}],"stateMutability":"view","type":"function"},{"inputs":[],"name":"nameWrapper","outputs":[{"internalType":"contract INameWrapper","name":"","type":"address"}],"stateMutability":"view","type":"function"},{"inputs":[{"internalType":"string","name":"_name","type":"string"}],"name":"namehash","outputs":[{"internalType":"bytes32","name":"node","type":"bytes32"}],"stateMutability":"pure","type":"function"},{"inputs":[],"name":"owner","outputs":[{"internalType":"address","name":"","type":"address"}],"stateMutability":"view","type":"function"},{"inputs":[],"name":"parentNode","outputs":[{"internalType":"bytes32","name":"","type":"bytes32"}],"stateMutability":"view","type":"function"},{"inputs":[{"internalType":"string","name":"label","type":"string"},{"internalType":"bytes","name":"contentHash","type":"bytes"}],"name":"registerSubname","outputs":[],"stateMutability":"nonpayable","type":"function"},{"inputs":[],"name":"resolver","outputs":[{"internalType":"contract IResolver","name":"","type":"address"}],"stateMutability":"view","type":"function"},{"inputs":[{"internalType":"address","name":"newOwner","type":"address"}],"name":"transferOwnership","outputs":[],"stateMutability":"nonpayable","type":"function"},{"inputs":[{"internalType":"uint32","name":"_fuses","type":"uint32"},{"internalType":"uint64","name":"_expiry","type":"uint64"}],"name":"updateDefaults","outputs":[],"stateMutability":"nonpayable","type":"function"}],"evm":{"bytecode":{"linkReferences":{},"object":"608060405234801561000f575f5ffd5b50604051610ca9380380610ca983398101604081905261002e916100c1565b5f80546001600160a01b039687166001600160a01b031991821617909155600180549590961694811694909417909455600280549093163317909255600355600480546001600160401b03909316640100000000026001600160601b031990931663ffffffff90921691909117919091179055610135565b80516001600160a01b03811681146100bc575f5ffd5b919050565b5f5f5f5f5f60a086880312156100d5575f5ffd5b6100de866100a6565b94506100ec602087016100a6565b935060408601519250606086015163ffffffff8116811461010b575f5ffd5b60808701519092506001600160401b0381168114610127575f5ffd5b809150509295509295909350565b610b67806101425f395ff3fe608060405234801561000f575f5ffd5b506004361061009b575f3560e01c8063ddb3a9ba11610063578063ddb3a9ba14610148578063ee21eb411461015d578063f221fedc14610170578063f2fde38b14610195578063f3068a00146101a8575f5ffd5b806304f3bcec1461009f57806309879962146100cf5780638cfb3088146100f05780638da5cb5b14610123578063a8e5fbc014610136575b5f5ffd5b6001546100b2906001600160a01b031681565b6040516001600160a01b0390911681526020015b60405180910390f35b6100e26100dd36600461077d565b6101b1565b6040519081526020016100c6565b60045461010b9064010000000090046001600160401b031681565b6040516001600160401b0390911681526020016100c6565b6002546100b2906001600160a01b031681565b5f546100b2906001600160a01b031681565b61015b61015636600461082d565b61025c565b005b61015b61016b3660046108bb565b6102e9565b6004546101809063ffffffff1681565b60405163ffffffff90911681526020016100c6565b61015b6101a3366004610925565b6104e3565b6100e260035481565b6040805180820190915260018152601760f91b60208201525f9081906101d890849061059b565b80519091505b80156102555782826101f1600184610966565b815181106102015761020161097f565b60200260200101518051906020012060405160200161022a929190918252602082015260400190565b604051602081830303815290604052805190602001209250808061024d90610993565b9150506101de565b5050919050565b6002546001600160a01b031633146102b15760405162461bcd60e51b815260206004820152601360248201527213db9b1e481bdddb995c8818d85b8818d85b1b606a1b60448201526064015b60405180910390fd5b600480546001600160401b03909216640100000000026bffffffffffffffffffffffff1990921663ffffffff90931692909217179055565b5f546003546004805460405163632c704360e11b81526001600160a01b039094169363c658e0869361033e9390928a928a92309263ffffffff8116926401000000009091046001600160401b031691016109d0565b5f604051808303815f87803b158015610355575f5ffd5b505af1158015610367573d5f5f3e3d5ffd5b505050505f6103968585604051602001610382929190610a1f565b6040516020818303038152906040526101b1565b600154604051631827356f60e11b81529192506001600160a01b03169063304e6ade906103cb90849087908790600401610a43565b5f604051808303815f87803b1580156103e2575f5ffd5b505af11580156103f4573d5f5f3e3d5ffd5b50505f8054600354600154600480546040516309306bd160e21b81526001600160a01b0395861698506324c1af4497506104569694958e958e953395921693909263ffffffff8216926401000000009092046001600160401b03169101610a65565b5f604051808303815f87803b15801561046d575f5ffd5b505af115801561047f573d5f5f3e3d5ffd5b5050505080336001600160a01b03167f5c185a4a3b145a92f222754399c2c8c19a636daaaaa388ccaa8c9f2912703ba6878760048054906101000a90046001600160401b03166040516104d493929190610ac6565b60405180910390a35050505050565b6002546001600160a01b031633146105335760405162461bcd60e51b815260206004820152601360248201527213db9b1e481bdddb995c8818d85b8818d85b1b606a1b60448201526064016102a8565b6001600160a01b0381166105795760405162461bcd60e51b815260206004820152600d60248201526c24b73b30b634b21037bbb732b960991b60448201526064016102a8565b600280546001600160a01b0319166001600160a01b0392909216919091179055565b60608260015f5b825181101561060e57845f815181106105bd576105bd61097f565b602001015160f81c60f81b6001600160f81b0319168382815181106105e4576105e461097f565b01602001516001600160f81b03191603610606578161060281610af2565b9250505b6001016105a2565b50806001600160401b0381111561062757610627610769565b60405190808252806020026020018201604052801561065a57816020015b60608152602001906001900390816106455790505b5092505f6060815b845181101561074057865f8151811061067d5761067d61097f565b602001015160f81c60f81b6001600160f81b0319168582815181106106a4576106a461097f565b01602001516001600160f81b031916146106fd57818582815181106106cb576106cb61097f565b602001015160f81c60f81b6040516020016106e7929190610b0a565b6040516020818303038152906040529150610738565b81868461070981610af2565b95508151811061071b5761071b61097f565b602002602001018190525060405180602001604052805f81525091505b600101610662565b50808583815181106107545761075461097f565b60200260200101819052505050505092915050565b634e487b7160e01b5f52604160045260245ffd5b5f6020828403121561078d575f5ffd5b81356001600160401b038111156107a2575f5ffd5b8201601f810184136107b2575f5ffd5b80356001600160401b038111156107cb576107cb610769565b604051601f8201601f19908116603f011681016001600160401b03811182821017156107f9576107f9610769565b604052818152828201602001861015610810575f5ffd5b816020840160208301375f91810160200191909152949350505050565b5f5f6040838503121561083e575f5ffd5b823563ffffffff81168114610851575f5ffd5b915060208301356001600160401b038116811461086c575f5ffd5b809150509250929050565b5f5f83601f840112610887575f5ffd5b5081356001600160401b0381111561089d575f5ffd5b6020830191508360208285010111156108b4575f5ffd5b9250929050565b5f5f5f5f604085870312156108ce575f5ffd5b84356001600160401b038111156108e3575f5ffd5b6108ef87828801610877565b90955093505060208501356001600160401b0381111561090d575f5ffd5b61091987828801610877565b95989497509550505050565b5f60208284031215610935575f5ffd5b81356001600160a01b038116811461094b575f5ffd5b9392505050565b634e487b7160e01b5f52601160045260245ffd5b8181038181111561097957610979610952565b92915050565b634e487b7160e01b5f52603260045260245ffd5b5f816109a1576109a1610952565b505f190190565b81835281816020850137505f828201602090810191909152601f909101601f19169091010190565b86815260a060208201525f6109e960a0830187896109a8565b6001600160a01b039590951660408301525063ffffffff9290921660608301526001600160401b03166080909101529392505050565b818382376e05cc4d8dec6d6f0d8c2dcc85ccae8d608b1b9101908152600f01919050565b838152604060208201525f610a5c6040830184866109a8565b95945050505050565b88815260e060208201525f610a7e60e08301898b6109a8565b6001600160a01b0397881660408401529590961660608201526001600160401b03938416608082015263ffffffff9290921660a083015290911660c090910152949350505050565b604081525f610ad96040830185876109a8565b90506001600160401b0383166020830152949350505050565b5f60018201610b0357610b03610952565b5060010190565b5f83518060208601845e6001600160f81b031993909316919092019081526001019291505056fea2646970667358221220b4f9f11f81143bac117a61f0651143a57c21983e235c643ff17ff9ee6de3500264736f6c634300081c0033","opcodes":"PUSH1 0x80 PUSH1 0x40 MSTORE CALLVALUE DUP1 ISZERO PUSH2 0xF JUMPI PUSH0 PUSH0 REVERT JUMPDEST POP PUSH1 0x40 MLOAD PUSH2 0xCA9 CODESIZE SUB DUP1 PUSH2 0xCA9 DUP4 CODECOPY DUP2 ADD PUSH1 0x40 DUP2 SWAP1 MSTORE PUSH2 0x2E SWAP2 PUSH2 0xC1 JUMP JUMPDEST PUSH0 DUP1 SLOAD PUSH1 0x1 PUSH1 0x1 PUSH1 0xA0 SHL SUB SWAP7 DUP8 AND PUSH1 0x1 PUSH1 0x1 PUSH1 0xA0 SHL SUB NOT SWAP2 DUP3 AND OR SWAP1 SWAP2 SSTORE PUSH1 0x1 DUP1 SLOAD SWAP6 SWAP1 SWAP7 AND SWAP5 DUP2 AND SWAP5 SWAP1 SWAP5 OR SWAP1 SWAP5 SSTORE PUSH1 0x2 DUP1 SLOAD SWAP1 SWAP4 AND CALLER OR SWAP1 SWAP3 SSTORE PUSH1 0x3 SSTORE PUSH1 0x4 DUP1 SLOAD PUSH1 0x1 PUSH1 0x1 PUSH1 0x40 SHL SUB SWAP1 SWAP4 AND PUSH5 0x100000000 MUL PUSH1 0x1 PUSH1 0x1 PUSH1 0x60 SHL SUB NOT SWAP1 SWAP4 AND PUSH4 0xFFFFFFFF SWAP1 SWAP3 AND SWAP2 SWAP1 SWAP2 OR SWAP2 SWAP1 SWAP2 OR SWAP1 SSTORE PUSH2 0x135 JUMP JUMPDEST DUP1 MLOAD PUSH1 0x1 PUSH1 0x1 PUSH1 0xA0 SHL SUB DUP2 AND DUP2 EQ PUSH2 0xBC JUMPI PUSH0 PUSH0 REVERT JUMPDEST SWAP2 SWAP1 POP JUMP JUMPDEST PUSH0 PUSH0 PUSH0 PUSH0 PUSH0 PUSH1 0xA0 DUP7 DUP9 SUB SLT ISZERO PUSH2 0xD5 JUMPI PUSH0 PUSH0 REVERT JUMPDEST PUSH2 0xDE DUP7 PUSH2 0xA6 JUMP JUMPDEST SWAP5 POP PUSH2 0xEC PUSH1 0x20 DUP8 ADD PUSH2 0xA6 JUMP JUMPDEST SWAP4 POP PUSH1 0x40 DUP7 ADD MLOAD SWAP3 POP PUSH1 0x60 DUP7 ADD MLOAD PUSH4 0xFFFFFFFF DUP2 AND DUP2 EQ PUSH2 0x10B JUMPI PUSH0 PUSH0 REVERT JUMPDEST PUSH1 0x80 DUP8 ADD MLOAD SWAP1 SWAP3 POP PUSH1 0x1 PUSH1 0x1 PUSH1 0x40 SHL SUB DUP2 AND DUP2 EQ PUSH2 0x127 JUMPI PUSH0 PUSH0 REVERT JUMPDEST DUP1 SWAP2 POP POP SWAP3 SWAP6 POP SWAP3 SWAP6 SWAP1 SWAP4 POP JUMP JUMPDEST PUSH2 0xB67 DUP1 PUSH2 0x142 PUSH0 CODECOPY PUSH0 RETURN INVALID PUSH1 0x80 PUSH1 0x40 MSTORE CALLVALUE DUP1 ISZERO PUSH2 0xF JUMPI PUSH0 PUSH0 REVERT JUMPDEST POP PUSH1 0x4 CALLDATASIZE LT PUSH2 0x9B JUMPI PUSH0 CALLDATALOAD PUSH1 0xE0 SHR DUP1 PUSH4 0xDDB3A9BA GT PUSH2 0x63 JUMPI DUP1 PUSH4 0xDDB3A9BA EQ PUSH2 0x148 JUMPI DUP1 PUSH4 0xEE21EB41 EQ PUSH2 0x15D JUMPI DUP1 PUSH4 0xF221FEDC EQ PUSH2 0x170 JUMPI DUP1 PUSH4 0xF2FDE38B EQ PUSH2 0x195 JUMPI DUP1 PUSH4 0xF3068A00 EQ PUSH2 0x1A8 JUMPI PUSH0 PUSH0 REVERT JUMPDEST DUP1 PUSH4 0x4F3BCEC EQ PUSH2 0x9F JUMPI DUP1 PUSH4 0x9879962 EQ PUSH2 0xCF JUMPI DUP1 PUSH4 0x8CFB3088 EQ PUSH2 0xF0 JUMPI DUP1 PUSH4 0x8DA5CB5B EQ PUSH2 0x123 JUMPI DUP1 PUSH4 0xA8E5FBC0 EQ PUSH2 0x136 JUMPI JUMPDEST PUSH0 PUSH0 REVERT JUMPDEST PUSH1 0x1 SLOAD PUSH2 0xB2 SWAP1 PUSH1 0x1 PUSH1 0x1 PUSH1 0xA0 SHL SUB AND DUP2 JUMP JUMPDEST PUSH1 0x40 MLOAD PUSH1 0x1 PUSH1 0x1 PUSH1 0xA0 SHL SUB SWAP1 SWAP2 AND DUP2 MSTORE PUSH1 0x20 ADD JUMPDEST PUSH1 0x40 MLOAD DUP1 SWAP2 SUB SWAP1 RETURN JUMPDEST PUSH2 0xE2 PUSH2 0xDD CALLDATASIZE PUSH1 0x4 PUSH2 0x77D JUMP JUMPDEST PUSH2 0x1B1 JUMP JUMPDEST PUSH1 0x40 MLOAD SWAP1 DUP2 MSTORE PUSH1 0x20 ADD PUSH2 0xC6 JUMP JUMPDEST PUSH1 0x4 SLOAD PUSH2 0x10B SWAP1 PUSH5 0x100000000 SWAP1 DIV PUSH1 0x1 PUSH1 0x1 PUSH1 0x40 SHL SUB AND DUP2 JUMP JUMPDEST PUSH1 0x40 MLOAD PUSH1 0x1 PUSH1 0x1 PUSH1 0x40 SHL SUB SWAP1 SWAP2 AND DUP2 MSTORE PUSH1 0x20 ADD PUSH2 0xC6 JUMP JUMPDEST PUSH1 0x2 SLOAD PUSH2 0xB2 SWAP1 PUSH1 0x1 PUSH1 0x1 PUSH1 0xA0 SHL SUB AND DUP2 JUMP JUMPDEST PUSH0 SLOAD PUSH2 0xB2 SWAP1 PUSH1 0x1 PUSH1 0x1 PUSH1 0xA0 SHL SUB AND DUP2 JUMP JUMPDEST PUSH2 0x15B PUSH2 0x156 CALLDATASIZE PUSH1 0x4 PUSH2 0x82D JUMP JUMPDEST PUSH2 0x25C JUMP JUMPDEST STOP JUMPDEST PUSH2 0x15B PUSH2 0x16B CALLDATASIZE PUSH1 0x4 PUSH2 0x8BB JUMP JUMPDEST PUSH2 0x2E9 JUMP JUMPDEST PUSH1 0x4 SLOAD PUSH2 0x180 SWAP1 PUSH4 0xFFFFFFFF AND DUP2 JUMP JUMPDEST PUSH1 0x40 MLOAD PUSH4 0xFFFFFFFF SWAP1 SWAP2 AND DUP2 MSTORE PUSH1 0x20 ADD PUSH2 0xC6 JUMP JUMPDEST PUSH2 0x15B PUSH2 0x1A3 CALLDATASIZE PUSH1 0x4 PUSH2 0x925 JUMP JUMPDEST PUSH2 0x4E3 JUMP JUMPDEST PUSH2 0xE2 PUSH1 0x3 SLOAD DUP2 JUMP JUMPDEST PUSH1 0x40 DUP1 MLOAD DUP1 DUP3 ADD SWAP1 SWAP2 MSTORE PUSH1 0x1 DUP2 MSTORE PUSH1 0x17 PUSH1 0xF9 SHL PUSH1 0x20 DUP3 ADD MSTORE PUSH0 SWAP1 DUP2 SWAP1 PUSH2 0x1D8 SWAP1 DUP5 SWAP1 PUSH2 0x59B JUMP JUMPDEST DUP1 MLOAD SWAP1 SWAP2 POP JUMPDEST DUP1 ISZERO PUSH2 0x255 JUMPI DUP3 DUP3 PUSH2 0x1F1 PUSH1 0x1 DUP5 PUSH2 0x966 JUMP JUMPDEST DUP2 MLOAD DUP2 LT PUSH2 0x201 JUMPI PUSH2 0x201 PUSH2 0x97F JUMP JUMPDEST PUSH1 0x20 MUL PUSH1 0x20 ADD ADD MLOAD DUP1 MLOAD SWAP1 PUSH1 0x20 ADD KECCAK256 PUSH1 0x40 MLOAD PUSH1 0x20 ADD PUSH2 0x22A SWAP3 SWAP2 SWAP1 SWAP2 DUP3 MSTORE PUSH1 0x20 DUP3 ADD MSTORE PUSH1 0x40 ADD SWAP1 JUMP JUMPDEST PUSH1 0x40 MLOAD PUSH1 0x20 DUP2 DUP4 SUB SUB DUP2 MSTORE SWAP1 PUSH1 0x40 MSTORE DUP1 MLOAD SWAP1 PUSH1 0x20 ADD KECCAK256 SWAP3 POP DUP1 DUP1 PUSH2 0x24D SWAP1 PUSH2 0x993 JUMP JUMPDEST SWAP2 POP POP PUSH2 0x1DE JUMP JUMPDEST POP POP SWAP2 SWAP1 POP JUMP JUMPDEST PUSH1 0x2 SLOAD PUSH1 0x1 PUSH1 0x1 PUSH1 0xA0 SHL SUB AND CALLER EQ PUSH2 0x2B1 JUMPI PUSH1 0x40 MLOAD PUSH3 0x461BCD PUSH1 0xE5 SHL DUP2 MSTORE PUSH1 0x20 PUSH1 0x4 DUP3 ADD MSTORE PUSH1 0x13 PUSH1 0x24 DUP3 ADD MSTORE PUSH19 0x13DB9B1E481BDDDB995C8818D85B8818D85B1B PUSH1 0x6A SHL PUSH1 0x44 DUP3 ADD MSTORE PUSH1 0x64 ADD JUMPDEST PUSH1 0x40 MLOAD DUP1 SWAP2 SUB SWAP1 REVERT JUMPDEST PUSH1 0x4 DUP1 SLOAD PUSH1 0x1 PUSH1 0x1 PUSH1 0x40 SHL SUB SWAP1 SWAP3 AND PUSH5 0x100000000 MUL PUSH12 0xFFFFFFFFFFFFFFFFFFFFFFFF NOT SWAP1 SWAP3 AND PUSH4 0xFFFFFFFF SWAP1 SWAP4 AND SWAP3 SWAP1 SWAP3 OR OR SWAP1 SSTORE JUMP JUMPDEST PUSH0 SLOAD PUSH1 0x3 SLOAD PUSH1 0x4 DUP1 SLOAD PUSH1 0x40 MLOAD PUSH4 0x632C7043 PUSH1 0xE1 SHL DUP2 MSTORE PUSH1 0x1 PUSH1 0x1 PUSH1 0xA0 SHL SUB SWAP1 SWAP5 AND SWAP4 PUSH4 0xC658E086 SWAP4 PUSH2 0x33E SWAP4 SWAP1 SWAP3 DUP11 SWAP3 DUP11 SWAP3 ADDRESS SWAP3 PUSH4 0xFFFFFFFF DUP2 AND SWAP3 PUSH5 0x100000000 SWAP1 SWAP2 DIV PUSH1 0x1 PUSH1 0x1 PUSH1 0x40 SHL SUB AND SWAP2 ADD PUSH2 0x9D0 JUMP JUMPDEST PUSH0 PUSH1 0x40 MLOAD DUP1 DUP4 SUB DUP2 PUSH0 DUP8 DUP1 EXTCODESIZE ISZERO DUP1 ISZERO PUSH2 0x355 JUMPI PUSH0 PUSH0 REVERT JUMPDEST POP GAS CALL ISZERO DUP1 ISZERO PUSH2 0x367 JUMPI RETURNDATASIZE PUSH0 PUSH0 RETURNDATACOPY RETURNDATASIZE PUSH0 REVERT JUMPDEST POP POP POP POP PUSH0 PUSH2 0x396 DUP6 DUP6 PUSH1 0x40 MLOAD PUSH1 0x20 ADD PUSH2 0x382 SWAP3 SWAP2 SWAP1 PUSH2 0xA1F JUMP JUMPDEST PUSH1 0x40 MLOAD PUSH1 0x20 DUP2 DUP4 SUB SUB DUP2 MSTORE SWAP1 PUSH1 0x40 MSTORE PUSH2 0x1B1 JUMP JUMPDEST PUSH1 0x1 SLOAD PUSH1 0x40 MLOAD PUSH4 0x1827356F PUSH1 0xE1 SHL DUP2 MSTORE SWAP2 SWAP3 POP PUSH1 0x1 PUSH1 0x1 PUSH1 0xA0 SHL SUB AND SWAP1 PUSH4 0x304E6ADE SWAP1 PUSH2 0x3CB SWAP1 DUP5 SWAP1 DUP8 SWAP1 DUP8 SWAP1 PUSH1 0x4 ADD PUSH2 0xA43 JUMP JUMPDEST PUSH0 PUSH1 0x40 MLOAD DUP1 DUP4 SUB DUP2 PUSH0 DUP8 DUP1 EXTCODESIZE ISZERO DUP1 ISZERO PUSH2 0x3E2 JUMPI PUSH0 PUSH0 REVERT JUMPDEST POP GAS CALL ISZERO DUP1 ISZERO PUSH2 0x3F4 JUMPI RETURNDATASIZE PUSH0 PUSH0 RETURNDATACOPY RETURNDATASIZE PUSH0 REVERT JUMPDEST POP POP PUSH0 DUP1 SLOAD PUSH1 0x3 SLOAD PUSH1 0x1 SLOAD PUSH1 0x4 DUP1 SLOAD PUSH1 0x40 MLOAD PUSH4 0x9306BD1 PUSH1 0xE2 SHL DUP2 MSTORE PUSH1 0x1 PUSH1 0x1 PUSH1 0xA0 SHL SUB SWAP6 DUP7 AND SWAP9 POP PUSH4 0x24C1AF44 SWAP8 POP PUSH2 0x456 SWAP7 SWAP5 SWAP6 DUP15 SWAP6 DUP15 SWAP6 CALLER SWAP6 SWAP3 AND SWAP4 SWAP1 SWAP3 PUSH4 0xFFFFFFFF DUP3 AND SWAP3 PUSH5 0x100000000 SWAP1 SWAP3 DIV PUSH1 0x1 PUSH1 0x1 PUSH1 0x40 SHL SUB AND SWAP2 ADD PUSH2 0xA65 JUMP JUMPDEST PUSH0 PUSH1 0x40 MLOAD DUP1 DUP4 SUB DUP2 PUSH0 DUP8 DUP1 EXTCODESIZE ISZERO DUP1 ISZERO PUSH2 0x46D JUMPI PUSH0 PUSH0 REVERT JUMPDEST POP GAS CALL ISZERO DUP1 ISZERO PUSH2 0x47F JUMPI RETURNDATASIZE PUSH0 PUSH0 RETURNDATACOPY RETURNDATASIZE PUSH0 REVERT JUMPDEST POP POP POP POP DUP1 CALLER PUSH1 0x1 PUSH1 0x1 PUSH1 0xA0 SHL SUB AND PUSH32 0x5C185A4A3B145A92F222754399C2C8C19A636DAAAAA388CCAA8C9F2912703BA6 DUP8 DUP8 PUSH1 0x4 DUP1 SLOAD SWAP1 PUSH2 0x100 EXP SWAP1 DIV PUSH1 0x1 PUSH1 0x1 PUSH1 0x40 SHL SUB AND PUSH1 0x40 MLOAD PUSH2 0x4D4 SWAP4 SWAP3 SWAP2 SWAP1 PUSH2 0xAC6 JUMP JUMPDEST PUSH1 0x40 MLOAD DUP1 SWAP2 SUB SWAP1 LOG3 POP POP POP POP POP JUMP JUMPDEST PUSH1 0x2 SLOAD PUSH1 0x1 PUSH1 0x1 PUSH1 0xA0 SHL SUB AND CALLER EQ PUSH2 0x533 JUMPI PUSH1 0x40 MLOAD PUSH3 0x461BCD PUSH1 0xE5 SHL DUP2 MSTORE PUSH1 0x20 PUSH1 0x4 DUP3 ADD MSTORE PUSH1 0x13 PUSH1 0x24 DUP3 ADD MSTORE PUSH19 0x13DB9B1E481BDDDB995C8818D85B8818D85B1B PUSH1 0x6A SHL PUSH1 0x44 DUP3 ADD MSTORE PUSH1 0x64 ADD PUSH2 0x2A8 JUMP JUMPDEST PUSH1 0x1 PUSH1 0x1 PUSH1 0xA0 SHL SUB DUP2 AND PUSH2 0x579 JUMPI PUSH1 0x40 MLOAD PUSH3 0x461BCD PUSH1 0xE5 SHL DUP2 MSTORE PUSH1 0x20 PUSH1 0x4 DUP3 ADD MSTORE PUSH1 0xD PUSH1 0x24 DUP3 ADD MSTORE PUSH13 0x24B73B30B634B21037BBB732B9 PUSH1 0x99 SHL PUSH1 0x44 DUP3 ADD MSTORE PUSH1 0x64 ADD PUSH2 0x2A8 JUMP JUMPDEST PUSH1 0x2 DUP1 SLOAD PUSH1 0x1 PUSH1 0x1 PUSH1 0xA0 SHL SUB NOT AND PUSH1 0x1 PUSH1 0x1 PUSH1 0xA0 SHL SUB SWAP3 SWAP1 SWAP3 AND SWAP2 SWAP1 SWAP2 OR SWAP1 SSTORE JUMP JUMPDEST PUSH1 0x60 DUP3 PUSH1 0x1 PUSH0 JUMPDEST DUP3 MLOAD DUP2 LT ISZERO PUSH2 0x60E JUMPI DUP5 PUSH0 DUP2 MLOAD DUP2 LT PUSH2 0x5BD JUMPI PUSH2 0x5BD PUSH2 0x97F JUMP JUMPDEST PUSH1 0x20 ADD ADD MLOAD PUSH1 0xF8 SHR PUSH1 0xF8 SHL PUSH1 0x1 PUSH1 0x1 PUSH1 0xF8 SHL SUB NOT AND DUP4 DUP3 DUP2 MLOAD DUP2 LT PUSH2 0x5E4 JUMPI PUSH2 0x5E4 PUSH2 0x97F JUMP JUMPDEST ADD PUSH1 0x20 ADD MLOAD PUSH1 0x1 PUSH1 0x1 PUSH1 0xF8 SHL SUB NOT AND SUB PUSH2 0x606 JUMPI DUP2 PUSH2 0x602 DUP2 PUSH2 0xAF2 JUMP JUMPDEST SWAP3 POP POP JUMPDEST PUSH1 0x1 ADD PUSH2 0x5A2 JUMP JUMPDEST POP DUP1 PUSH1 0x1 PUSH1 0x1 PUSH1 0x40 SHL SUB DUP2 GT ISZERO PUSH2 0x627 JUMPI PUSH2 0x627 PUSH2 0x769 JUMP JUMPDEST PUSH1 0x40 MLOAD SWAP1 DUP1 DUP3 MSTORE DUP1 PUSH1 0x20 MUL PUSH1 0x20 ADD DUP3 ADD PUSH1 0x40 MSTORE DUP1 ISZERO PUSH2 0x65A JUMPI DUP2 PUSH1 0x20 ADD JUMPDEST PUSH1 0x60 DUP2 MSTORE PUSH1 0x20 ADD SWAP1 PUSH1 0x1 SWAP1 SUB SWAP1 DUP2 PUSH2 0x645 JUMPI SWAP1 POP JUMPDEST POP SWAP3 POP PUSH0 PUSH1 0x60 DUP2 JUMPDEST DUP5 MLOAD DUP2 LT ISZERO PUSH2 0x740 JUMPI DUP7 PUSH0 DUP2 MLOAD DUP2 LT PUSH2 0x67D JUMPI PUSH2 0x67D PUSH2 0x97F JUMP JUMPDEST PUSH1 0x20 ADD ADD MLOAD PUSH1 0xF8 SHR PUSH1 0xF8 SHL PUSH1 0x1 PUSH1 0x1 PUSH1 0xF8 SHL SUB NOT AND DUP6 DUP3 DUP2 MLOAD DUP2 LT PUSH2 0x6A4 JUMPI PUSH2 0x6A4 PUSH2 0x97F JUMP JUMPDEST ADD PUSH1 0x20 ADD MLOAD PUSH1 0x1 PUSH1 0x1 PUSH1 0xF8 SHL SUB NOT AND EQ PUSH2 0x6FD JUMPI DUP2 DUP6 DUP3 DUP2 MLOAD DUP2 LT PUSH2 0x6CB JUMPI PUSH2 0x6CB PUSH2 0x97F JUMP JUMPDEST PUSH1 0x20 ADD ADD MLOAD PUSH1 0xF8 SHR PUSH1 0xF8 SHL PUSH1 0x40 MLOAD PUSH1 0x20 ADD PUSH2 0x6E7 SWAP3 SWAP2 SWAP1 PUSH2 0xB0A JUMP JUMPDEST PUSH1 0x40 MLOAD PUSH1 0x20 DUP2 DUP4 SUB SUB DUP2 MSTORE SWAP1 PUSH1 0x40 MSTORE SWAP2 POP PUSH2 0x738 JUMP JUMPDEST DUP2 DUP7 DUP5 PUSH2 0x709 DUP2 PUSH2 0xAF2 JUMP JUMPDEST SWAP6 POP DUP2 MLOAD DUP2 LT PUSH2 0x71B JUMPI PUSH2 0x71B PUSH2 0x97F JUMP JUMPDEST PUSH1 0x20 MUL PUSH1 0x20 ADD ADD DUP2 SWAP1 MSTORE POP PUSH1 0x40 MLOAD DUP1 PUSH1 0x20 ADD PUSH1 0x40 MSTORE DUP1 PUSH0 DUP2 MSTORE POP SWAP2 POP JUMPDEST PUSH1 0x1 ADD PUSH2 0x662 JUMP JUMPDEST POP DUP1 DUP6 DUP4 DUP2 MLOAD DUP2 LT PUSH2 0x754 JUMPI PUSH2 0x754 PUSH2 0x97F JUMP JUMPDEST PUSH1 0x20 MUL PUSH1 0x20 ADD ADD DUP2 SWAP1 MSTORE POP POP POP POP POP SWAP3 SWAP2 POP POP JUMP JUMPDEST PUSH4 0x4E487B71 PUSH1 0xE0 SHL PUSH0 MSTORE PUSH1 0x41 PUSH1 0x4 MSTORE PUSH1 0x24 PUSH0 REVERT JUMPDEST PUSH0 PUSH1 0x20 DUP3 DUP5 SUB SLT ISZERO PUSH2 0x78D JUMPI PUSH0 PUSH0 REVERT JUMPDEST DUP2 CALLDATALOAD PUSH1 0x1 PUSH1 0x1 PUSH1 0x40 SHL SUB DUP2 GT ISZERO PUSH2 0x7A2 JUMPI PUSH0 PUSH0 REVERT JUMPDEST DUP3 ADD PUSH1 0x1F DUP2 ADD DUP5 SGT PUSH2 0x7B2 JUMPI PUSH0 PUSH0 REVERT JUMPDEST DUP1 CALLDATALOAD PUSH1 0x1 PUSH1 0x1 PUSH1 0x40 SHL SUB DUP2 GT ISZERO PUSH2 0x7CB JUMPI PUSH2 0x7CB PUSH2 0x769 JUMP JUMPDEST PUSH1 0x40 MLOAD PUSH1 0x1F DUP3 ADD PUSH1 0x1F NOT SWAP1 DUP2 AND PUSH1 0x3F ADD AND DUP2 ADD PUSH1 0x1 PUSH1 0x1 PUSH1 0x40 SHL SUB DUP2 GT DUP3 DUP3 LT OR ISZERO PUSH2 0x7F9 JUMPI PUSH2 0x7F9 PUSH2 0x769 JUMP JUMPDEST PUSH1 0x40 MSTORE DUP2 DUP2 MSTORE DUP3 DUP3 ADD PUSH1 0x20 ADD DUP7 LT ISZERO PUSH2 0x810 JUMPI PUSH0 PUSH0 REVERT JUMPDEST DUP2 PUSH1 0x20 DUP5 ADD PUSH1 0x20 DUP4 ADD CALLDATACOPY PUSH0 SWAP2 DUP2 ADD PUSH1 0x20 ADD SWAP2 SWAP1 SWAP2 MSTORE SWAP5 SWAP4 POP POP POP POP JUMP JUMPDEST PUSH0 PUSH0 PUSH1 0x40 DUP4 DUP6 SUB SLT ISZERO PUSH2 0x83E JUMPI PUSH0 PUSH0 REVERT JUMPDEST DUP3 CALLDATALOAD PUSH4 0xFFFFFFFF DUP2 AND DUP2 EQ PUSH2 0x851 JUMPI PUSH0 PUSH0 REVERT JUMPDEST SWAP2 POP PUSH1 0x20 DUP4 ADD CALLDATALOAD PUSH1 0x1 PUSH1 0x1 PUSH1 0x40 SHL SUB DUP2 AND DUP2 EQ PUSH2 0x86C JUMPI PUSH0 PUSH0 REVERT JUMPDEST DUP1 SWAP2 POP POP SWAP3 POP SWAP3 SWAP1 POP JUMP JUMPDEST PUSH0 PUSH0 DUP4 PUSH1 0x1F DUP5 ADD SLT PUSH2 0x887 JUMPI PUSH0 PUSH0 REVERT JUMPDEST POP DUP2 CALLDATALOAD PUSH1 0x1 PUSH1 0x1 PUSH1 0x40 SHL SUB DUP2 GT ISZERO PUSH2 0x89D JUMPI PUSH0 PUSH0 REVERT JUMPDEST PUSH1 0x20 DUP4 ADD SWAP2 POP DUP4 PUSH1 0x20 DUP3 DUP6 ADD ADD GT ISZERO PUSH2 0x8B4 JUMPI PUSH0 PUSH0 REVERT JUMPDEST SWAP3 POP SWAP3 SWAP1 POP JUMP JUMPDEST PUSH0 PUSH0 PUSH0 PUSH0 PUSH1 0x40 DUP6 DUP8 SUB SLT ISZERO PUSH2 0x8CE JUMPI PUSH0 PUSH0 REVERT JUMPDEST DUP5 CALLDATALOAD PUSH1 0x1 PUSH1 0x1 PUSH1 0x40 SHL SUB DUP2 GT ISZERO PUSH2 0x8E3 JUMPI PUSH0 PUSH0 REVERT JUMPDEST PUSH2 0x8EF DUP8 DUP3 DUP9 ADD PUSH2 0x877 JUMP JUMPDEST SWAP1 SWAP6 POP SWAP4 POP POP PUSH1 0x20 DUP6 ADD CALLDATALOAD PUSH1 0x1 PUSH1 0x1 PUSH1 0x40 SHL SUB DUP2 GT ISZERO PUSH2 0x90D JUMPI PUSH0 PUSH0 REVERT JUMPDEST PUSH2 0x919 DUP8 DUP3 DUP9 ADD PUSH2 0x877 JUMP JUMPDEST SWAP6 SWAP9 SWAP5 SWAP8 POP SWAP6 POP POP POP POP JUMP JUMPDEST PUSH0 PUSH1 0x20 DUP3 DUP5 SUB SLT ISZERO PUSH2 0x935 JUMPI PUSH0 PUSH0 REVERT JUMPDEST DUP2 CALLDATALOAD PUSH1 0x1 PUSH1 0x1 PUSH1 0xA0 SHL SUB DUP2 AND DUP2 EQ PUSH2 0x94B JUMPI PUSH0 PUSH0 REVERT JUMPDEST SWAP4 SWAP3 POP POP POP JUMP JUMPDEST PUSH4 0x4E487B71 PUSH1 0xE0 SHL PUSH0 MSTORE PUSH1 0x11 PUSH1 0x4 MSTORE PUSH1 0x24 PUSH0 REVERT JUMPDEST DUP2 DUP2 SUB DUP2 DUP2 GT ISZERO PUSH2 0x979 JUMPI PUSH2 0x979 PUSH2 0x952 JUMP JUMPDEST SWAP3 SWAP2 POP POP JUMP JUMPDEST PUSH4 0x4E487B71 PUSH1 0xE0 SHL PUSH0 MSTORE PUSH1 0x32 PUSH1 0x4 MSTORE PUSH1 0x24 PUSH0 REVERT JUMPDEST PUSH0 DUP2 PUSH2 0x9A1 JUMPI PUSH2 0x9A1 PUSH2 0x952 JUMP JUMPDEST POP PUSH0 NOT ADD SWAP1 JUMP JUMPDEST DUP2 DUP4 MSTORE DUP2 DUP2 PUSH1 0x20 DUP6 ADD CALLDATACOPY POP PUSH0 DUP3 DUP3 ADD PUSH1 0x20 SWAP1 DUP2 ADD SWAP2 SWAP1 SWAP2 MSTORE PUSH1 0x1F SWAP1 SWAP2 ADD PUSH1 0x1F NOT AND SWAP1 SWAP2 ADD ADD SWAP1 JUMP JUMPDEST DUP7 DUP2 MSTORE PUSH1 0xA0 PUSH1 0x20 DUP3 ADD MSTORE PUSH0 PUSH2 0x9E9 PUSH1 0xA0 DUP4 ADD DUP8 DUP10 PUSH2 0x9A8 JUMP JUMPDEST PUSH1 0x1 PUSH1 0x1 PUSH1 0xA0 SHL SUB SWAP6 SWAP1 SWAP6 AND PUSH1 0x40 DUP4 ADD MSTORE POP PUSH4 0xFFFFFFFF SWAP3 SWAP1 SWAP3 AND PUSH1 0x60 DUP4 ADD MSTORE PUSH1 0x1 PUSH1 0x1 PUSH1 0x40 SHL SUB AND PUSH1 0x80 SWAP1 SWAP2 ADD MSTORE SWAP4 SWAP3 POP POP POP JUMP JUMPDEST DUP2 DUP4 DUP3 CALLDATACOPY PUSH15 0x5CC4D8DEC6D6F0D8C2DCC85CCAE8D PUSH1 0x8B SHL SWAP2 ADD SWAP1 DUP2 MSTORE PUSH1 0xF ADD SWAP2 SWAP1 POP JUMP JUMPDEST DUP4 DUP2 MSTORE PUSH1 0x40 PUSH1 0x20 DUP3 ADD MSTORE PUSH0 PUSH2 0xA5C PUSH1 0x40 DUP4 ADD DUP5 DUP7 PUSH2 0x9A8 JUMP JUMPDEST SWAP6 SWAP5 POP POP POP POP POP JUMP JUMPDEST DUP9 DUP2 MSTORE PUSH1 0xE0 PUSH1 0x20 DUP3 ADD MSTORE PUSH0 PUSH2 0xA7E PUSH1 0xE0 DUP4 ADD DUP10 DUP12 PUSH2 0x9A8 JUMP JUMPDEST PUSH1 0x1 PUSH1 0x1 PUSH1 0xA0 SHL SUB SWAP8 DUP9 AND PUSH1 0x40 DUP5 ADD MSTORE SWAP6 SWAP1 SWAP7 AND PUSH1 0x60 DUP3 ADD MSTORE PUSH1 0x1 PUSH1 0x1 PUSH1 0x40 SHL SUB SWAP4 DUP5 AND PUSH1 0x80 DUP3 ADD MSTORE PUSH4 0xFFFFFFFF SWAP3 SWAP1 SWAP3 AND PUSH1 0xA0 DUP4 ADD MSTORE SWAP1 SWAP2 AND PUSH1 0xC0 SWAP1 SWAP2 ADD MSTORE SWAP5 SWAP4 POP POP POP POP JUMP JUMPDEST PUSH1 0x40 DUP2 MSTORE PUSH0 PUSH2 0xAD9 PUSH1 0x40 DUP4 ADD DUP6 DUP8 PUSH2 0x9A8 JUMP JUMPDEST SWAP1 POP PUSH1 0x1 PUSH1 0x1 PUSH1 0x40 SHL SUB DUP4 AND PUSH1 0x20 DUP4 ADD MSTORE SWAP5 SWAP4 POP POP POP POP JUMP JUMPDEST PUSH0 PUSH1 0x1 DUP3 ADD PUSH2 0xB03 JUMPI PUSH2 0xB03 PUSH2 0x952 JUMP JUMPDEST POP PUSH1 0x1 ADD SWAP1 JUMP JUMPDEST PUSH0 DUP4 MLOAD DUP1 PUSH1 0x20 DUP7 ADD DUP5 MCOPY PUSH1 0x1 PUSH1 0x1 PUSH1 0xF8 SHL SUB NOT SWAP4 SWAP1 SWAP4 AND SWAP2 SWAP1 SWAP3 ADD SWAP1 DUP2 MSTORE PUSH1 0x1 ADD SWAP3 SWAP2 POP POP JUMP INVALID LOG2 PUSH5 0x6970667358 0x22 SLT KECCAK256 0xB4 0xF9 CALL 0x1F DUP2 EQ EXTCODESIZE 0xAC GT PUSH27 0x61F0651143A57C21983E235C643FF17FF9EE6DE3500264736F6C63 NUMBER STOP ADDMOD SHR STOP CALLER "},"methodIdentifiers":{"defaultExpiry()":"8cfb3088","defaultFuses()":"f221fedc","nameWrapper()":"a8e5fbc0","namehash(string)":"09879962","owner()":"8da5cb5b","parentNode()":"f3068a00","registerSubname(string,bytes)":"ee21eb41","resolver()":"04f3bcec","transferOwnership(address)":"f2fde38b","updateDefaults(uint32,uint64)":"ddb3a9ba"}}}}}