{
  "_format": "hh3-artifact-1",
  "contractName": "EnergyToken",
  "sourceName": "contracts/EnergyToken.sol",
  "abi": [
    {
      "inputs": [
        {
          "internalType": "address",
          "name": "_signer",
          "type": "address"
        }
      ],
      "stateMutability": "nonpayable",
      "type": "constructor"
    },
    {
      "inputs": [],
      "name": "AccessControlBadConfirmation",
      "type": "error"
    },
    {
      "inputs": [
        {
          "internalType": "address",
          "name": "account",
          "type": "address"
        },
        {
          "internalType": "bytes32",
          "name": "neededRole",
          "type": "bytes32"
        }
      ],
      "name": "AccessControlUnauthorizedAccount",
      "type": "error"
    },
    {
      "inputs": [
        {
          "internalType": "address",
          "name": "spender",
          "type": "address"
        },
        {
          "internalType": "uint256",
          "name": "allowance",
          "type": "uint256"
        },
        {
          "internalType": "uint256",
          "name": "needed",
          "type": "uint256"
        }
      ],
      "name": "ERC20InsufficientAllowance",
      "type": "error"
    },
    {
      "inputs": [
        {
          "internalType": "address",
          "name": "sender",
          "type": "address"
        },
        {
          "internalType": "uint256",
          "name": "balance",
          "type": "uint256"
        },
        {
          "internalType": "uint256",
          "name": "needed",
          "type": "uint256"
        }
      ],
      "name": "ERC20InsufficientBalance",
      "type": "error"
    },
    {
      "inputs": [
        {
          "internalType": "address",
          "name": "approver",
          "type": "address"
        }
      ],
      "name": "ERC20InvalidApprover",
      "type": "error"
    },
    {
      "inputs": [
        {
          "internalType": "address",
          "name": "receiver",
          "type": "address"
        }
      ],
      "name": "ERC20InvalidReceiver",
      "type": "error"
    },
    {
      "inputs": [
        {
          "internalType": "address",
          "name": "sender",
          "type": "address"
        }
      ],
      "name": "ERC20InvalidSender",
      "type": "error"
    },
    {
      "inputs": [
        {
          "internalType": "address",
          "name": "spender",
          "type": "address"
        }
      ],
      "name": "ERC20InvalidSpender",
      "type": "error"
    },
    {
      "inputs": [],
      "name": "InvalidShortString",
      "type": "error"
    },
    {
      "inputs": [
        {
          "internalType": "string",
          "name": "str",
          "type": "string"
        }
      ],
      "name": "StringTooLong",
      "type": "error"
    },
    {
      "anonymous": false,
      "inputs": [
        {
          "indexed": true,
          "internalType": "address",
          "name": "owner",
          "type": "address"
        },
        {
          "indexed": true,
          "internalType": "address",
          "name": "spender",
          "type": "address"
        },
        {
          "indexed": false,
          "internalType": "uint256",
          "name": "value",
          "type": "uint256"
        }
      ],
      "name": "Approval",
      "type": "event"
    },
    {
      "anonymous": false,
      "inputs": [],
      "name": "EIP712DomainChanged",
      "type": "event"
    },
    {
      "anonymous": false,
      "inputs": [
        {
          "indexed": true,
          "internalType": "bytes32",
          "name": "role",
          "type": "bytes32"
        },
        {
          "indexed": true,
          "internalType": "bytes32",
          "name": "previousAdminRole",
          "type": "bytes32"
        },
        {
          "indexed": true,
          "internalType": "bytes32",
          "name": "newAdminRole",
          "type": "bytes32"
        }
      ],
      "name": "RoleAdminChanged",
      "type": "event"
    },
    {
      "anonymous": false,
      "inputs": [
        {
          "indexed": true,
          "internalType": "bytes32",
          "name": "role",
          "type": "bytes32"
        },
        {
          "indexed": true,
          "internalType": "address",
          "name": "account",
          "type": "address"
        },
        {
          "indexed": true,
          "internalType": "address",
          "name": "sender",
          "type": "address"
        }
      ],
      "name": "RoleGranted",
      "type": "event"
    },
    {
      "anonymous": false,
      "inputs": [
        {
          "indexed": true,
          "internalType": "bytes32",
          "name": "role",
          "type": "bytes32"
        },
        {
          "indexed": true,
          "internalType": "address",
          "name": "account",
          "type": "address"
        },
        {
          "indexed": true,
          "internalType": "address",
          "name": "sender",
          "type": "address"
        }
      ],
      "name": "RoleRevoked",
      "type": "event"
    },
    {
      "anonymous": false,
      "inputs": [
        {
          "indexed": true,
          "internalType": "address",
          "name": "from",
          "type": "address"
        },
        {
          "indexed": true,
          "internalType": "address",
          "name": "to",
          "type": "address"
        },
        {
          "indexed": false,
          "internalType": "uint256",
          "name": "value",
          "type": "uint256"
        }
      ],
      "name": "Transfer",
      "type": "event"
    },
    {
      "inputs": [],
      "name": "BLOXLAND_ROLE",
      "outputs": [
        {
          "internalType": "bytes32",
          "name": "",
          "type": "bytes32"
        }
      ],
      "stateMutability": "view",
      "type": "function"
    },
    {
      "inputs": [],
      "name": "DEFAULT_ADMIN_ROLE",
      "outputs": [
        {
          "internalType": "bytes32",
          "name": "",
          "type": "bytes32"
        }
      ],
      "stateMutability": "view",
      "type": "function"
    },
    {
      "inputs": [
        {
          "internalType": "address",
          "name": "owner",
          "type": "address"
        },
        {
          "internalType": "address",
          "name": "spender",
          "type": "address"
        }
      ],
      "name": "allowance",
      "outputs": [
        {
          "internalType": "uint256",
          "name": "",
          "type": "uint256"
        }
      ],
      "stateMutability": "view",
      "type": "function"
    },
    {
      "inputs": [
        {
          "internalType": "address",
          "name": "spender",
          "type": "address"
        },
        {
          "internalType": "uint256",
          "name": "value",
          "type": "uint256"
        }
      ],
      "name": "approve",
      "outputs": [
        {
          "internalType": "bool",
          "name": "",
          "type": "bool"
        }
      ],
      "stateMutability": "nonpayable",
      "type": "function"
    },
    {
      "inputs": [
        {
          "internalType": "address",
          "name": "account",
          "type": "address"
        }
      ],
      "name": "balanceOf",
      "outputs": [
        {
          "internalType": "uint256",
          "name": "",
          "type": "uint256"
        }
      ],
      "stateMutability": "view",
      "type": "function"
    },
    {
      "inputs": [
        {
          "internalType": "address",
          "name": "player",
          "type": "address"
        },
        {
          "internalType": "uint256",
          "name": "amount",
          "type": "uint256"
        }
      ],
      "name": "consume",
      "outputs": [],
      "stateMutability": "nonpayable",
      "type": "function"
    },
    {
      "inputs": [],
      "name": "decimals",
      "outputs": [
        {
          "internalType": "uint8",
          "name": "",
          "type": "uint8"
        }
      ],
      "stateMutability": "view",
      "type": "function"
    },
    {
      "inputs": [],
      "name": "eip712Domain",
      "outputs": [
        {
          "internalType": "bytes1",
          "name": "fields",
          "type": "bytes1"
        },
        {
          "internalType": "string",
          "name": "name",
          "type": "string"
        },
        {
          "internalType": "string",
          "name": "version",
          "type": "string"
        },
        {
          "internalType": "uint256",
          "name": "chainId",
          "type": "uint256"
        },
        {
          "internalType": "address",
          "name": "verifyingContract",
          "type": "address"
        },
        {
          "internalType": "bytes32",
          "name": "salt",
          "type": "bytes32"
        },
        {
          "internalType": "uint256[]",
          "name": "extensions",
          "type": "uint256[]"
        }
      ],
      "stateMutability": "view",
      "type": "function"
    },
    {
      "inputs": [
        {
          "internalType": "uint256",
          "name": "_amount",
          "type": "uint256"
        },
        {
          "internalType": "bytes",
          "name": "_signature",
          "type": "bytes"
        }
      ],
      "name": "energizeWithSignature",
      "outputs": [],
      "stateMutability": "nonpayable",
      "type": "function"
    },
    {
      "inputs": [
        {
          "internalType": "bytes32",
          "name": "role",
          "type": "bytes32"
        }
      ],
      "name": "getRoleAdmin",
      "outputs": [
        {
          "internalType": "bytes32",
          "name": "",
          "type": "bytes32"
        }
      ],
      "stateMutability": "view",
      "type": "function"
    },
    {
      "inputs": [
        {
          "internalType": "bytes32",
          "name": "role",
          "type": "bytes32"
        },
        {
          "internalType": "address",
          "name": "account",
          "type": "address"
        }
      ],
      "name": "grantRole",
      "outputs": [],
      "stateMutability": "nonpayable",
      "type": "function"
    },
    {
      "inputs": [
        {
          "internalType": "bytes32",
          "name": "role",
          "type": "bytes32"
        },
        {
          "internalType": "address",
          "name": "account",
          "type": "address"
        }
      ],
      "name": "hasRole",
      "outputs": [
        {
          "internalType": "bool",
          "name": "",
          "type": "bool"
        }
      ],
      "stateMutability": "view",
      "type": "function"
    },
    {
      "inputs": [],
      "name": "name",
      "outputs": [
        {
          "internalType": "string",
          "name": "",
          "type": "string"
        }
      ],
      "stateMutability": "view",
      "type": "function"
    },
    {
      "inputs": [
        {
          "internalType": "bytes32",
          "name": "role",
          "type": "bytes32"
        },
        {
          "internalType": "address",
          "name": "callerConfirmation",
          "type": "address"
        }
      ],
      "name": "renounceRole",
      "outputs": [],
      "stateMutability": "nonpayable",
      "type": "function"
    },
    {
      "inputs": [
        {
          "internalType": "bytes32",
          "name": "role",
          "type": "bytes32"
        },
        {
          "internalType": "address",
          "name": "account",
          "type": "address"
        }
      ],
      "name": "revokeRole",
      "outputs": [],
      "stateMutability": "nonpayable",
      "type": "function"
    },
    {
      "inputs": [
        {
          "internalType": "bytes4",
          "name": "interfaceId",
          "type": "bytes4"
        }
      ],
      "name": "supportsInterface",
      "outputs": [
        {
          "internalType": "bool",
          "name": "",
          "type": "bool"
        }
      ],
      "stateMutability": "view",
      "type": "function"
    },
    {
      "inputs": [],
      "name": "symbol",
      "outputs": [
        {
          "internalType": "string",
          "name": "",
          "type": "string"
        }
      ],
      "stateMutability": "view",
      "type": "function"
    },
    {
      "inputs": [],
      "name": "totalSupply",
      "outputs": [
        {
          "internalType": "uint256",
          "name": "",
          "type": "uint256"
        }
      ],
      "stateMutability": "view",
      "type": "function"
    },
    {
      "inputs": [
        {
          "internalType": "address",
          "name": "to",
          "type": "address"
        },
        {
          "internalType": "uint256",
          "name": "value",
          "type": "uint256"
        }
      ],
      "name": "transfer",
      "outputs": [
        {
          "internalType": "bool",
          "name": "",
          "type": "bool"
        }
      ],
      "stateMutability": "nonpayable",
      "type": "function"
    },
    {
      "inputs": [
        {
          "internalType": "address",
          "name": "from",
          "type": "address"
        },
        {
          "internalType": "address",
          "name": "to",
          "type": "address"
        },
        {
          "internalType": "uint256",
          "name": "value",
          "type": "uint256"
        }
      ],
      "name": "transferFrom",
      "outputs": [
        {
          "internalType": "bool",
          "name": "",
          "type": "bool"
        }
      ],
      "stateMutability": "nonpayable",
      "type": "function"
    }
  ],
  "bytecode": "0x610160604052348015610010575f5ffd5b5060405161188038038061188083398101604081905261002f916102dc565b6040518060400160405280601081526020016f426c6f786c616e64456e657267697a6560801b815250604051806040016040528060018152602001603160f81b8152506040518060400160405280600f81526020016e426c6f786c616e6420456e6572677960881b81525060405180604001604052806006815260200165454e4552475960d01b81525081600390816100c891906103a1565b5060046100d582826103a1565b506100e5915083905060056101b9565b610120526100f48160066101b9565b61014052815160208084019190912060e052815190820120610100524660a05261018060e05161010051604080517f8b73c3c69bb8fe3d512ecc4cf759cc79239f7b179b0ffacaa9a75d522b39400f60208201529081019290925260608201524660808201523060a08201525f9060c00160405160208183030381529060405280519060200120905090565b60805250503060c0526101935f336101eb565b50600880546001600160a01b0319166001600160a01b03929092169190911790556104b3565b5f6020835110156101d4576101cd83610296565b90506101e5565b816101df84826103a1565b5060ff90505b92915050565b5f8281526007602090815260408083206001600160a01b038516845290915281205460ff1661028f575f8381526007602090815260408083206001600160a01b03861684529091529020805460ff191660011790556102473390565b6001600160a01b0316826001600160a01b0316847f2f8788117e7eff1d82e926ec794901d17c78024a50270940304540a733656f0d60405160405180910390a45060016101e5565b505f6101e5565b5f5f829050601f815111156102c9578260405163305a27a960e01b81526004016102c0919061045b565b60405180910390fd5b80516102d482610490565b179392505050565b5f602082840312156102ec575f5ffd5b81516001600160a01b0381168114610302575f5ffd5b9392505050565b634e487b7160e01b5f52604160045260245ffd5b600181811c9082168061033157607f821691505b60208210810361034f57634e487b7160e01b5f52602260045260245ffd5b50919050565b601f82111561039c57805f5260205f20601f840160051c8101602085101561037a5750805b601f840160051c820191505b81811015610399575f8155600101610386565b50505b505050565b81516001600160401b038111156103ba576103ba610309565b6103ce816103c8845461031d565b84610355565b6020601f821160018114610400575f83156103e95750848201515b5f19600385901b1c1916600184901b178455610399565b5f84815260208120601f198516915b8281101561042f578785015182556020948501946001909201910161040f565b508482101561044c57868401515f19600387901b60f8161c191681555b50505050600190811b01905550565b602081525f82518060208401528060208501604085015e5f604082850101526040601f19601f83011684010191505092915050565b8051602080830151919081101561034f575f1960209190910360031b1b16919050565b60805160a05160c05160e05161010051610120516101405161137c6105045f395f61092001525f6108ee01525f610e4501525f610e1d01525f610d7801525f610da201525f610dcc015261137c5ff3fe608060405234801561000f575f5ffd5b5060043610610127575f3560e01c8063516a42ad116100a95780639b40297c1161006e5780639b40297c1461027d578063a217fddf146102a4578063a9059cbb146102ab578063d547741f146102be578063dd62ed3e146102d1575f5ffd5b8063516a42ad1461020c57806370a082311461021f57806384b0196e1461024757806391d148541461026257806395d89b4114610275575f5ffd5b806323b872dd116100ef57806323b872dd146101a2578063248a9ca3146101b55780632f2ff15d146101d7578063313ce567146101ea57806336568abe146101f9575f5ffd5b806301ffc9a71461012b57806306fdde0314610153578063095ea7b31461016857806318160ddd1461017b578063224b5c721461018d575b5f5ffd5b61013e610139366004610fc1565b610309565b60405190151581526020015b60405180910390f35b61015b61033f565b60405161014a9190611016565b61013e610176366004611043565b6103cf565b6002545b60405190815260200161014a565b6101a061019b366004611043565b6103e6565b005b61013e6101b036600461106b565b61041f565b61017f6101c33660046110a5565b5f9081526007602052604090206001015490565b6101a06101e53660046110bc565b610444565b6040516012815260200161014a565b6101a06102073660046110bc565b61046e565b6101a061021a3660046110fa565b6104a1565b61017f61022d3660046111b7565b6001600160a01b03165f9081526020819052604090205490565b61024f610514565b60405161014a97969594939291906111d0565b61013e6102703660046110bc565b610556565b61015b610580565b61017f7facb12baecb532036b62c8ab65beb6bf1e4d792ee2ab892daf549a2fc03eea2a581565b61017f5f81565b61013e6102b9366004611043565b61058f565b6101a06102cc3660046110bc565b61059c565b61017f6102df366004611266565b6001600160a01b039182165f90815260016020908152604080832093909416825291909152205490565b5f6001600160e01b03198216637965db0b60e01b148061033957506301ffc9a760e01b6001600160e01b03198316145b92915050565b60606003805461034e9061128e565b80601f016020809104026020016040519081016040528092919081815260200182805461037a9061128e565b80156103c55780601f1061039c576101008083540402835291602001916103c5565b820191905f5260205f20905b8154815290600101906020018083116103a857829003601f168201915b5050505050905090565b5f336103dc8185856105c0565b5060019392505050565b7facb12baecb532036b62c8ab65beb6bf1e4d792ee2ab892daf549a2fc03eea2a5610410816105cd565b61041a83836105da565b505050565b5f3361042c85828561060e565b610437858585610684565b60019150505b9392505050565b5f8281526007602052604090206001015461045e816105cd565b61046883836106e1565b50505050565b6001600160a01b03811633146104975760405163334bd91960e11b815260040160405180910390fd5b61041a8282610772565b6008546104c1906001600160a01b03166104bb33856107dd565b83610843565b6105065760405162461bcd60e51b8152602060048201526011602482015270496e76616c6964207369676e617475726560781b60448201526064015b60405180910390fd5b61051033836108b3565b5050565b5f6060805f5f5f60606105256108e7565b61052d610919565b604080515f80825260208201909252600f60f81b9b939a50919850469750309650945092509050565b5f9182526007602090815260408084206001600160a01b0393909316845291905290205460ff1690565b60606004805461034e9061128e565b5f336103dc818585610684565b5f828152600760205260409020600101546105b6816105cd565b6104688383610772565b61041a8383836001610946565b6105d78133610a18565b50565b6001600160a01b03821661060357604051634b637e8f60e11b81525f60048201526024016104fd565b610510825f83610a51565b6001600160a01b038381165f908152600160209081526040808320938616835292905220545f19811015610468578181101561067657604051637dc7a0d960e11b81526001600160a01b038416600482015260248101829052604481018390526064016104fd565b61046884848484035f610946565b6001600160a01b0383166106ad57604051634b637e8f60e11b81525f60048201526024016104fd565b6001600160a01b0382166106d65760405163ec442f0560e01b81525f60048201526024016104fd565b61041a838383610a51565b5f6106ec8383610556565b61076b575f8381526007602090815260408083206001600160a01b03861684529091529020805460ff191660011790556107233390565b6001600160a01b0316826001600160a01b0316847f2f8788117e7eff1d82e926ec794901d17c78024a50270940304540a733656f0d60405160405180910390a4506001610339565b505f610339565b5f61077d8383610556565b1561076b575f8381526007602090815260408083206001600160a01b0386168085529252808320805460ff1916905551339286917ff6391f5c32d9c69d2a47ea670b442974b53935d1edc7fd64eb21e047a839171b9190a4506001610339565b604080517f3c6757d2312c23114c4b2b3e3a2887056c5f41ce4d7a3f2be816a73297fa9efd60208201526001600160a01b03841691810191909152606081018290525f9061043d9060800160405160208183030381529060405280519060200120610b77565b5f836001600160a01b03163b5f036108a1575f5f6108618585610ba3565b5090925090505f81600381111561087a5761087a6112c6565b1480156108985750856001600160a01b0316826001600160a01b0316145b9250505061043d565b6108ac848484610bec565b905061043d565b6001600160a01b0382166108dc5760405163ec442f0560e01b81525f60048201526024016104fd565b6105105f8383610a51565b60606109147f00000000000000000000000000000000000000000000000000000000000000006005610cc3565b905090565b60606109147f00000000000000000000000000000000000000000000000000000000000000006006610cc3565b6001600160a01b03841661096f5760405163e602df0560e01b81525f60048201526024016104fd565b6001600160a01b03831661099857604051634a1406b160e11b81525f60048201526024016104fd565b6001600160a01b038085165f908152600160209081526040808320938716835292905220829055801561046857826001600160a01b0316846001600160a01b03167f8c5be1e5ebec7d5bd14f71427d1e84f3dd0314c0f7b2291e5b200ac8c7c3b92584604051610a0a91815260200190565b60405180910390a350505050565b610a228282610556565b6105105760405163e2517d3f60e01b81526001600160a01b0382166004820152602481018390526044016104fd565b6001600160a01b038316610a7b578060025f828254610a7091906112da565b90915550610aeb9050565b6001600160a01b0383165f9081526020819052604090205481811015610acd5760405163391434e360e21b81526001600160a01b038516600482015260248101829052604481018390526064016104fd565b6001600160a01b0384165f9081526020819052604090209082900390555b6001600160a01b038216610b0757600280548290039055610b25565b6001600160a01b0382165f9081526020819052604090208054820190555b816001600160a01b0316836001600160a01b03167fddf252ad1be2c89b69c2b068fc378daa952ba7f163c4a11628f55a4df523b3ef83604051610b6a91815260200190565b60405180910390a3505050565b5f610339610b83610d6c565b8360405161190160f01b8152600281019290925260228201526042902090565b5f5f5f8351604103610bda576020840151604085015160608601515f1a610bcc88828585610e95565b955095509550505050610be5565b505081515f91506002905b9250925092565b5f5f5f856001600160a01b03168585604051602401610c0c9291906112f9565b60408051601f198184030181529181526020820180516001600160e01b0316630b135d3f60e11b17905251610c419190611319565b5f60405180830381855afa9150503d805f8114610c79576040519150601f19603f3d011682016040523d82523d5f602084013e610c7e565b606091505b5091509150818015610c9257506020815110155b8015610cb957508051630b135d3f60e11b90610cb7908301602090810190840161132f565b145b9695505050505050565b606060ff8314610cdd57610cd683610f5d565b9050610339565b818054610ce99061128e565b80601f0160208091040260200160405190810160405280929190818152602001828054610d159061128e565b8015610d605780601f10610d3757610100808354040283529160200191610d60565b820191905f5260205f20905b815481529060010190602001808311610d4357829003601f168201915b50505050509050610339565b5f306001600160a01b037f000000000000000000000000000000000000000000000000000000000000000016148015610dc457507f000000000000000000000000000000000000000000000000000000000000000046145b15610dee57507f000000000000000000000000000000000000000000000000000000000000000090565b610914604080517f8b73c3c69bb8fe3d512ecc4cf759cc79239f7b179b0ffacaa9a75d522b39400f60208201527f0000000000000000000000000000000000000000000000000000000000000000918101919091527f000000000000000000000000000000000000000000000000000000000000000060608201524660808201523060a08201525f9060c00160405160208183030381529060405280519060200120905090565b5f80807f7fffffffffffffffffffffffffffffff5d576e7357a4501ddfe92f46681b20a0841115610ece57505f91506003905082610f53565b604080515f808252602082018084528a905260ff891692820192909252606081018790526080810186905260019060a0016020604051602081039080840390855afa158015610f1f573d5f5f3e3d5ffd5b5050604051601f1901519150506001600160a01b038116610f4a57505f925060019150829050610f53565b92505f91508190505b9450945094915050565b60605f610f6983610f9a565b6040805160208082528183019092529192505f91906020820181803683375050509182525060208101929092525090565b5f60ff8216601f81111561033957604051632cd44ac360e21b815260040160405180910390fd5b5f60208284031215610fd1575f5ffd5b81356001600160e01b03198116811461043d575f5ffd5b5f81518084528060208401602086015e5f602082860101526020601f19601f83011685010191505092915050565b602081525f61043d6020830184610fe8565b80356001600160a01b038116811461103e575f5ffd5b919050565b5f5f60408385031215611054575f5ffd5b61105d83611028565b946020939093013593505050565b5f5f5f6060848603121561107d575f5ffd5b61108684611028565b925061109460208501611028565b929592945050506040919091013590565b5f602082840312156110b5575f5ffd5b5035919050565b5f5f604083850312156110cd575f5ffd5b823591506110dd60208401611028565b90509250929050565b634e487b7160e01b5f52604160045260245ffd5b5f5f6040838503121561110b575f5ffd5b82359150602083013567ffffffffffffffff811115611128575f5ffd5b8301601f81018513611138575f5ffd5b803567ffffffffffffffff811115611152576111526110e6565b604051601f8201601f19908116603f0116810167ffffffffffffffff81118282101715611181576111816110e6565b604052818152828201602001871015611198575f5ffd5b816020840160208301375f602083830101528093505050509250929050565b5f602082840312156111c7575f5ffd5b61043d82611028565b60ff60f81b8816815260e060208201525f6111ee60e0830189610fe8565b82810360408401526112008189610fe8565b606084018890526001600160a01b038716608085015260a0840186905283810360c0850152845180825260208087019350909101905f5b81811015611255578351835260209384019390920191600101611237565b50909b9a5050505050505050505050565b5f5f60408385031215611277575f5ffd5b61128083611028565b91506110dd60208401611028565b600181811c908216806112a257607f821691505b6020821081036112c057634e487b7160e01b5f52602260045260245ffd5b50919050565b634e487b7160e01b5f52602160045260245ffd5b8082018082111561033957634e487b7160e01b5f52601160045260245ffd5b828152604060208201525f6113116040830184610fe8565b949350505050565b5f82518060208501845e5f920191825250919050565b5f6020828403121561133f575f5ffd5b505191905056fea26469706673582212201fcc6dfd08616de222de69b12a47c47bedab6aeea7566df50ac1df3185b979f664736f6c634300081c0033",
  "linkReferences": {},
  "deployedLinkReferences": {},
  "immutableReferences": {
    "3615": [
      {
        "length": 32,
        "start": 3532
      }
    ],
    "3617": [
      {
        "length": 32,
        "start": 3490
      }
    ],
    "3619": [
      {
        "length": 32,
        "start": 3448
      }
    ],
    "3621": [
      {
        "length": 32,
        "start": 3613
      }
    ],
    "3623": [
      {
        "length": 32,
        "start": 3653
      }
    ],
    "3626": [
      {
        "length": 32,
        "start": 2286
      }
    ],
    "3629": [
      {
        "length": 32,
        "start": 2336
      }
    ]
  },
  "inputSourceName": "project/contracts/EnergyToken.sol",
  "buildInfoId": "solc-0_8_28-a4f750da0820f8df09c66471a8e3cc45c6304d46"
}