{
  "_format": "hh3-artifact-1",
  "contractName": "Bloxland",
  "sourceName": "contracts/Bloxland.sol",
  "abi": [
    {
      "inputs": [
        {
          "internalType": "address",
          "name": "_oracle",
          "type": "address"
        },
        {
          "internalType": "address",
          "name": "_entropy",
          "type": "address"
        },
        {
          "internalType": "address",
          "name": "_signer",
          "type": "address"
        },
        {
          "internalType": "address",
          "name": "_energy",
          "type": "address"
        }
      ],
      "stateMutability": "nonpayable",
      "type": "constructor"
    },
    {
      "inputs": [],
      "name": "InvalidShortString",
      "type": "error"
    },
    {
      "inputs": [
        {
          "internalType": "string",
          "name": "str",
          "type": "string"
        }
      ],
      "name": "StringTooLong",
      "type": "error"
    },
    {
      "anonymous": false,
      "inputs": [],
      "name": "EIP712DomainChanged",
      "type": "event"
    },
    {
      "anonymous": false,
      "inputs": [
        {
          "indexed": false,
          "internalType": "uint256",
          "name": "playId",
          "type": "uint256"
        },
        {
          "indexed": false,
          "internalType": "int8",
          "name": "result",
          "type": "int8"
        }
      ],
      "name": "PlayEnded",
      "type": "event"
    },
    {
      "anonymous": false,
      "inputs": [
        {
          "indexed": false,
          "internalType": "uint256",
          "name": "playId",
          "type": "uint256"
        }
      ],
      "name": "PlayStarted",
      "type": "event"
    },
    {
      "inputs": [],
      "name": "GAME_BTC_GT",
      "outputs": [
        {
          "internalType": "uint256",
          "name": "",
          "type": "uint256"
        }
      ],
      "stateMutability": "view",
      "type": "function"
    },
    {
      "inputs": [],
      "name": "GAME_RANDOM_DICE",
      "outputs": [
        {
          "internalType": "uint256",
          "name": "",
          "type": "uint256"
        }
      ],
      "stateMutability": "view",
      "type": "function"
    },
    {
      "inputs": [],
      "name": "GAME_RANDOM_EVEN",
      "outputs": [
        {
          "internalType": "uint256",
          "name": "",
          "type": "uint256"
        }
      ],
      "stateMutability": "view",
      "type": "function"
    },
    {
      "inputs": [],
      "name": "GAME_RANDOM_OVER",
      "outputs": [
        {
          "internalType": "uint256",
          "name": "",
          "type": "uint256"
        }
      ],
      "stateMutability": "view",
      "type": "function"
    },
    {
      "inputs": [
        {
          "internalType": "uint256",
          "name": "_playId",
          "type": "uint256"
        },
        {
          "internalType": "int64",
          "name": "_answer",
          "type": "int64"
        }
      ],
      "name": "answer",
      "outputs": [],
      "stateMutability": "nonpayable",
      "type": "function"
    },
    {
      "inputs": [
        {
          "internalType": "uint256",
          "name": "_playId",
          "type": "uint256"
        },
        {
          "internalType": "int64",
          "name": "_answer",
          "type": "int64"
        },
        {
          "internalType": "int8",
          "name": "_result",
          "type": "int8"
        },
        {
          "internalType": "bytes",
          "name": "_signature",
          "type": "bytes"
        }
      ],
      "name": "answerWithSignature",
      "outputs": [],
      "stateMutability": "nonpayable",
      "type": "function"
    },
    {
      "inputs": [],
      "name": "eip712Domain",
      "outputs": [
        {
          "internalType": "bytes1",
          "name": "fields",
          "type": "bytes1"
        },
        {
          "internalType": "string",
          "name": "name",
          "type": "string"
        },
        {
          "internalType": "string",
          "name": "version",
          "type": "string"
        },
        {
          "internalType": "uint256",
          "name": "chainId",
          "type": "uint256"
        },
        {
          "internalType": "address",
          "name": "verifyingContract",
          "type": "address"
        },
        {
          "internalType": "bytes32",
          "name": "salt",
          "type": "bytes32"
        },
        {
          "internalType": "uint256[]",
          "name": "extensions",
          "type": "uint256[]"
        }
      ],
      "stateMutability": "view",
      "type": "function"
    },
    {
      "inputs": [
        {
          "internalType": "uint256",
          "name": "",
          "type": "uint256"
        }
      ],
      "name": "games",
      "outputs": [
        {
          "internalType": "string",
          "name": "name",
          "type": "string"
        },
        {
          "internalType": "bool",
          "name": "random",
          "type": "bool"
        }
      ],
      "stateMutability": "view",
      "type": "function"
    },
    {
      "inputs": [
        {
          "internalType": "uint256",
          "name": "_gameId",
          "type": "uint256"
        },
        {
          "internalType": "uint256",
          "name": "_energyAmount",
          "type": "uint256"
        }
      ],
      "name": "play",
      "outputs": [
        {
          "internalType": "uint256",
          "name": "",
          "type": "uint256"
        }
      ],
      "stateMutability": "nonpayable",
      "type": "function"
    },
    {
      "inputs": [
        {
          "internalType": "uint256",
          "name": "",
          "type": "uint256"
        }
      ],
      "name": "plays",
      "outputs": [
        {
          "internalType": "uint256",
          "name": "gameId",
          "type": "uint256"
        },
        {
          "internalType": "address",
          "name": "player",
          "type": "address"
        },
        {
          "internalType": "uint256",
          "name": "energyAmount",
          "type": "uint256"
        },
        {
          "internalType": "bytes32",
          "name": "randomNumber",
          "type": "bytes32"
        },
        {
          "internalType": "int8",
          "name": "result",
          "type": "int8"
        }
      ],
      "stateMutability": "view",
      "type": "function"
    },
    {
      "stateMutability": "payable",
      "type": "receive"
    }
  ],
  "bytecode": "0x6101606040526001600855348015610015575f5ffd5b5060405161211238038061211283398101604081905261003491610431565b604080518082018252600c81526b426c6f786c616e64506c617960a01b602080830191909152825180840190935260018352603160f81b908301529061007a825f61039e565b6101205261008981600161039e565b61014052815160208084019190912060e052815190820120610100524660a05261011560e05161010051604080517f8b73c3c69bb8fe3d512ecc4cf759cc79239f7b179b0ffacaa9a75d522b39400f60208201529081019290925260608201524660808201523060a08201525f9060c00160405160208183030381529060405280519060200120905090565b60809081523060c052600280546001600160a01b038981166001600160a01b03199283161790925560038054898416908316179055600480548884169083161790556005805492871692909116919091179055604080518083018252600a818301908152694469636520477565737360b01b60608084019190915290825260016020808401829052845180870186526011818701908152704576656e204e756d62657220477565737360781b8286015281528082018390528551808801875260108188019081526f55707065722048616c6620477565737360801b82870152815280830184905286519788018752600f9688019687526e42544320507269636520477565737360881b948801949094529486525f8682018190529190915260069052815191955091935090919084907f3e5fec24aa4dc4e5aee2e025e51e1392c72a2500577559fae9665c6d52bd6a31908190610272908261051a565b50602091820151600191909101805460ff191691151591909117905560025f5260069052825183907f8819ef417987f8ae7a81f42cdfb18815282fe989326fbff903d13cf0e03ace299081906102c8908261051a565b50602091820151600191909101805460ff191691151591909117905560035f5260069052815182907f75f96ab15d697e93042dc45b5c896c4b27e89bb6eaf39475c5c371cb2513f7d290819061031e908261051a565b50602091820151600191909101805460ff191691151591909117905560055f5260069052805181907fbfd358e93f18da3ed276c3afdbdba00b8f0b6008a03476a6a86bd6320ee6938b908190610374908261051a565b50602091909101516001909101805460ff19169115159190911790555061062c9650505050505050565b5f6020835110156103b9576103b2836103d0565b90506103ca565b816103c4848261051a565b5060ff90505b92915050565b5f5f829050601f81511115610403578260405163305a27a960e01b81526004016103fa91906105d4565b60405180910390fd5b805161040e82610609565b179392505050565b80516001600160a01b038116811461042c575f5ffd5b919050565b5f5f5f5f60808587031215610444575f5ffd5b61044d85610416565b935061045b60208601610416565b925061046960408601610416565b915061047760608601610416565b905092959194509250565b634e487b7160e01b5f52604160045260245ffd5b600181811c908216806104aa57607f821691505b6020821081036104c857634e487b7160e01b5f52602260045260245ffd5b50919050565b601f82111561051557805f5260205f20601f840160051c810160208510156104f35750805b601f840160051c820191505b81811015610512575f81556001016104ff565b50505b505050565b81516001600160401b0381111561053357610533610482565b610547816105418454610496565b846104ce565b6020601f821160018114610579575f83156105625750848201515b5f19600385901b1c1916600184901b178455610512565b5f84815260208120601f198516915b828110156105a85787850151825560209485019460019092019101610588565b50848210156105c557868401515f19600387901b60f8161c191681555b50505050600190811b01905550565b602081525f82518060208401528060208501604085015e5f604082850101526040601f19601f83011684010191505092915050565b805160208083015191908110156104c8575f1960209190910360031b1b16919050565b60805160a05160c05160e051610100516101205161014051611a9561067d5f395f6110e201525f6110b101525f61140c01525f6113e401525f61133f01525f61136901525f6113930152611a955ff3fe608060405260043610610092575f3560e01c806384b0196e1161005757806384b0196e146101c6578063ad3c14e3146101ed578063d3814f0914610201578063d46556d814610215578063f93c4b1a14610229575f5ffd5b8063117a5b901461009d57806345d4682a146100d35780634fc2cbdb14610159578063708367721461017a5780637bc49a9514610199575f5ffd5b3661009957005b5f5ffd5b3480156100a8575f5ffd5b506100bc6100b7366004611588565b61023d565b6040516100ca9291906115cd565b60405180910390f35b3480156100de575f5ffd5b506101276100ed366004611588565b60076020525f90815260408120805460018201546002830154600384015460049094015492946001600160a01b0390921693909290910b85565b604080519586526001600160a01b0390941660208601529284019190915260608301525f0b608082015260a0016100ca565b348015610164575f5ffd5b50610178610173366004611645565b6102e1565b005b348015610185575f5ffd5b5061017861019436600461170a565b610482565b3480156101a4575f5ffd5b506101b86101b3366004611738565b6106cc565b6040519081526020016100ca565b3480156101d1575f5ffd5b506101da610b82565b6040516100ca9796959493929190611758565b3480156101f8575f5ffd5b506101b8600381565b34801561020c575f5ffd5b506101b8600181565b348015610220575f5ffd5b506101b8600281565b348015610234575f5ffd5b506101b8600581565b60066020525f9081526040902080548190610257906117ee565b80601f0160208091040260200160405190810160405280929190818152602001828054610283906117ee565b80156102ce5780601f106102a5576101008083540402835291602001916102ce565b820191905f5260205f20905b8154815290600101906020018083116102b157829003601f168201915b5050506001909301549192505060ff1682565b5f848152600760205260409020600101546001600160a01b031661033d5760405162461bcd60e51b815260206004820152600e60248201526d141b185e481b9bdd08199bdd5b9960921b60448201526064015b60405180910390fd5b8260070b5f036103805760405162461bcd60e51b815260206004820152600e60248201526d24b73b30b634b21030b739bbb2b960911b6044820152606401610334565b815f0b5f191415806103955750815f0b600114155b156103d35760405162461bcd60e51b815260206004820152600e60248201526d125b9d985b1a59081c995cdd5b1d60921b6044820152606401610334565b6004546103f4906001600160a01b03166103ee863387610bc4565b83610c3b565b6104345760405162461bcd60e51b8152602060048201526011602482015270496e76616c6964207369676e617475726560781b6044820152606401610334565b5f848152600760209081526040808320600401805460ff191660ff871617905580518781529285900b918301919091525f516020611a405f395f51905f52910160405180910390a150505050565b8060070b5f036104c55760405162461bcd60e51b815260206004820152600e60248201526d24b73b30b634b21030b739bbb2b960911b6044820152606401610334565b5f828152600760209081526040808320815160a0810183528154815260018201546001600160a01b0316938101849052600282015492810192909252600381015460608301526004015490920b60808301526105545760405162461bcd60e51b815260206004820152600e60248201526d141b185e481b9bdd08199bdd5b9960921b6044820152606401610334565b80515f90815260066020526040808220815180830190925280548290829061057b906117ee565b80601f01602080910402602001604051908101604052809291908181526020018280546105a7906117ee565b80156105f25780601f106105c9576101008083540402835291602001916105f2565b820191905f5260205f20905b8154815290600101906020018083116105d557829003601f168201915b50505091835250506001919091015460ff1615156020909101528051519091505f036106305760405162461bcd60e51b815260040161033490611826565b8060200151156106bb575f848152600760205260409020600301546106975760405162461bcd60e51b815260206004820152601860248201527f5761697420756e74696c2072616e646f6d206e756d62657200000000000000006044820152606401610334565b5f848152600760205260409020600301546106b6908390869086610cab565b6106c6565b6106c6828585610f6c565b50505050565b6005546040516370a0823160e01b81523360048201525f9183916001600160a01b03909116906370a0823190602401602060405180830381865afa158015610716573d5f5f3e3d5ffd5b505050506040513d601f19601f8201168201806040525081019061073a919061184e565b101561077c5760405162461bcd60e51b81526020600482015260116024820152704e6f7420656e6f75676820656e6572677960781b6044820152606401610334565b600554604051631125ae3960e11b8152336004820152602481018490526001600160a01b039091169063224b5c72906044015f604051808303815f87803b1580156107c5575f5ffd5b505af11580156107d7573d5f5f3e3d5ffd5b505050505f6040518060a00160405280858152602001336001600160a01b031681526020018481526020015f81526020015f5f0b81525090505f60065f8681526020019081526020015f206040518060400160405290815f8201805461083c906117ee565b80601f0160208091040260200160405190810160405280929190818152602001828054610868906117ee565b80156108b35780601f1061088a576101008083540402835291602001916108b3565b820191905f5260205f20905b81548152906001019060200180831161089657829003601f168201915b50505091835250506001919091015460ff1615156020909101528051519091505f036108f15760405162461bcd60e51b815260040161033490611826565b806020015115610aab5760035460405163ca1642e160e01b815262bebc2060048201819052915f916001600160a01b039091169063ca1642e190602401602060405180830381865afa158015610949573d5f5f3e3d5ffd5b505050506040513d601f19601f8201168201806040525081019061096d9190611865565b600354604051630bed189f60e01b815263ffffffff851660048201526001600160801b039290921692505f916001600160a01b0390911690630bed189f90849060240160206040518083038185885af11580156109cc573d5f5f3e3d5ffd5b50505050506040513d601f19601f820116820180604052508101906109f191906118a6565b6001600160401b0381165f8181526007602090815260409182902089518155898201516001820180546001600160a01b0319166001600160a01b0390921691909117905589830151600282015560608a0151600382015560808a01516004909101805460ff191660ff90921691909117905590519182529192507f75ecbbcf5acf9fc04b7b54b9c241f8bb19d1fdd64aba93c967ea036bcf2d1394910160405180910390a16001600160401b03169450610b7c9350505050565b5f6008546001600160401b03610ac191906118d3565b600880549192505f610ad2836118e6565b90915550505f8181526007602090815260409182902085518155858201516001820180546001600160a01b0319166001600160a01b039092169190911790558583015160028201556060860151600382015560808601516004909101805460ff191660ff90921691909117905590518281527f75ecbbcf5acf9fc04b7b54b9c241f8bb19d1fdd64aba93c967ea036bcf2d1394910160405180910390a19250610b7c915050565b50505b92915050565b5f6060805f5f5f6060610b936110aa565b610b9b6110db565b604080515f80825260208201909252600f60f81b9b939a50919850469750309650945092509050565b604080517fff541fcd5c1ada8f8c1a05936cbdb0cf8d6081b06dd4e005833e2c3ad5b14b5960208201529081018490526001600160a01b0383166060820152600782900b60808201525f90610c319060a00160405160208183030381529060405280519060200120611108565b90505b9392505050565b5f836001600160a01b03163b5f03610c99575f5f610c598585611134565b5090925090505f816003811115610c7257610c726118fe565b148015610c905750856001600160a01b0316826001600160a01b0316145b92505050610c34565b610ca484848461117d565b9050610c34565b83515f1901610d75575f610cc28360016006611254565b90508160070b8103610d21576001600160401b0384165f81815260076020908152604091829020600401805460ff191660019081179091558251938452908301525f516020611a405f395f51905f5291015b60405180910390a1610d6f565b6001600160401b0384165f81815260076020908152604091829020600401805460ff191660ff17905581519283525f19908301525f516020611a405f395f51905f5291015b60405180910390a15b506106c6565b835160011901610edc575f610d8d8360016064611254565b9050610d9a600282611926565b5f03610e3e578160070b600103610df5576001600160401b0384165f81815260076020908152604091829020600401805460ff191660019081179091558251938452908301525f516020611a405f395f51905f529101610d14565b6001600160401b0384165f81815260076020908152604091829020600401805460ff191660ff17905581519283525f19908301525f516020611a405f395f51905f529101610d14565b8160070b600103610e92576001600160401b0384165f81815260076020908152604091829020600401805460ff191660ff17905581519283525f19908301525f516020611a405f395f51905f529101610d14565b6001600160401b0384165f81815260076020908152604091829020600401805460ff191660019081179091558251938452908301525f516020611a405f395f51905f529101610d66565b835160021901610f54575f610ef48360016064611254565b90506032811315610e3e578160070b600103610df5576001600160401b0384165f81815260076020908152604091829020600401805460ff191660019081179091558251938452908301525f516020611a405f395f51905f529101610d14565b60405162461bcd60e51b815260040161033490611826565b60025460405163052571af60e51b81527fe62df6c8b4a85fe1a67db44dc12de5db330f7ac66b72dc658afedf0f4a415b436004820152603c60248201525f916001600160a01b03169063a4ae35e090604401608060405180830381865afa158015610fd9573d5f5f3e3d5ffd5b505050506040513d601f19601f82011682018060405250810190610ffd9190611939565b845190915060041901610f54578160070b815f015160070b1315611064575f83815260076020908152604091829020600401805460ff191660019081179091558251868152918201525f516020611a405f395f51905f5291015b60405180910390a16106c6565b5f8381526007602052604090819020600401805460ff191660ff179055515f516020611a405f395f51905f52906110579085905f19909182525f0b602082015260400190565b60606110d67f00000000000000000000000000000000000000000000000000000000000000005f61128a565b905090565b60606110d67f0000000000000000000000000000000000000000000000000000000000000000600161128a565b5f610b7c611114611333565b8360405161190160f01b8152600281019290925260228201526042902090565b5f5f5f835160410361116b576020840151604085015160608601515f1a61115d8882858561145c565b955095509550505050611176565b505081515f91506002905b9250925092565b5f5f5f856001600160a01b0316858560405160240161119d9291906119b9565b60408051601f198184030181529181526020820180516001600160e01b0316630b135d3f60e11b179052516111d291906119d1565b5f60405180830381855afa9150503d805f811461120a576040519150601f19603f3d011682016040523d82523d5f602084013e61120f565b606091505b509150915081801561122357506020815110155b801561124a57508051630b135d3f60e11b90611248908301602090810190840161184e565b145b9695505050505050565b5f8061126084846119e7565b61126b906001611a0d565b90506112778186611a2c565b6112819085611a0d565b95945050505050565b606060ff83146112a45761129d83611524565b9050610b7c565b8180546112b0906117ee565b80601f01602080910402602001604051908101604052809291908181526020018280546112dc906117ee565b80156113275780601f106112fe57610100808354040283529160200191611327565b820191905f5260205f20905b81548152906001019060200180831161130a57829003601f168201915b50505050509050610b7c565b5f306001600160a01b037f00000000000000000000000000000000000000000000000000000000000000001614801561138b57507f000000000000000000000000000000000000000000000000000000000000000046145b156113b557507f000000000000000000000000000000000000000000000000000000000000000090565b6110d6604080517f8b73c3c69bb8fe3d512ecc4cf759cc79239f7b179b0ffacaa9a75d522b39400f60208201527f0000000000000000000000000000000000000000000000000000000000000000918101919091527f000000000000000000000000000000000000000000000000000000000000000060608201524660808201523060a08201525f9060c00160405160208183030381529060405280519060200120905090565b5f80807f7fffffffffffffffffffffffffffffff5d576e7357a4501ddfe92f46681b20a084111561149557505f9150600390508261151a565b604080515f808252602082018084528a905260ff891692820192909252606081018790526080810186905260019060a0016020604051602081039080840390855afa1580156114e6573d5f5f3e3d5ffd5b5050604051601f1901519150506001600160a01b03811661151157505f92506001915082905061151a565b92505f91508190505b9450945094915050565b60605f61153083611561565b6040805160208082528183019092529192505f91906020820181803683375050509182525060208101929092525090565b5f60ff8216601f811115610b7c57604051632cd44ac360e21b815260040160405180910390fd5b5f60208284031215611598575f5ffd5b5035919050565b5f81518084528060208401602086015e5f602082860101526020601f19601f83011685010191505092915050565b604081525f6115df604083018561159f565b905082151560208301529392505050565b8060070b81146115fe575f5ffd5b50565b634e487b7160e01b5f52604160045260245ffd5b604051601f8201601f191681016001600160401b038111828210171561163d5761163d611601565b604052919050565b5f5f5f5f60808587031215611658575f5ffd5b84359350602085013561166a816115f0565b925060408501355f81900b811461167f575f5ffd5b915060608501356001600160401b03811115611699575f5ffd5b8501601f810187136116a9575f5ffd5b80356001600160401b038111156116c2576116c2611601565b6116d5601f8201601f1916602001611615565b8181528860208385010111156116e9575f5ffd5b816020840160208301375f6020838301015280935050505092959194509250565b5f5f6040838503121561171b575f5ffd5b82359150602083013561172d816115f0565b809150509250929050565b5f5f60408385031215611749575f5ffd5b50508035926020909101359150565b60ff60f81b8816815260e060208201525f61177660e083018961159f565b8281036040840152611788818961159f565b606084018890526001600160a01b038716608085015260a0840186905283810360c0850152845180825260208087019350909101905f5b818110156117dd5783518352602093840193909201916001016117bf565b50909b9a5050505050505050505050565b600181811c9082168061180257607f821691505b60208210810361182057634e487b7160e01b5f52602260045260245ffd5b50919050565b6020808252600e908201526d11d85b59481b9bdd08199bdd5b9960921b604082015260600190565b5f6020828403121561185e575f5ffd5b5051919050565b5f60208284031215611875575f5ffd5b81516001600160801b0381168114610c34575f5ffd5b80516001600160401b03811681146118a1575f5ffd5b919050565b5f602082840312156118b6575f5ffd5b610c348261188b565b634e487b7160e01b5f52601160045260245ffd5b80820180821115610b7c57610b7c6118bf565b5f600182016118f7576118f76118bf565b5060010190565b634e487b7160e01b5f52602160045260245ffd5b634e487b7160e01b5f52601260045260245ffd5b5f8261193457611934611912565b500790565b5f608082840312801561194a575f5ffd5b50604051608081016001600160401b038111828210171561196d5761196d611601565b604052825161197b816115f0565b81526119896020840161188b565b602082015260408301518060030b81146119a1575f5ffd5b60408201526060928301519281019290925250919050565b828152604060208201525f610c31604083018461159f565b5f82518060208501845e5f920191825250919050565b8181035f831280158383131683831282161715611a0657611a066118bf565b5092915050565b8082018281125f831280158216821582161715610b7957610b796118bf565b5f82611a3a57611a3a611912565b50069056fef8c8964548eadb43e47c38099a7eef03cc4b3c188b3ac01b0b7a9c6f20283d3ea2646970667358221220eb29b9fd3d52a87af1e881e9a5c34cbc06ffb305bc0861c88c9e833c53b3289564736f6c634300081c0033",
  "linkReferences": {},
  "deployedLinkReferences": {},
  "immutableReferences": {
    "3615": [
      {
        "length": 32,
        "start": 5011
      }
    ],
    "3617": [
      {
        "length": 32,
        "start": 4969
      }
    ],
    "3619": [
      {
        "length": 32,
        "start": 4927
      }
    ],
    "3621": [
      {
        "length": 32,
        "start": 5092
      }
    ],
    "3623": [
      {
        "length": 32,
        "start": 5132
      }
    ],
    "3626": [
      {
        "length": 32,
        "start": 4273
      }
    ],
    "3629": [
      {
        "length": 32,
        "start": 4322
      }
    ]
  },
  "inputSourceName": "project/contracts/Bloxland.sol",
  "buildInfoId": "solc-0_8_28-0df5f60d826cd5276e99a36830eccc2b74b9fca4"
}