{
  "_format": "hh3-artifact-1",
  "contractName": "Bloxland",
  "sourceName": "contracts/Bloxland.sol",
  "abi": [
    {
      "inputs": [
        {
          "internalType": "address",
          "name": "_oracle",
          "type": "address"
        },
        {
          "internalType": "address",
          "name": "_entropy",
          "type": "address"
        },
        {
          "internalType": "address",
          "name": "_signer",
          "type": "address"
        },
        {
          "internalType": "address",
          "name": "_energy",
          "type": "address"
        }
      ],
      "stateMutability": "nonpayable",
      "type": "constructor"
    },
    {
      "inputs": [],
      "name": "InvalidShortString",
      "type": "error"
    },
    {
      "inputs": [
        {
          "internalType": "string",
          "name": "str",
          "type": "string"
        }
      ],
      "name": "StringTooLong",
      "type": "error"
    },
    {
      "anonymous": false,
      "inputs": [],
      "name": "EIP712DomainChanged",
      "type": "event"
    },
    {
      "anonymous": false,
      "inputs": [
        {
          "indexed": false,
          "internalType": "uint256",
          "name": "playId",
          "type": "uint256"
        },
        {
          "indexed": false,
          "internalType": "int8",
          "name": "result",
          "type": "int8"
        }
      ],
      "name": "PlayEnded",
      "type": "event"
    },
    {
      "anonymous": false,
      "inputs": [
        {
          "indexed": false,
          "internalType": "uint256",
          "name": "playId",
          "type": "uint256"
        }
      ],
      "name": "PlayStarted",
      "type": "event"
    },
    {
      "inputs": [],
      "name": "GAME_BTC_GT",
      "outputs": [
        {
          "internalType": "uint256",
          "name": "",
          "type": "uint256"
        }
      ],
      "stateMutability": "view",
      "type": "function"
    },
    {
      "inputs": [],
      "name": "GAME_RANDOM_DICE",
      "outputs": [
        {
          "internalType": "uint256",
          "name": "",
          "type": "uint256"
        }
      ],
      "stateMutability": "view",
      "type": "function"
    },
    {
      "inputs": [],
      "name": "GAME_RANDOM_EVEN",
      "outputs": [
        {
          "internalType": "uint256",
          "name": "",
          "type": "uint256"
        }
      ],
      "stateMutability": "view",
      "type": "function"
    },
    {
      "inputs": [],
      "name": "GAME_RANDOM_OVER",
      "outputs": [
        {
          "internalType": "uint256",
          "name": "",
          "type": "uint256"
        }
      ],
      "stateMutability": "view",
      "type": "function"
    },
    {
      "inputs": [
        {
          "internalType": "uint256",
          "name": "_playId",
          "type": "uint256"
        },
        {
          "internalType": "int64",
          "name": "_answer",
          "type": "int64"
        }
      ],
      "name": "answer",
      "outputs": [],
      "stateMutability": "nonpayable",
      "type": "function"
    },
    {
      "inputs": [
        {
          "internalType": "uint256",
          "name": "_playId",
          "type": "uint256"
        },
        {
          "internalType": "int64",
          "name": "_answer",
          "type": "int64"
        },
        {
          "internalType": "int8",
          "name": "_result",
          "type": "int8"
        },
        {
          "internalType": "bytes",
          "name": "_signature",
          "type": "bytes"
        }
      ],
      "name": "answerWithSignature",
      "outputs": [],
      "stateMutability": "nonpayable",
      "type": "function"
    },
    {
      "inputs": [],
      "name": "eip712Domain",
      "outputs": [
        {
          "internalType": "bytes1",
          "name": "fields",
          "type": "bytes1"
        },
        {
          "internalType": "string",
          "name": "name",
          "type": "string"
        },
        {
          "internalType": "string",
          "name": "version",
          "type": "string"
        },
        {
          "internalType": "uint256",
          "name": "chainId",
          "type": "uint256"
        },
        {
          "internalType": "address",
          "name": "verifyingContract",
          "type": "address"
        },
        {
          "internalType": "bytes32",
          "name": "salt",
          "type": "bytes32"
        },
        {
          "internalType": "uint256[]",
          "name": "extensions",
          "type": "uint256[]"
        }
      ],
      "stateMutability": "view",
      "type": "function"
    },
    {
      "inputs": [
        {
          "internalType": "uint256",
          "name": "",
          "type": "uint256"
        }
      ],
      "name": "games",
      "outputs": [
        {
          "internalType": "string",
          "name": "name",
          "type": "string"
        },
        {
          "internalType": "bool",
          "name": "random",
          "type": "bool"
        }
      ],
      "stateMutability": "view",
      "type": "function"
    },
    {
      "inputs": [
        {
          "internalType": "uint256",
          "name": "_gameId",
          "type": "uint256"
        },
        {
          "internalType": "uint256",
          "name": "_energyAmount",
          "type": "uint256"
        }
      ],
      "name": "play",
      "outputs": [
        {
          "internalType": "uint256",
          "name": "",
          "type": "uint256"
        }
      ],
      "stateMutability": "nonpayable",
      "type": "function"
    },
    {
      "inputs": [
        {
          "internalType": "uint256",
          "name": "",
          "type": "uint256"
        }
      ],
      "name": "plays",
      "outputs": [
        {
          "internalType": "uint256",
          "name": "gameId",
          "type": "uint256"
        },
        {
          "internalType": "address",
          "name": "player",
          "type": "address"
        },
        {
          "internalType": "uint256",
          "name": "energyAmount",
          "type": "uint256"
        },
        {
          "internalType": "int64",
          "name": "answer",
          "type": "int64"
        },
        {
          "internalType": "int8",
          "name": "result",
          "type": "int8"
        }
      ],
      "stateMutability": "view",
      "type": "function"
    },
    {
      "stateMutability": "payable",
      "type": "receive"
    }
  ],
  "bytecode": "0x6101606040526001600855348015610015575f5ffd5b50604051611dc6380380611dc683398101604081905261003491610431565b604080518082018252600c81526b426c6f786c616e64506c617960a01b602080830191909152825180840190935260018352603160f81b908301529061007a825f61039e565b6101205261008981600161039e565b61014052815160208084019190912060e052815190820120610100524660a05261011560e05161010051604080517f8b73c3c69bb8fe3d512ecc4cf759cc79239f7b179b0ffacaa9a75d522b39400f60208201529081019290925260608201524660808201523060a08201525f9060c00160405160208183030381529060405280519060200120905090565b60809081523060c052600280546001600160a01b038981166001600160a01b03199283161790925560038054898416908316179055600480548884169083161790556005805492871692909116919091179055604080518083018252600a818301908152694469636520477565737360b01b60608084019190915290825260016020808401829052845180870186526011818701908152704576656e204e756d62657220477565737360781b8286015281528082018390528551808801875260108188019081526f55707065722048616c6620477565737360801b82870152815280830184905286519788018752600f9688019687526e42544320507269636520477565737360881b948801949094529486525f8682018190529190915260069052815191955091935090919084907f3e5fec24aa4dc4e5aee2e025e51e1392c72a2500577559fae9665c6d52bd6a31908190610272908261051a565b50602091820151600191909101805460ff191691151591909117905560025f5260069052825183907f8819ef417987f8ae7a81f42cdfb18815282fe989326fbff903d13cf0e03ace299081906102c8908261051a565b50602091820151600191909101805460ff191691151591909117905560035f5260069052815182907f75f96ab15d697e93042dc45b5c896c4b27e89bb6eaf39475c5c371cb2513f7d290819061031e908261051a565b50602091820151600191909101805460ff191691151591909117905560055f5260069052805181907fbfd358e93f18da3ed276c3afdbdba00b8f0b6008a03476a6a86bd6320ee6938b908190610374908261051a565b50602091909101516001909101805460ff19169115159190911790555061062c9650505050505050565b5f6020835110156103b9576103b2836103d0565b90506103ca565b816103c4848261051a565b5060ff90505b92915050565b5f5f829050601f81511115610403578260405163305a27a960e01b81526004016103fa91906105d4565b60405180910390fd5b805161040e82610609565b179392505050565b80516001600160a01b038116811461042c575f5ffd5b919050565b5f5f5f5f60808587031215610444575f5ffd5b61044d85610416565b935061045b60208601610416565b925061046960408601610416565b915061047760608601610416565b905092959194509250565b634e487b7160e01b5f52604160045260245ffd5b600181811c908216806104aa57607f821691505b6020821081036104c857634e487b7160e01b5f52602260045260245ffd5b50919050565b601f82111561051557805f5260205f20601f840160051c810160208510156104f35750805b601f840160051c820191505b81811015610512575f81556001016104ff565b50505b505050565b81516001600160401b0381111561053357610533610482565b610547816105418454610496565b846104ce565b6020601f821160018114610579575f83156105625750848201515b5f19600385901b1c1916600184901b178455610512565b5f84815260208120601f198516915b828110156105a85787850151825560209485019460019092019101610588565b50848210156105c557868401515f19600387901b60f8161c191681555b50505050600190811b01905550565b602081525f82518060208401528060208501604085015e5f604082850101526040601f19601f83011684010191505092915050565b805160208083015191908110156104c8575f1960209190910360031b1b16919050565b60805160a05160c05160e05161010051610120516101405161174961067d5f395f610e3e01525f610e0d01525f61113201525f61110a01525f61106501525f61108f01525f6110b901526117495ff3fe608060405260043610610092575f3560e01c806384b0196e1161005757806384b0196e146101ce578063ad3c14e3146101f5578063d3814f0914610209578063d46556d81461021d578063f93c4b1a14610231575f5ffd5b8063117a5b901461009d57806345d4682a146100d35780634fc2cbdb1461016157806370836772146101825780637bc49a95146101a1575f5ffd5b3661009957005b5f5ffd5b3480156100a8575f5ffd5b506100bc6100b73660046112ae565b610245565b6040516100ca9291906112f3565b60405180910390f35b3480156100de575f5ffd5b5061012c6100ed3660046112ae565b600760208190525f9182526040822080546001820154600283015460039093015491946001600160a01b039091169382900b91600160401b9004900b85565b604080519586526001600160a01b0390941660208601529284019190915260070b60608301525f0b608082015260a0016100ca565b34801561016c575f5ffd5b5061018061017b36600461136c565b6102e9565b005b34801561018d575f5ffd5b5061018061019c366004611433565b610489565b3480156101ac575f5ffd5b506101c06101bb366004611461565b6107f7565b6040519081526020016100ca565b3480156101d9575f5ffd5b506101e2610cdd565b6040516100ca9796959493929190611481565b348015610200575f5ffd5b506101c0600381565b348015610214575f5ffd5b506101c0600181565b348015610228575f5ffd5b506101c0600281565b34801561023c575f5ffd5b506101c0600581565b60066020525f908152604090208054819061025f90611517565b80601f016020809104026020016040519081016040528092919081815260200182805461028b90611517565b80156102d65780601f106102ad576101008083540402835291602001916102d6565b820191905f5260205f20905b8154815290600101906020018083116102b957829003601f168201915b5050506001909301549192505060ff1682565b5f848152600760205260409020600101546001600160a01b03166103285760405162461bcd60e51b815260040161031f9061154f565b60405180910390fd5b8260070b5f0361036b5760405162461bcd60e51b815260206004820152600e60248201526d24b73b30b634b21030b739bbb2b960911b604482015260640161031f565b815f0b5f191415806103805750815f0b600114155b156103be5760405162461bcd60e51b815260206004820152600e60248201526d125b9d985b1a59081c995cdd5b1d60921b604482015260640161031f565b6004546103df906001600160a01b03166103d9863387610d1f565b83610d96565b61041f5760405162461bcd60e51b8152602060048201526011602482015270496e76616c6964207369676e617475726560781b604482015260640161031f565b5f848152600760209081526040808320600301805460ff60401b1916600160401b60ff88160217905580518781529285900b918301919091527ff8c8964548eadb43e47c38099a7eef03cc4b3c188b3ac01b0b7a9c6f20283d3e910160405180910390a150505050565b8060070b5f036104cc5760405162461bcd60e51b815260206004820152600e60248201526d24b73b30b634b21030b739bbb2b960911b604482015260640161031f565b5f828152600760208181526040808420815160a0810183528154815260018201546001600160a01b0316938101849052600282015492810192909252600301549283900b6060820152600160401b90920490920b6080820152906105425760405162461bcd60e51b815260040161031f9061154f565b80515f90815260066020526040808220815180830190925280548290829061056990611517565b80601f016020809104026020016040519081016040528092919081815260200182805461059590611517565b80156105e05780601f106105b7576101008083540402835291602001916105e0565b820191905f5260205f20905b8154815290600101906020018083116105c357829003601f168201915b50505091835250506001919091015460ff1615156020909101528051519091505f0361061e5760405162461bcd60e51b815260040161031f90611577565b806020015115610658575f848152600760205260409020600301805467ffffffffffffffff191667ffffffffffffffff85161790556107f1565b60025460405163052571af60e51b81527fe62df6c8b4a85fe1a67db44dc12de5db330f7ac66b72dc658afedf0f4a415b436004820152603c60248201525f916001600160a01b03169063a4ae35e090604401608060405180830381865afa1580156106c5573d5f5f3e3d5ffd5b505050506040513d601f19601f820116820180604052508101906106e991906115bb565b8351909150600419016107d7578360070b815f015160070b1315610773575f8581526007602052604090819020600301805460ff60401b1916600160401b179055517ff8c8964548eadb43e47c38099a7eef03cc4b3c188b3ac01b0b7a9c6f20283d3e906107669087906001909182525f0b602082015260400190565b60405180910390a16107ef565b5f8581526007602052604090819020600301805460ff60401b191668ff0000000000000000179055517ff8c8964548eadb43e47c38099a7eef03cc4b3c188b3ac01b0b7a9c6f20283d3e906107669087905f19909182525f0b602082015260400190565b60405162461bcd60e51b815260040161031f90611577565b505b50505050565b6005546040516370a0823160e01b81523360048201525f9183916001600160a01b03909116906370a0823190602401602060405180830381865afa158015610841573d5f5f3e3d5ffd5b505050506040513d601f19601f82011682018060405250810190610865919061163c565b10156108a75760405162461bcd60e51b81526020600482015260116024820152704e6f7420656e6f75676820656e6572677960781b604482015260640161031f565b600554604051631125ae3960e11b8152336004820152602481018490526001600160a01b039091169063224b5c72906044015f604051808303815f87803b1580156108f0575f5ffd5b505af1158015610902573d5f5f3e3d5ffd5b50506040805160a08101825286815233602082018190529181018690525f6060820181905260808201529250905061094c5760405162461bcd60e51b815260040161031f9061154f565b5f84815260066020526040808220815180830190925280548290829061097190611517565b80601f016020809104026020016040519081016040528092919081815260200182805461099d90611517565b80156109e85780601f106109bf576101008083540402835291602001916109e8565b820191905f5260205f20905b8154815290600101906020018083116109cb57829003601f168201915b50505091835250506001919091015460ff1615156020909101528051519091505f03610a265760405162461bcd60e51b815260040161031f90611577565b806020015115610bed57600354604080516341025b3d60e11b815290515f926001600160a01b031691638204b67a9160048083019260209291908290030181865afa158015610a77573d5f5f3e3d5ffd5b505050506040513d601f19601f82011682018060405250810190610a9b9190611653565b6001600160801b031690505f60035f9054906101000a90046001600160a01b03166001600160a01b0316637b43155d836040518263ffffffff1660e01b815260040160206040518083038185885af1158015610af9573d5f5f3e3d5ffd5b50505050506040513d601f19601f82011682018060405250810190610b1e9190611679565b67ffffffffffffffff8181165f8181526007602090815260409182902089518155898201516001820180546001600160a01b0319166001600160a01b0390921691909117905589830151600282015560608a01516003909101805460808c01519290961668ffffffffffffffffff1990961695909517600160401b60ff9092169190910217909355519081529192507f75ecbbcf5acf9fc04b7b54b9c241f8bb19d1fdd64aba93c967ea036bcf2d1394910160405180910390a167ffffffffffffffff169350610cd792505050565b5f60085467ffffffffffffffff610c0491906116a6565b600880549192505f610c15836116b9565b90915550505f8181526007602090815260409182902085518155858201516001820180546001600160a01b0319166001600160a01b03909216919091179055858301516002820155606086015160039091018054608088015167ffffffffffffffff90931668ffffffffffffffffff1990911617600160401b60ff9093169290920291909117905590518281527f75ecbbcf5acf9fc04b7b54b9c241f8bb19d1fdd64aba93c967ea036bcf2d1394910160405180910390a19250610cd7915050565b92915050565b5f6060805f5f5f6060610cee610e06565b610cf6610e37565b604080515f80825260208201909252600f60f81b9b939a50919850469750309650945092509050565b604080517fff541fcd5c1ada8f8c1a05936cbdb0cf8d6081b06dd4e005833e2c3ad5b14b5960208201529081018490526001600160a01b0383166060820152600782900b60808201525f90610d8c9060a00160405160208183030381529060405280519060200120610e64565b90505b9392505050565b5f836001600160a01b03163b5f03610df4575f5f610db48585610e90565b5090925090505f816003811115610dcd57610dcd6116d1565b148015610deb5750856001600160a01b0316826001600160a01b0316145b92505050610d8f565b610dff848484610ed9565b9050610d8f565b6060610e327f00000000000000000000000000000000000000000000000000000000000000005f610fb0565b905090565b6060610e327f00000000000000000000000000000000000000000000000000000000000000006001610fb0565b5f610cd7610e70611059565b8360405161190160f01b8152600281019290925260228201526042902090565b5f5f5f8351604103610ec7576020840151604085015160608601515f1a610eb988828585611182565b955095509550505050610ed2565b505081515f91506002905b9250925092565b5f5f5f856001600160a01b03168585604051602401610ef99291906116e5565b60408051601f198184030181529181526020820180516001600160e01b0316630b135d3f60e11b17905251610f2e91906116fd565b5f60405180830381855afa9150503d805f8114610f66576040519150601f19603f3d011682016040523d82523d5f602084013e610f6b565b606091505b5091509150818015610f7f57506020815110155b8015610fa657508051630b135d3f60e11b90610fa4908301602090810190840161163c565b145b9695505050505050565b606060ff8314610fca57610fc38361124a565b9050610cd7565b818054610fd690611517565b80601f016020809104026020016040519081016040528092919081815260200182805461100290611517565b801561104d5780601f106110245761010080835404028352916020019161104d565b820191905f5260205f20905b81548152906001019060200180831161103057829003601f168201915b50505050509050610cd7565b5f306001600160a01b037f0000000000000000000000000000000000000000000000000000000000000000161480156110b157507f000000000000000000000000000000000000000000000000000000000000000046145b156110db57507f000000000000000000000000000000000000000000000000000000000000000090565b610e32604080517f8b73c3c69bb8fe3d512ecc4cf759cc79239f7b179b0ffacaa9a75d522b39400f60208201527f0000000000000000000000000000000000000000000000000000000000000000918101919091527f000000000000000000000000000000000000000000000000000000000000000060608201524660808201523060a08201525f9060c00160405160208183030381529060405280519060200120905090565b5f80807f7fffffffffffffffffffffffffffffff5d576e7357a4501ddfe92f46681b20a08411156111bb57505f91506003905082611240565b604080515f808252602082018084528a905260ff891692820192909252606081018790526080810186905260019060a0016020604051602081039080840390855afa15801561120c573d5f5f3e3d5ffd5b5050604051601f1901519150506001600160a01b03811661123757505f925060019150829050611240565b92505f91508190505b9450945094915050565b60605f61125683611287565b6040805160208082528183019092529192505f91906020820181803683375050509182525060208101929092525090565b5f60ff8216601f811115610cd757604051632cd44ac360e21b815260040160405180910390fd5b5f602082840312156112be575f5ffd5b5035919050565b5f81518084528060208401602086015e5f602082860101526020601f19601f83011685010191505092915050565b604081525f61130560408301856112c5565b905082151560208301529392505050565b8060070b8114611324575f5ffd5b50565b634e487b7160e01b5f52604160045260245ffd5b604051601f8201601f1916810167ffffffffffffffff8111828210171561136457611364611327565b604052919050565b5f5f5f5f6080858703121561137f575f5ffd5b84359350602085013561139181611316565b925060408501355f81900b81146113a6575f5ffd5b9150606085013567ffffffffffffffff8111156113c1575f5ffd5b8501601f810187136113d1575f5ffd5b803567ffffffffffffffff8111156113eb576113eb611327565b6113fe601f8201601f191660200161133b565b818152886020838501011115611412575f5ffd5b816020840160208301375f6020838301015280935050505092959194509250565b5f5f60408385031215611444575f5ffd5b82359150602083013561145681611316565b809150509250929050565b5f5f60408385031215611472575f5ffd5b50508035926020909101359150565b60ff60f81b8816815260e060208201525f61149f60e08301896112c5565b82810360408401526114b181896112c5565b606084018890526001600160a01b038716608085015260a0840186905283810360c0850152845180825260208087019350909101905f5b818110156115065783518352602093840193909201916001016114e8565b50909b9a5050505050505050505050565b600181811c9082168061152b57607f821691505b60208210810361154957634e487b7160e01b5f52602260045260245ffd5b50919050565b6020808252600e908201526d141b185e481b9bdd08199bdd5b9960921b604082015260600190565b6020808252600e908201526d11d85b59481b9bdd08199bdd5b9960921b604082015260600190565b805167ffffffffffffffff811681146115b6575f5ffd5b919050565b5f60808284031280156115cc575f5ffd5b506040516080810167ffffffffffffffff811182821017156115f0576115f0611327565b60405282516115fe81611316565b815261160c6020840161159f565b602082015260408301518060030b8114611624575f5ffd5b60408201526060928301519281019290925250919050565b5f6020828403121561164c575f5ffd5b5051919050565b5f60208284031215611663575f5ffd5b81516001600160801b0381168114610d8f575f5ffd5b5f60208284031215611689575f5ffd5b610d8f8261159f565b634e487b7160e01b5f52601160045260245ffd5b80820180821115610cd757610cd7611692565b5f600182016116ca576116ca611692565b5060010190565b634e487b7160e01b5f52602160045260245ffd5b828152604060208201525f610d8c60408301846112c5565b5f82518060208501845e5f92019182525091905056fea2646970667358221220b7b3f8bd47fcf54f0c3ef3024fa3497fb7d13b97052fd4d67b08a14ae0fd160964736f6c634300081c0033",
  "linkReferences": {},
  "deployedLinkReferences": {},
  "immutableReferences": {
    "3615": [
      {
        "length": 32,
        "start": 4281
      }
    ],
    "3617": [
      {
        "length": 32,
        "start": 4239
      }
    ],
    "3619": [
      {
        "length": 32,
        "start": 4197
      }
    ],
    "3621": [
      {
        "length": 32,
        "start": 4362
      }
    ],
    "3623": [
      {
        "length": 32,
        "start": 4402
      }
    ],
    "3626": [
      {
        "length": 32,
        "start": 3597
      }
    ],
    "3629": [
      {
        "length": 32,
        "start": 3646
      }
    ]
  },
  "inputSourceName": "project/contracts/Bloxland.sol",
  "buildInfoId": "solc-0_8_28-3a88f1ebbdfb3bfb16eebaebbee42bc30dcf4046"
}