{
  "_format": "hh3-artifact-1",
  "contractName": "Bloxland",
  "sourceName": "contracts/Bloxland.sol",
  "abi": [
    {
      "inputs": [
        {
          "internalType": "address",
          "name": "_oracle",
          "type": "address"
        },
        {
          "internalType": "address",
          "name": "_entropy",
          "type": "address"
        },
        {
          "internalType": "address",
          "name": "_signer",
          "type": "address"
        },
        {
          "internalType": "address",
          "name": "_energy",
          "type": "address"
        }
      ],
      "stateMutability": "nonpayable",
      "type": "constructor"
    },
    {
      "inputs": [],
      "name": "InvalidShortString",
      "type": "error"
    },
    {
      "inputs": [
        {
          "internalType": "string",
          "name": "str",
          "type": "string"
        }
      ],
      "name": "StringTooLong",
      "type": "error"
    },
    {
      "anonymous": false,
      "inputs": [],
      "name": "EIP712DomainChanged",
      "type": "event"
    },
    {
      "anonymous": false,
      "inputs": [
        {
          "indexed": false,
          "internalType": "uint256",
          "name": "playId",
          "type": "uint256"
        },
        {
          "indexed": false,
          "internalType": "int8",
          "name": "result",
          "type": "int8"
        }
      ],
      "name": "PlayEnded",
      "type": "event"
    },
    {
      "anonymous": false,
      "inputs": [
        {
          "indexed": false,
          "internalType": "uint256",
          "name": "playId",
          "type": "uint256"
        }
      ],
      "name": "PlayStarted",
      "type": "event"
    },
    {
      "inputs": [],
      "name": "GAME_BTC_GT",
      "outputs": [
        {
          "internalType": "uint256",
          "name": "",
          "type": "uint256"
        }
      ],
      "stateMutability": "view",
      "type": "function"
    },
    {
      "inputs": [],
      "name": "GAME_RANDOM_DICE",
      "outputs": [
        {
          "internalType": "uint256",
          "name": "",
          "type": "uint256"
        }
      ],
      "stateMutability": "view",
      "type": "function"
    },
    {
      "inputs": [],
      "name": "GAME_RANDOM_EVEN",
      "outputs": [
        {
          "internalType": "uint256",
          "name": "",
          "type": "uint256"
        }
      ],
      "stateMutability": "view",
      "type": "function"
    },
    {
      "inputs": [],
      "name": "GAME_RANDOM_OVER",
      "outputs": [
        {
          "internalType": "uint256",
          "name": "",
          "type": "uint256"
        }
      ],
      "stateMutability": "view",
      "type": "function"
    },
    {
      "inputs": [
        {
          "internalType": "uint64",
          "name": "sequence",
          "type": "uint64"
        },
        {
          "internalType": "address",
          "name": "provider",
          "type": "address"
        },
        {
          "internalType": "bytes32",
          "name": "randomNumber",
          "type": "bytes32"
        }
      ],
      "name": "_entropyCallback",
      "outputs": [],
      "stateMutability": "nonpayable",
      "type": "function"
    },
    {
      "inputs": [
        {
          "internalType": "uint256",
          "name": "_playId",
          "type": "uint256"
        },
        {
          "internalType": "int64",
          "name": "_answer",
          "type": "int64"
        }
      ],
      "name": "answer",
      "outputs": [],
      "stateMutability": "nonpayable",
      "type": "function"
    },
    {
      "inputs": [
        {
          "internalType": "uint256",
          "name": "_playId",
          "type": "uint256"
        },
        {
          "internalType": "int64",
          "name": "_answer",
          "type": "int64"
        },
        {
          "internalType": "int8",
          "name": "_result",
          "type": "int8"
        },
        {
          "internalType": "bytes",
          "name": "_signature",
          "type": "bytes"
        }
      ],
      "name": "answerWithSignature",
      "outputs": [],
      "stateMutability": "nonpayable",
      "type": "function"
    },
    {
      "inputs": [],
      "name": "eip712Domain",
      "outputs": [
        {
          "internalType": "bytes1",
          "name": "fields",
          "type": "bytes1"
        },
        {
          "internalType": "string",
          "name": "name",
          "type": "string"
        },
        {
          "internalType": "string",
          "name": "version",
          "type": "string"
        },
        {
          "internalType": "uint256",
          "name": "chainId",
          "type": "uint256"
        },
        {
          "internalType": "address",
          "name": "verifyingContract",
          "type": "address"
        },
        {
          "internalType": "bytes32",
          "name": "salt",
          "type": "bytes32"
        },
        {
          "internalType": "uint256[]",
          "name": "extensions",
          "type": "uint256[]"
        }
      ],
      "stateMutability": "view",
      "type": "function"
    },
    {
      "inputs": [
        {
          "internalType": "uint256",
          "name": "",
          "type": "uint256"
        }
      ],
      "name": "games",
      "outputs": [
        {
          "internalType": "string",
          "name": "name",
          "type": "string"
        },
        {
          "internalType": "bool",
          "name": "random",
          "type": "bool"
        }
      ],
      "stateMutability": "view",
      "type": "function"
    },
    {
      "inputs": [
        {
          "internalType": "uint256",
          "name": "_gameId",
          "type": "uint256"
        },
        {
          "internalType": "uint256",
          "name": "_energyAmount",
          "type": "uint256"
        }
      ],
      "name": "play",
      "outputs": [
        {
          "internalType": "uint256",
          "name": "",
          "type": "uint256"
        }
      ],
      "stateMutability": "nonpayable",
      "type": "function"
    },
    {
      "inputs": [
        {
          "internalType": "uint256",
          "name": "",
          "type": "uint256"
        }
      ],
      "name": "plays",
      "outputs": [
        {
          "internalType": "uint256",
          "name": "gameId",
          "type": "uint256"
        },
        {
          "internalType": "address",
          "name": "player",
          "type": "address"
        },
        {
          "internalType": "uint256",
          "name": "energyAmount",
          "type": "uint256"
        },
        {
          "internalType": "bytes32",
          "name": "randomNumber",
          "type": "bytes32"
        },
        {
          "internalType": "int8",
          "name": "result",
          "type": "int8"
        }
      ],
      "stateMutability": "view",
      "type": "function"
    },
    {
      "stateMutability": "payable",
      "type": "receive"
    }
  ],
  "bytecode": "0x6101606040526001600855348015610015575f5ffd5b5060405161227238038061227283398101604081905261003491610431565b604080518082018252600c81526b426c6f786c616e64506c617960a01b602080830191909152825180840190935260018352603160f81b908301529061007a825f61039e565b6101205261008981600161039e565b61014052815160208084019190912060e052815190820120610100524660a05261011560e05161010051604080517f8b73c3c69bb8fe3d512ecc4cf759cc79239f7b179b0ffacaa9a75d522b39400f60208201529081019290925260608201524660808201523060a08201525f9060c00160405160208183030381529060405280519060200120905090565b60809081523060c052600280546001600160a01b038981166001600160a01b03199283161790925560038054898416908316179055600480548884169083161790556005805492871692909116919091179055604080518083018252600a818301908152694469636520477565737360b01b60608084019190915290825260016020808401829052845180870186526011818701908152704576656e204e756d62657220477565737360781b8286015281528082018390528551808801875260108188019081526f55707065722048616c6620477565737360801b82870152815280830184905286519788018752600f9688019687526e42544320507269636520477565737360881b948801949094529486525f8682018190529190915260069052815191955091935090919084907f3e5fec24aa4dc4e5aee2e025e51e1392c72a2500577559fae9665c6d52bd6a31908190610272908261051a565b50602091820151600191909101805460ff191691151591909117905560025f5260069052825183907f8819ef417987f8ae7a81f42cdfb18815282fe989326fbff903d13cf0e03ace299081906102c8908261051a565b50602091820151600191909101805460ff191691151591909117905560035f5260069052815182907f75f96ab15d697e93042dc45b5c896c4b27e89bb6eaf39475c5c371cb2513f7d290819061031e908261051a565b50602091820151600191909101805460ff191691151591909117905560055f5260069052805181907fbfd358e93f18da3ed276c3afdbdba00b8f0b6008a03476a6a86bd6320ee6938b908190610374908261051a565b50602091909101516001909101805460ff19169115159190911790555061062c9650505050505050565b5f6020835110156103b9576103b2836103d0565b90506103ca565b816103c4848261051a565b5060ff90505b92915050565b5f5f829050601f81511115610403578260405163305a27a960e01b81526004016103fa91906105d4565b60405180910390fd5b805161040e82610609565b179392505050565b80516001600160a01b038116811461042c575f5ffd5b919050565b5f5f5f5f60808587031215610444575f5ffd5b61044d85610416565b935061045b60208601610416565b925061046960408601610416565b915061047760608601610416565b905092959194509250565b634e487b7160e01b5f52604160045260245ffd5b600181811c908216806104aa57607f821691505b6020821081036104c857634e487b7160e01b5f52602260045260245ffd5b50919050565b601f82111561051557805f5260205f20601f840160051c810160208510156104f35750805b601f840160051c820191505b81811015610512575f81556001016104ff565b50505b505050565b81516001600160401b0381111561053357610533610482565b610547816105418454610496565b846104ce565b6020601f821160018114610579575f83156105625750848201515b5f19600385901b1c1916600184901b178455610512565b5f84815260208120601f198516915b828110156105a85787850151825560209485019460019092019101610588565b50848210156105c557868401515f19600387901b60f8161c191681555b50505050600190811b01905550565b602081525f82518060208401528060208501604085015e5f604082850101526040601f19601f83011684010191505092915050565b805160208083015191908110156104c8575f1960209190910360031b1b16919050565b60805160a05160c05160e051610100516101205161014051611bf561067d5f395f6111fb01525f6111ca01525f61152501525f6114fd01525f61145801525f61148201525f6114ac0152611bf55ff3fe60806040526004361061009d575f3560e01c80637bc49a95116100625780637bc49a95146101c357806384b0196e146101f0578063ad3c14e314610217578063d3814f091461022b578063d46556d81461023f578063f93c4b1a14610253575f5ffd5b8063117a5b90146100a857806345d4682a146100de5780634fc2cbdb1461016457806352a5f1f81461018557806370836772146101a4575f5ffd5b366100a457005b5f5ffd5b3480156100b3575f5ffd5b506100c76100c23660046116a1565b610267565b6040516100d59291906116e6565b60405180910390f35b3480156100e9575f5ffd5b506101326100f83660046116a1565b60076020525f90815260408120805460018201546002830154600384015460049094015492946001600160a01b0390921693909290910b85565b604080519586526001600160a01b0390941660208601529284019190915260608301525f0b608082015260a0016100d5565b34801561016f575f5ffd5b5061018361017e36600461175e565b61030b565b005b348015610190575f5ffd5b5061018361019f366004611837565b6104ad565b3480156101af575f5ffd5b506101836101be366004611880565b6105a0565b3480156101ce575f5ffd5b506101e26101dd3660046118ae565b6107e4565b6040519081526020016100d5565b3480156101fb575f5ffd5b50610204610c9a565b6040516100d597969594939291906118ce565b348015610222575f5ffd5b506101e2600381565b348015610236575f5ffd5b506101e2600181565b34801561024a575f5ffd5b506101e2600281565b34801561025e575f5ffd5b506101e2600581565b60066020525f908152604090208054819061028190611964565b80601f01602080910402602001604051908101604052809291908181526020018280546102ad90611964565b80156102f85780601f106102cf576101008083540402835291602001916102f8565b820191905f5260205f20905b8154815290600101906020018083116102db57829003601f168201915b5050506001909301549192505060ff1682565b5f848152600760205260409020600101546001600160a01b03166103675760405162461bcd60e51b815260206004820152600e60248201526d141b185e481b9bdd08199bdd5b9960921b60448201526064015b60405180910390fd5b8260070b5f036103aa5760405162461bcd60e51b815260206004820152600e60248201526d24b73b30b634b21030b739bbb2b960911b604482015260640161035e565b815f0b5f19141580156103c05750815f0b600114155b156103fe5760405162461bcd60e51b815260206004820152600e60248201526d125b9d985b1a59081c995cdd5b1d60921b604482015260640161035e565b60045461041f906001600160a01b0316610419863387610cdc565b83610d53565b61045f5760405162461bcd60e51b8152602060048201526011602482015270496e76616c6964207369676e617475726560781b604482015260640161035e565b5f848152600760209081526040808320600401805460ff191660ff871617905580518781529285900b918301919091525f516020611ba05f395f51905f52910160405180910390a150505050565b5f6104c06003546001600160a01b031690565b90506001600160a01b0381166105185760405162461bcd60e51b815260206004820152601760248201527f456e74726f70792061646472657373206e6f7420736574000000000000000000604482015260640161035e565b336001600160a01b0382161461057c5760405162461bcd60e51b815260206004820152602360248201527f4f6e6c7920456e74726f70792063616e2063616c6c20746869732066756e637460448201526234b7b760e91b606482015260840161035e565b6001600160401b0384165f9081526007602052604090206003018290555b50505050565b8060070b5f036105e35760405162461bcd60e51b815260206004820152600e60248201526d24b73b30b634b21030b739bbb2b960911b604482015260640161035e565b5f828152600760209081526040808320815160a0810183528154815260018201546001600160a01b0316938101849052600282015492810192909252600381015460608301526004015490920b60808301526106725760405162461bcd60e51b815260206004820152600e60248201526d141b185e481b9bdd08199bdd5b9960921b604482015260640161035e565b80515f90815260066020526040808220815180830190925280548290829061069990611964565b80601f01602080910402602001604051908101604052809291908181526020018280546106c590611964565b80156107105780601f106106e757610100808354040283529160200191610710565b820191905f5260205f20905b8154815290600101906020018083116106f357829003601f168201915b50505091835250506001919091015460ff1615156020909101528051519091505f0361074e5760405162461bcd60e51b815260040161035e9061199c565b8060200151156107d9575f848152600760205260409020600301546107b55760405162461bcd60e51b815260206004820152601860248201527f5761697420756e74696c2072616e646f6d206e756d6265720000000000000000604482015260640161035e565b5f848152600760205260409020600301546107d4908390869086610dc3565b61059a565b61059a828585611084565b6005546040516370a0823160e01b81523360048201525f9183916001600160a01b03909116906370a0823190602401602060405180830381865afa15801561082e573d5f5f3e3d5ffd5b505050506040513d601f19601f8201168201806040525081019061085291906119c4565b10156108945760405162461bcd60e51b81526020600482015260116024820152704e6f7420656e6f75676820656e6572677960781b604482015260640161035e565b600554604051631125ae3960e11b8152336004820152602481018490526001600160a01b039091169063224b5c72906044015f604051808303815f87803b1580156108dd575f5ffd5b505af11580156108ef573d5f5f3e3d5ffd5b505050505f6040518060a00160405280858152602001336001600160a01b031681526020018481526020015f81526020015f5f0b81525090505f60065f8681526020019081526020015f206040518060400160405290815f8201805461095490611964565b80601f016020809104026020016040519081016040528092919081815260200182805461098090611964565b80156109cb5780601f106109a2576101008083540402835291602001916109cb565b820191905f5260205f20905b8154815290600101906020018083116109ae57829003601f168201915b50505091835250506001919091015460ff1615156020909101528051519091505f03610a095760405162461bcd60e51b815260040161035e9061199c565b806020015115610bc35760035460405163ca1642e160e01b8152624c4b4060048201819052915f916001600160a01b039091169063ca1642e190602401602060405180830381865afa158015610a61573d5f5f3e3d5ffd5b505050506040513d601f19601f82011682018060405250810190610a8591906119db565b600354604051630bed189f60e01b815263ffffffff851660048201526001600160801b039290921692505f916001600160a01b0390911690630bed189f90849060240160206040518083038185885af1158015610ae4573d5f5f3e3d5ffd5b50505050506040513d601f19601f82011682018060405250810190610b099190611a01565b6001600160401b0381165f8181526007602090815260409182902089518155898201516001820180546001600160a01b0319166001600160a01b0390921691909117905589830151600282015560608a0151600382015560808a01516004909101805460ff191660ff90921691909117905590519182529192507f75ecbbcf5acf9fc04b7b54b9c241f8bb19d1fdd64aba93c967ea036bcf2d1394910160405180910390a16001600160401b03169450610c949350505050565b5f6008546001600160401b03610bd99190611a30565b600880549192505f610bea83611a43565b90915550505f8181526007602090815260409182902085518155858201516001820180546001600160a01b0319166001600160a01b039092169190911790558583015160028201556060860151600382015560808601516004909101805460ff191660ff90921691909117905590518281527f75ecbbcf5acf9fc04b7b54b9c241f8bb19d1fdd64aba93c967ea036bcf2d1394910160405180910390a19250610c94915050565b50505b92915050565b5f6060805f5f5f6060610cab6111c3565b610cb36111f4565b604080515f80825260208201909252600f60f81b9b939a50919850469750309650945092509050565b604080517fff541fcd5c1ada8f8c1a05936cbdb0cf8d6081b06dd4e005833e2c3ad5b14b5960208201529081018490526001600160a01b0383166060820152600782900b60808201525f90610d499060a00160405160208183030381529060405280519060200120611221565b90505b9392505050565b5f836001600160a01b03163b5f03610db1575f5f610d71858561124d565b5090925090505f816003811115610d8a57610d8a611a5b565b148015610da85750856001600160a01b0316826001600160a01b0316145b92505050610d4c565b610dbc848484611296565b9050610d4c565b83515f1901610e8d575f610dda836001600661136d565b90508160070b8103610e39576001600160401b0384165f81815260076020908152604091829020600401805460ff191660019081179091558251938452908301525f516020611ba05f395f51905f5291015b60405180910390a1610e87565b6001600160401b0384165f81815260076020908152604091829020600401805460ff191660ff17905581519283525f19908301525f516020611ba05f395f51905f5291015b60405180910390a15b5061059a565b835160011901610ff4575f610ea5836001606461136d565b9050610eb2600282611a83565b5f03610f56578160070b600103610f0d576001600160401b0384165f81815260076020908152604091829020600401805460ff191660019081179091558251938452908301525f516020611ba05f395f51905f529101610e2c565b6001600160401b0384165f81815260076020908152604091829020600401805460ff191660ff17905581519283525f19908301525f516020611ba05f395f51905f529101610e2c565b8160070b600103610faa576001600160401b0384165f81815260076020908152604091829020600401805460ff191660ff17905581519283525f19908301525f516020611ba05f395f51905f529101610e2c565b6001600160401b0384165f81815260076020908152604091829020600401805460ff191660019081179091558251938452908301525f516020611ba05f395f51905f529101610e7e565b83516002190161106c575f61100c836001606461136d565b90506032811315610f56578160070b600103610f0d576001600160401b0384165f81815260076020908152604091829020600401805460ff191660019081179091558251938452908301525f516020611ba05f395f51905f529101610e2c565b60405162461bcd60e51b815260040161035e9061199c565b60025460405163052571af60e51b81527fe62df6c8b4a85fe1a67db44dc12de5db330f7ac66b72dc658afedf0f4a415b43600482015261177060248201525f916001600160a01b03169063a4ae35e090604401608060405180830381865afa1580156110f2573d5f5f3e3d5ffd5b505050506040513d601f19601f820116820180604052508101906111169190611a96565b84519091506004190161106c578160070b815f015160070b131561117d575f83815260076020908152604091829020600401805460ff191660019081179091558251868152918201525f516020611ba05f395f51905f5291015b60405180910390a161059a565b5f8381526007602052604090819020600401805460ff191660ff179055515f516020611ba05f395f51905f52906111709085905f19909182525f0b602082015260400190565b60606111ef7f00000000000000000000000000000000000000000000000000000000000000005f6113a3565b905090565b60606111ef7f000000000000000000000000000000000000000000000000000000000000000060016113a3565b5f610c9461122d61144c565b8360405161190160f01b8152600281019290925260228201526042902090565b5f5f5f8351604103611284576020840151604085015160608601515f1a61127688828585611575565b95509550955050505061128f565b505081515f91506002905b9250925092565b5f5f5f856001600160a01b031685856040516024016112b6929190611b19565b60408051601f198184030181529181526020820180516001600160e01b0316630b135d3f60e11b179052516112eb9190611b31565b5f60405180830381855afa9150503d805f8114611323576040519150601f19603f3d011682016040523d82523d5f602084013e611328565b606091505b509150915081801561133c57506020815110155b801561136357508051630b135d3f60e11b9061136190830160209081019084016119c4565b145b9695505050505050565b5f806113798484611b47565b611384906001611b6d565b90506113908186611b8c565b61139a9085611b6d565b95945050505050565b606060ff83146113bd576113b68361163d565b9050610c94565b8180546113c990611964565b80601f01602080910402602001604051908101604052809291908181526020018280546113f590611964565b80156114405780601f1061141757610100808354040283529160200191611440565b820191905f5260205f20905b81548152906001019060200180831161142357829003601f168201915b50505050509050610c94565b5f306001600160a01b037f0000000000000000000000000000000000000000000000000000000000000000161480156114a457507f000000000000000000000000000000000000000000000000000000000000000046145b156114ce57507f000000000000000000000000000000000000000000000000000000000000000090565b6111ef604080517f8b73c3c69bb8fe3d512ecc4cf759cc79239f7b179b0ffacaa9a75d522b39400f60208201527f0000000000000000000000000000000000000000000000000000000000000000918101919091527f000000000000000000000000000000000000000000000000000000000000000060608201524660808201523060a08201525f9060c00160405160208183030381529060405280519060200120905090565b5f80807f7fffffffffffffffffffffffffffffff5d576e7357a4501ddfe92f46681b20a08411156115ae57505f91506003905082611633565b604080515f808252602082018084528a905260ff891692820192909252606081018790526080810186905260019060a0016020604051602081039080840390855afa1580156115ff573d5f5f3e3d5ffd5b5050604051601f1901519150506001600160a01b03811661162a57505f925060019150829050611633565b92505f91508190505b9450945094915050565b60605f6116498361167a565b6040805160208082528183019092529192505f91906020820181803683375050509182525060208101929092525090565b5f60ff8216601f811115610c9457604051632cd44ac360e21b815260040160405180910390fd5b5f602082840312156116b1575f5ffd5b5035919050565b5f81518084528060208401602086015e5f602082860101526020601f19601f83011685010191505092915050565b604081525f6116f860408301856116b8565b905082151560208301529392505050565b8060070b8114611717575f5ffd5b50565b634e487b7160e01b5f52604160045260245ffd5b604051601f8201601f191681016001600160401b03811182821017156117565761175661171a565b604052919050565b5f5f5f5f60808587031215611771575f5ffd5b84359350602085013561178381611709565b925060408501355f81900b8114611798575f5ffd5b915060608501356001600160401b038111156117b2575f5ffd5b8501601f810187136117c2575f5ffd5b80356001600160401b038111156117db576117db61171a565b6117ee601f8201601f191660200161172e565b818152886020838501011115611802575f5ffd5b816020840160208301375f6020838301015280935050505092959194509250565b6001600160401b0381168114611717575f5ffd5b5f5f5f60608486031215611849575f5ffd5b833561185481611823565b925060208401356001600160a01b038116811461186f575f5ffd5b929592945050506040919091013590565b5f5f60408385031215611891575f5ffd5b8235915060208301356118a381611709565b809150509250929050565b5f5f604083850312156118bf575f5ffd5b50508035926020909101359150565b60ff60f81b8816815260e060208201525f6118ec60e08301896116b8565b82810360408401526118fe81896116b8565b606084018890526001600160a01b038716608085015260a0840186905283810360c0850152845180825260208087019350909101905f5b81811015611953578351835260209384019390920191600101611935565b50909b9a5050505050505050505050565b600181811c9082168061197857607f821691505b60208210810361199657634e487b7160e01b5f52602260045260245ffd5b50919050565b6020808252600e908201526d11d85b59481b9bdd08199bdd5b9960921b604082015260600190565b5f602082840312156119d4575f5ffd5b5051919050565b5f602082840312156119eb575f5ffd5b81516001600160801b0381168114610d4c575f5ffd5b5f60208284031215611a11575f5ffd5b8151610d4c81611823565b634e487b7160e01b5f52601160045260245ffd5b80820180821115610c9457610c94611a1c565b5f60018201611a5457611a54611a1c565b5060010190565b634e487b7160e01b5f52602160045260245ffd5b634e487b7160e01b5f52601260045260245ffd5b5f82611a9157611a91611a6f565b500790565b5f6080828403128015611aa7575f5ffd5b50604051608081016001600160401b0381118282101715611aca57611aca61171a565b6040528251611ad881611709565b81526020830151611ae881611823565b60208201526040830151600381900b8114611b01575f5ffd5b60408201526060928301519281019290925250919050565b828152604060208201525f610d4960408301846116b8565b5f82518060208501845e5f920191825250919050565b8181035f831280158383131683831282161715611b6657611b66611a1c565b5092915050565b8082018281125f831280158216821582161715610c9157610c91611a1c565b5f82611b9a57611b9a611a6f565b50069056fef8c8964548eadb43e47c38099a7eef03cc4b3c188b3ac01b0b7a9c6f20283d3ea2646970667358221220fbb343f8a14483765b4e24b63ba0822b1aaecedff94e7d56094b83d4c8a0f15764736f6c634300081c0033",
  "linkReferences": {},
  "deployedLinkReferences": {},
  "immutableReferences": {
    "3615": [
      {
        "length": 32,
        "start": 5292
      }
    ],
    "3617": [
      {
        "length": 32,
        "start": 5250
      }
    ],
    "3619": [
      {
        "length": 32,
        "start": 5208
      }
    ],
    "3621": [
      {
        "length": 32,
        "start": 5373
      }
    ],
    "3623": [
      {
        "length": 32,
        "start": 5413
      }
    ],
    "3626": [
      {
        "length": 32,
        "start": 4554
      }
    ],
    "3629": [
      {
        "length": 32,
        "start": 4603
      }
    ]
  },
  "inputSourceName": "project/contracts/Bloxland.sol",
  "buildInfoId": "solc-0_8_28-2cf08de630986ad4fee078d3436c516b2add6103"
}